{
  "contractName": "BreedingManager",
  "abi": [
    {
      "inputs": [],
      "stateMutability": "nonpayable",
      "type": "constructor"
    },
    {
      "anonymous": false,
      "inputs": [
        {
          "indexed": false,
          "internalType": "address",
          "name": "operator",
          "type": "address"
        },
        {
          "indexed": false,
          "internalType": "address",
          "name": "from",
          "type": "address"
        },
        {
          "indexed": false,
          "internalType": "uint256",
          "name": "tokenId",
          "type": "uint256"
        },
        {
          "indexed": false,
          "internalType": "bytes",
          "name": "data",
          "type": "bytes"
        },
        {
          "indexed": false,
          "internalType": "uint256",
          "name": "gas",
          "type": "uint256"
        }
      ],
      "name": "ERC721Received",
      "type": "event"
    },
    {
      "anonymous": false,
      "inputs": [
        {
          "indexed": false,
          "internalType": "address",
          "name": "operator",
          "type": "address"
        },
        {
          "indexed": false,
          "internalType": "address",
          "name": "from",
          "type": "address"
        },
        {
          "indexed": false,
          "internalType": "uint256",
          "name": "tokenId",
          "type": "uint256"
        },
        {
          "indexed": false,
          "internalType": "bytes",
          "name": "data",
          "type": "bytes"
        },
        {
          "indexed": false,
          "internalType": "uint256",
          "name": "gas",
          "type": "uint256"
        }
      ],
      "name": "KIP17Received",
      "type": "event"
    },
    {
      "anonymous": false,
      "inputs": [
        {
          "indexed": true,
          "internalType": "address",
          "name": "previousOwner",
          "type": "address"
        },
        {
          "indexed": true,
          "internalType": "address",
          "name": "newOwner",
          "type": "address"
        }
      ],
      "name": "OwnershipTransferred",
      "type": "event"
    },
    {
      "inputs": [
        {
          "internalType": "uint256",
          "name": "",
          "type": "uint256"
        }
      ],
      "name": "childToGeneration",
      "outputs": [
        {
          "internalType": "uint256",
          "name": "",
          "type": "uint256"
        }
      ],
      "stateMutability": "view",
      "type": "function"
    },
    {
      "inputs": [],
      "name": "nftContract",
      "outputs": [
        {
          "internalType": "address",
          "name": "",
          "type": "address"
        }
      ],
      "stateMutability": "view",
      "type": "function"
    },
    {
      "inputs": [],
      "name": "owner",
      "outputs": [
        {
          "internalType": "address",
          "name": "",
          "type": "address"
        }
      ],
      "stateMutability": "view",
      "type": "function"
    },
    {
      "inputs": [
        {
          "internalType": "uint256",
          "name": "",
          "type": "uint256"
        },
        {
          "internalType": "uint256",
          "name": "",
          "type": "uint256"
        }
      ],
      "name": "parents",
      "outputs": [
        {
          "internalType": "uint256",
          "name": "tokenId",
          "type": "uint256"
        },
        {
          "internalType": "address",
          "name": "owner",
          "type": "address"
        }
      ],
      "stateMutability": "view",
      "type": "function"
    },
    {
      "inputs": [],
      "name": "renounceOwnership",
      "outputs": [],
      "stateMutability": "nonpayable",
      "type": "function"
    },
    {
      "inputs": [
        {
          "internalType": "uint256",
          "name": "tokenId1",
          "type": "uint256"
        },
        {
          "internalType": "uint256",
          "name": "tokenId2",
          "type": "uint256"
        },
        {
          "internalType": "uint256",
          "name": "generation",
          "type": "uint256"
        }
      ],
      "name": "breed",
      "outputs": [
        {
          "internalType": "uint256",
          "name": "",
          "type": "uint256"
        }
      ],
      "stateMutability": "nonpayable",
      "type": "function"
    },
    {
      "inputs": [
        {
          "internalType": "address",
          "name": "newOwner",
          "type": "address"
        }
      ],
      "name": "transferOwnership",
      "outputs": [],
      "stateMutability": "nonpayable",
      "type": "function"
    },
    {
      "inputs": [
        {
          "internalType": "address",
          "name": "operator",
          "type": "address"
        },
        {
          "internalType": "address",
          "name": "from",
          "type": "address"
        },
        {
          "internalType": "uint256",
          "name": "tokenId",
          "type": "uint256"
        },
        {
          "internalType": "bytes",
          "name": "data",
          "type": "bytes"
        }
      ],
      "name": "onKIP17Received",
      "outputs": [
        {
          "internalType": "bytes4",
          "name": "",
          "type": "bytes4"
        }
      ],
      "stateMutability": "nonpayable",
      "type": "function"
    },
    {
      "inputs": [
        {
          "internalType": "address",
          "name": "operator",
          "type": "address"
        },
        {
          "internalType": "address",
          "name": "from",
          "type": "address"
        },
        {
          "internalType": "uint256",
          "name": "tokenId",
          "type": "uint256"
        },
        {
          "internalType": "bytes",
          "name": "data",
          "type": "bytes"
        }
      ],
      "name": "onERC721Received",
      "outputs": [
        {
          "internalType": "bytes4",
          "name": "",
          "type": "bytes4"
        }
      ],
      "stateMutability": "nonpayable",
      "type": "function"
    }
  ],
  "bytecode": "0x608060405234801561001057600080fd5b5061002d61002261003260201b60201c565b61003a60201b60201c565b6100fe565b600033905090565b60008060009054906101000a900473ffffffffffffffffffffffffffffffffffffffff169050816000806101000a81548173ffffffffffffffffffffffffffffffffffffffff021916908373ffffffffffffffffffffffffffffffffffffffff1602179055508173ffffffffffffffffffffffffffffffffffffffff168173ffffffffffffffffffffffffffffffffffffffff167f8be0079c531659141344cd1fd0a4f28419497f9722a3daafe3b4186f6b6457e060405160405180910390a35050565b6116828061010d6000396000f3fe608060405234801561001057600080fd5b50600436106100935760003560e01c8063715018a611610066578063715018a6146101595780638da5cb5b146101635780639b5e168714610181578063d56d229d146101b1578063f2fde38b146101cf57610093565b80630a8c62c814610098578063150b7a02146100c957806357c96cdc146100f95780636745782b14610129575b600080fd5b6100b260048036038101906100ad9190610cd5565b6101eb565b6040516100c0929190610d65565b60405180910390f35b6100e360048036038101906100de9190610f00565b610242565b6040516100f09190610fbe565b60405180910390f35b610113600480360381019061010e9190610fd9565b610295565b6040516101209190611006565b60405180910390f35b610143600480360381019061013e9190610f00565b6102ad565b6040516101509190610fbe565b60405180910390f35b610161610300565b005b61016b610314565b6040516101789190611021565b60405180910390f35b61019b6004803603810190610196919061103c565b61033d565b6040516101a89190611006565b60405180910390f35b6101b9610a84565b6040516101c69190611021565b60405180910390f35b6101e960048036038101906101e4919061108f565b610aaa565b005b6001602052816000526040600020816002811061020757600080fd5b60020201600091509150508060000154908060010160009054906101000a900473ffffffffffffffffffffffffffffffffffffffff16905082565b60007fad2dcd3df147b4263de137b64b66a40d39067dd871687fb64c9edb603975b028858585855a60405161027b95949392919061113b565b60405180910390a163150b7a0260e01b9050949350505050565b60026020528060005260406000206000915090505481565b60007f03fe4826f4e2eecbd5e9d9f10141b01e7d0d4fcef0676a0ac94cf4339fd7ebc5858585855a6040516102e695949392919061113b565b60405180910390a1636745782b60e01b9050949350505050565b610308610abe565b6103126000610b3c565b565b60008060009054906101000a900473ffffffffffffffffffffffffffffffffffffffff16905090565b6000610347610abe565b828403610389576040517f08c379a000000000000000000000000000000000000000000000000000000000815260040161038090611218565b60405180910390fd5b6000600360009054906101000a900473ffffffffffffffffffffffffffffffffffffffff1690503373ffffffffffffffffffffffffffffffffffffffff168173ffffffffffffffffffffffffffffffffffffffff16636352211e876040518263ffffffff1660e01b81526004016104009190611006565b602060405180830381865afa15801561041d573d6000803e3d6000fd5b505050506040513d601f19601f82011682018060405250810190610441919061124d565b73ffffffffffffffffffffffffffffffffffffffff1614610497576040517f08c379a000000000000000000000000000000000000000000000000000000000815260040161048e906112ec565b60405180910390fd5b3373ffffffffffffffffffffffffffffffffffffffff168173ffffffffffffffffffffffffffffffffffffffff16636352211e866040518263ffffffff1660e01b81526004016104e79190611006565b602060405180830381865afa158015610504573d6000803e3d6000fd5b505050506040513d601f19601f82011682018060405250810190610528919061124d565b73ffffffffffffffffffffffffffffffffffffffff161461057e576040517f08c379a00000000000000000000000000000000000000000000000000000000081526004016105759061137e565b60405180910390fd5b60008073ffffffffffffffffffffffffffffffffffffffff16600160008881526020019081526020016000206000600281106105bd576105bc61139e565b5b6002020160010160009054906101000a900473ffffffffffffffffffffffffffffffffffffffff1673ffffffffffffffffffffffffffffffffffffffff161461069a57600160008781526020019081526020016000206000600281106106265761062561139e565b5b60020201604051806040016040529081600082015481526020016001820160009054906101000a900473ffffffffffffffffffffffffffffffffffffffff1673ffffffffffffffffffffffffffffffffffffffff1673ffffffffffffffffffffffffffffffffffffffff16815250506106c6565b60405180604001604052808781526020013373ffffffffffffffffffffffffffffffffffffffff168152505b905060008073ffffffffffffffffffffffffffffffffffffffff16600160008881526020019081526020016000206000600281106107075761070661139e565b5b6002020160010160009054906101000a900473ffffffffffffffffffffffffffffffffffffffff1673ffffffffffffffffffffffffffffffffffffffff16146107e457600160008781526020019081526020016000206000600281106107705761076f61139e565b5b60020201604051806040016040529081600082015481526020016001820160009054906101000a900473ffffffffffffffffffffffffffffffffffffffff1673ffffffffffffffffffffffffffffffffffffffff1673ffffffffffffffffffffffffffffffffffffffff1681525050610810565b60405180604001604052808781526020013373ffffffffffffffffffffffffffffffffffffffff168152505b90506002600083600001518152602001908152602001600020548511801561084e575060026000826000015181526020019081526020016000205485115b61088d576040517f08c379a000000000000000000000000000000000000000000000000000000000815260040161088490611465565b60405180910390fd5b60008787876040516020016108a4939291906114a6565b6040516020818303038152906040528051906020012060001c9050600360009054906101000a900473ffffffffffffffffffffffffffffffffffffffff1673ffffffffffffffffffffffffffffffffffffffff1663193f3d6833836040518363ffffffff1660e01b815260040161091c9291906114e3565b6020604051808303816000875af115801561093b573d6000803e3d6000fd5b505050506040513d601f19601f8201168201806040525081019061095f9190611521565b5082600160008381526020019081526020016000206000600281106109875761098661139e565b5b600202016000820151816000015560208201518160010160006101000a81548173ffffffffffffffffffffffffffffffffffffffff021916908373ffffffffffffffffffffffffffffffffffffffff1602179055509050508160016000838152602001908152602001600020600160028110610a0657610a0561139e565b5b600202016000820151816000015560208201518160010160006101000a81548173ffffffffffffffffffffffffffffffffffffffff021916908373ffffffffffffffffffffffffffffffffffffffff160217905550905050856002600083815260200190815260200160002081905550809450505050509392505050565b600360009054906101000a900473ffffffffffffffffffffffffffffffffffffffff1681565b610ab2610abe565b610abb81610c00565b50565b610ac6610c83565b73ffffffffffffffffffffffffffffffffffffffff16610ae4610314565b73ffffffffffffffffffffffffffffffffffffffff1614610b3a576040517f08c379a0000000000000000000000000000000000000000000000000000000008152600401610b319061159a565b60405180910390fd5b565b60008060009054906101000a900473ffffffffffffffffffffffffffffffffffffffff169050816000806101000a81548173ffffffffffffffffffffffffffffffffffffffff021916908373ffffffffffffffffffffffffffffffffffffffff1602179055508173ffffffffffffffffffffffffffffffffffffffff168173ffffffffffffffffffffffffffffffffffffffff167f8be0079c531659141344cd1fd0a4f28419497f9722a3daafe3b4186f6b6457e060405160405180910390a35050565b610c08610abe565b600073ffffffffffffffffffffffffffffffffffffffff168173ffffffffffffffffffffffffffffffffffffffff1603610c77576040517f08c379a0000000000000000000000000000000000000000000000000000000008152600401610c6e9061162c565b60405180910390fd5b610c8081610b3c565b50565b600033905090565b6000604051905090565b600080fd5b600080fd5b6000819050919050565b610cb281610c9f565b8114610cbd57600080fd5b50565b600081359050610ccf81610ca9565b92915050565b60008060408385031215610cec57610ceb610c95565b5b6000610cfa85828601610cc0565b9250506020610d0b85828601610cc0565b9150509250929050565b610d1e81610c9f565b82525050565b600073ffffffffffffffffffffffffffffffffffffffff82169050919050565b6000610d4f82610d24565b9050919050565b610d5f81610d44565b82525050565b6000604082019050610d7a6000830185610d15565b610d876020830184610d56565b9392505050565b610d9781610d44565b8114610da257600080fd5b50565b600081359050610db481610d8e565b92915050565b600080fd5b600080fd5b6000601f19601f8301169050919050565b7f4e487b7100000000000000000000000000000000000000000000000000000000600052604160045260246000fd5b610e0d82610dc4565b810181811067ffffffffffffffff82111715610e2c57610e2b610dd5565b5b80604052505050565b6000610e3f610c8b565b9050610e4b8282610e04565b919050565b600067ffffffffffffffff821115610e6b57610e6a610dd5565b5b610e7482610dc4565b9050602081019050919050565b82818337600083830152505050565b6000610ea3610e9e84610e50565b610e35565b905082815260208101848484011115610ebf57610ebe610dbf565b5b610eca848285610e81565b509392505050565b600082601f830112610ee757610ee6610dba565b5b8135610ef7848260208601610e90565b91505092915050565b60008060008060808587031215610f1a57610f19610c95565b5b6000610f2887828801610da5565b9450506020610f3987828801610da5565b9350506040610f4a87828801610cc0565b925050606085013567ffffffffffffffff811115610f6b57610f6a610c9a565b5b610f7787828801610ed2565b91505092959194509250565b60007fffffffff0000000000000000000000000000000000000000000000000000000082169050919050565b610fb881610f83565b82525050565b6000602082019050610fd36000830184610faf565b92915050565b600060208284031215610fef57610fee610c95565b5b6000610ffd84828501610cc0565b91505092915050565b600060208201905061101b6000830184610d15565b92915050565b60006020820190506110366000830184610d56565b92915050565b60008060006060848603121561105557611054610c95565b5b600061106386828701610cc0565b935050602061107486828701610cc0565b925050604061108586828701610cc0565b9150509250925092565b6000602082840312156110a5576110a4610c95565b5b60006110b384828501610da5565b91505092915050565b600081519050919050565b600082825260208201905092915050565b60005b838110156110f65780820151818401526020810190506110db565b60008484015250505050565b600061110d826110bc565b61111781856110c7565b93506111278185602086016110d8565b61113081610dc4565b840191505092915050565b600060a0820190506111506000830188610d56565b61115d6020830187610d56565b61116a6040830186610d15565b818103606083015261117c8185611102565b905061118b6080830184610d15565b9695505050505050565b600082825260208201905092915050565b7f54686520746f6b656e732070726f7669646564206d757374206265206469666660008201527f6572656e74000000000000000000000000000000000000000000000000000000602082015250565b6000611202602583611195565b915061120d826111a6565b604082019050919050565b60006020820190508181036000830152611231816111f5565b9050919050565b60008151905061124781610d8e565b92915050565b60006020828403121561126357611262610c95565b5b600061127184828501611238565b91505092915050565b7f54686520666972737420746f6b656e2070726f7669646564206d75737420626560008201527f206f776e6564206279207468652073656e646572000000000000000000000000602082015250565b60006112d6603483611195565b91506112e18261127a565b604082019050919050565b60006020820190508181036000830152611305816112c9565b9050919050565b7f546865207365636f6e6420746f6b656e2070726f7669646564206d757374206260008201527f65206f776e6564206279207468652073656e6465720000000000000000000000602082015250565b6000611368603583611195565b91506113738261130c565b604082019050919050565b600060208201905081810360008301526113978161135b565b9050919050565b7f4e487b7100000000000000000000000000000000000000000000000000000000600052603260045260246000fd5b7f546865207370656369666965642067656e65726174696f6e206d75737420626560008201527f2067726561746572207468616e2074686520706172656e742067656e6572617460208201527f696f6e7300000000000000000000000000000000000000000000000000000000604082015250565b600061144f604483611195565b915061145a826113cd565b606082019050919050565b6000602082019050818103600083015261147e81611442565b9050919050565b6000819050919050565b6114a061149b82610c9f565b611485565b82525050565b60006114b2828661148f565b6020820191506114c2828561148f565b6020820191506114d2828461148f565b602082019150819050949350505050565b60006040820190506114f86000830185610d56565b6115056020830184610d15565b9392505050565b60008151905061151b81610ca9565b92915050565b60006020828403121561153757611536610c95565b5b60006115458482850161150c565b91505092915050565b7f4f776e61626c653a2063616c6c6572206973206e6f7420746865206f776e6572600082015250565b6000611584602083611195565b915061158f8261154e565b602082019050919050565b600060208201905081810360008301526115b381611577565b9050919050565b7f4f776e61626c653a206e6577206f776e657220697320746865207a65726f206160008201527f6464726573730000000000000000000000000000000000000000000000000000602082015250565b6000611616602683611195565b9150611621826115ba565b604082019050919050565b6000602082019050818103600083015261164581611609565b905091905056fea26469706673582212207cdd7baf900ba609d71b3a3a55757182428979ad7d63d7c27e7a4a78ff2df9ec64736f6c63430008130033",
  "immutableReferences": {},
  "source": "// SPDX-License-Identifier: MIT\r\n\r\npragma solidity ^0.8.0;\r\n\r\nimport \"@openzeppelin/contracts/access/Ownable.sol\";\r\nimport \"@openzeppelin/contracts/token/ERC721/IERC721.sol\";\r\nimport \"@openzeppelin/contracts/token/ERC721/IERC721Receiver.sol\";\r\nimport \"@openzeppelin/contracts/token/ERC721/utils/ERC721Holder.sol\";\r\nimport \"@openzeppelin/contracts/utils/Strings.sol\";\r\nimport \"./IERC721NFTBase.sol\";\r\n\r\ncontract BreedingManager is Ownable, IERC721Receiver {\r\n    struct Parent {\r\n        uint256 tokenId;\r\n        address owner;\r\n    }\r\n\r\n    mapping(uint256 => Parent[2]) public parents;\r\n    mapping(uint256 => uint256) public childToGeneration;\r\n    address public nftContract;\r\n\r\n    // Equals to `bytes4(keccak256(\"onKIP17Received(address,address,uint256,bytes)\"))`\r\n    // which can be also obtained as `IKIP17Receiver(0).onKIP17Received.selector`\r\n    bytes4 private constant _KIP17_RECEIVED = 0x6745782b;\r\n\r\n    // Equals to `bytes4(keccak256(\"onERC721Received(address,address,uint256,bytes)\"))`\r\n    // which can be also obtained as `IERC721Receiver(0).onERC721Received.selector`\r\n    bytes4 private constant _ERC721_RECEIVED = 0x150b7a02;\r\n\r\n    constructor() {}\r\n\r\n    function breed(\r\n        uint256 tokenId1,\r\n        uint256 tokenId2,\r\n        uint256 generation\r\n    ) external onlyOwner returns (uint256) {\r\n        require(tokenId1 != tokenId2, \"The tokens provided must be different\");\r\n\r\n        IERC721 erc721Nft = IERC721(nftContract);\r\n        require(\r\n            erc721Nft.ownerOf(tokenId1) == msg.sender,\r\n            \"The first token provided must be owned by the sender\"\r\n        );\r\n        require(\r\n            erc721Nft.ownerOf(tokenId2) == msg.sender,\r\n            \"The second token provided must be owned by the sender\"\r\n        );\r\n\r\n        Parent memory parent1 = parents[tokenId1][0].owner == address(0)\r\n            ? Parent(tokenId1, msg.sender)\r\n            : parents[tokenId1][0];\r\n        Parent memory parent2 = parents[tokenId2][0].owner == address(0)\r\n            ? Parent(tokenId2, msg.sender)\r\n            : parents[tokenId2][0];\r\n        require(\r\n            generation > childToGeneration[parent1.tokenId] &&\r\n                generation > childToGeneration[parent2.tokenId],\r\n            \"The specified generation must be greater than the parent generations\"\r\n        );\r\n\r\n        uint256 newTokenId = uint256(\r\n            keccak256(abi.encodePacked(tokenId1, tokenId2, generation))\r\n        );\r\n\r\n        IERC721NFTBase(nftContract).safeMintWithTokenId(msg.sender, newTokenId);\r\n\r\n        parents[newTokenId][0] = parent1;\r\n        parents[newTokenId][1] = parent2;\r\n        childToGeneration[newTokenId] = generation;\r\n\r\n        return newTokenId;\r\n    }\r\n\r\n    function transferOwnership(\r\n        address newOwner\r\n    ) public override(Ownable) onlyOwner {\r\n        super.transferOwnership(newOwner);\r\n    }\r\n\r\n    ///////////\r\n    /// Reciever//\r\n    /////////////\r\n    event KIP17Received(\r\n        address operator,\r\n        address from,\r\n        uint256 tokenId,\r\n        bytes data,\r\n        uint256 gas\r\n    );\r\n\r\n    function onKIP17Received(\r\n        address operator,\r\n        address from,\r\n        uint256 tokenId,\r\n        bytes memory data\r\n    ) public returns (bytes4) {\r\n        emit KIP17Received(operator, from, tokenId, data, gasleft());\r\n        return _KIP17_RECEIVED;\r\n    }\r\n\r\n    event ERC721Received(\r\n        address operator,\r\n        address from,\r\n        uint256 tokenId,\r\n        bytes data,\r\n        uint256 gas\r\n    );\r\n\r\n    function onERC721Received(\r\n        address operator,\r\n        address from,\r\n        uint256 tokenId,\r\n        bytes memory data\r\n    ) public returns (bytes4) {\r\n        emit ERC721Received(operator, from, tokenId, data, gasleft());\r\n        return _ERC721_RECEIVED;\r\n    }\r\n}\r\n",
  "sourcePath": "C:\\git\\web3.0-general\\SmartContractRepo\\contracts\\BreedingManager.sol",
  "compiler": {
    "name": "solc",
    "version": "0.8.19+commit.7dd6d404.Emscripten.clang"
  },
  "schemaVersion": "3.4.13",
  "updatedAt": "2023-03-28T07:39:30.813Z",
  "devdoc": {
    "kind": "dev",
    "methods": {
      "onERC721Received(address,address,uint256,bytes)": {
        "details": "Whenever an {IERC721} `tokenId` token is transferred to this contract via {IERC721-safeTransferFrom} by `operator` from `from`, this function is called. It must return its Solidity selector to confirm the token transfer. If any other value is returned or the interface is not implemented by the recipient, the transfer will be reverted. The selector can be obtained in Solidity with `IERC721Receiver.onERC721Received.selector`."
      },
      "owner()": {
        "details": "Returns the address of the current owner."
      },
      "renounceOwnership()": {
        "details": "Leaves the contract without owner. It will not be possible to call `onlyOwner` functions anymore. Can only be called by the current owner. NOTE: Renouncing ownership will leave the contract without an owner, thereby removing any functionality that is only available to the owner."
      },
      "transferOwnership(address)": {
        "details": "Transfers ownership of the contract to a new account (`newOwner`). Can only be called by the current owner."
      }
    },
    "version": 1
  },
  "userdoc": {
    "events": {
      "KIP17Received(address,address,uint256,bytes,uint256)": {
        "notice": "Reciever//"
      }
    },
    "kind": "user",
    "methods": {},
    "version": 1
  }
}