{
  "contractName": "ERC721NFTBase",
  "abi": [
    {
      "inputs": [
        {
          "internalType": "string",
          "name": "name",
          "type": "string"
        },
        {
          "internalType": "string",
          "name": "symbol",
          "type": "string"
        },
        {
          "internalType": "string",
          "name": "newbaseURI",
          "type": "string"
        }
      ],
      "stateMutability": "nonpayable",
      "type": "constructor"
    },
    {
      "anonymous": false,
      "inputs": [
        {
          "indexed": true,
          "internalType": "address",
          "name": "owner",
          "type": "address"
        },
        {
          "indexed": true,
          "internalType": "address",
          "name": "approved",
          "type": "address"
        },
        {
          "indexed": true,
          "internalType": "uint256",
          "name": "tokenId",
          "type": "uint256"
        }
      ],
      "name": "Approval",
      "type": "event"
    },
    {
      "anonymous": false,
      "inputs": [
        {
          "indexed": true,
          "internalType": "address",
          "name": "owner",
          "type": "address"
        },
        {
          "indexed": true,
          "internalType": "address",
          "name": "operator",
          "type": "address"
        },
        {
          "indexed": false,
          "internalType": "bool",
          "name": "approved",
          "type": "bool"
        }
      ],
      "name": "ApprovalForAll",
      "type": "event"
    },
    {
      "anonymous": false,
      "inputs": [
        {
          "indexed": false,
          "internalType": "address",
          "name": "account",
          "type": "address"
        }
      ],
      "name": "Paused",
      "type": "event"
    },
    {
      "anonymous": false,
      "inputs": [
        {
          "indexed": true,
          "internalType": "bytes32",
          "name": "role",
          "type": "bytes32"
        },
        {
          "indexed": true,
          "internalType": "bytes32",
          "name": "previousAdminRole",
          "type": "bytes32"
        },
        {
          "indexed": true,
          "internalType": "bytes32",
          "name": "newAdminRole",
          "type": "bytes32"
        }
      ],
      "name": "RoleAdminChanged",
      "type": "event"
    },
    {
      "anonymous": false,
      "inputs": [
        {
          "indexed": true,
          "internalType": "bytes32",
          "name": "role",
          "type": "bytes32"
        },
        {
          "indexed": true,
          "internalType": "address",
          "name": "account",
          "type": "address"
        },
        {
          "indexed": true,
          "internalType": "address",
          "name": "sender",
          "type": "address"
        }
      ],
      "name": "RoleGranted",
      "type": "event"
    },
    {
      "anonymous": false,
      "inputs": [
        {
          "indexed": true,
          "internalType": "bytes32",
          "name": "role",
          "type": "bytes32"
        },
        {
          "indexed": true,
          "internalType": "address",
          "name": "account",
          "type": "address"
        },
        {
          "indexed": true,
          "internalType": "address",
          "name": "sender",
          "type": "address"
        }
      ],
      "name": "RoleRevoked",
      "type": "event"
    },
    {
      "anonymous": false,
      "inputs": [
        {
          "indexed": true,
          "internalType": "address",
          "name": "from",
          "type": "address"
        },
        {
          "indexed": true,
          "internalType": "address",
          "name": "to",
          "type": "address"
        },
        {
          "indexed": true,
          "internalType": "uint256",
          "name": "tokenId",
          "type": "uint256"
        }
      ],
      "name": "Transfer",
      "type": "event"
    },
    {
      "anonymous": false,
      "inputs": [
        {
          "indexed": false,
          "internalType": "address",
          "name": "account",
          "type": "address"
        }
      ],
      "name": "Unpaused",
      "type": "event"
    },
    {
      "inputs": [],
      "name": "DEFAULT_ADMIN_ROLE",
      "outputs": [
        {
          "internalType": "bytes32",
          "name": "",
          "type": "bytes32"
        }
      ],
      "stateMutability": "view",
      "type": "function"
    },
    {
      "inputs": [],
      "name": "MINTER_ROLE",
      "outputs": [
        {
          "internalType": "bytes32",
          "name": "",
          "type": "bytes32"
        }
      ],
      "stateMutability": "view",
      "type": "function"
    },
    {
      "inputs": [],
      "name": "OWNER_ROLE",
      "outputs": [
        {
          "internalType": "bytes32",
          "name": "",
          "type": "bytes32"
        }
      ],
      "stateMutability": "view",
      "type": "function"
    },
    {
      "inputs": [
        {
          "internalType": "address",
          "name": "to",
          "type": "address"
        },
        {
          "internalType": "uint256",
          "name": "tokenId",
          "type": "uint256"
        }
      ],
      "name": "approve",
      "outputs": [],
      "stateMutability": "nonpayable",
      "type": "function"
    },
    {
      "inputs": [
        {
          "internalType": "address",
          "name": "owner",
          "type": "address"
        }
      ],
      "name": "balanceOf",
      "outputs": [
        {
          "internalType": "uint256",
          "name": "",
          "type": "uint256"
        }
      ],
      "stateMutability": "view",
      "type": "function"
    },
    {
      "inputs": [
        {
          "internalType": "uint256",
          "name": "tokenId",
          "type": "uint256"
        }
      ],
      "name": "burn",
      "outputs": [],
      "stateMutability": "nonpayable",
      "type": "function"
    },
    {
      "inputs": [
        {
          "internalType": "uint256",
          "name": "tokenId",
          "type": "uint256"
        }
      ],
      "name": "getApproved",
      "outputs": [
        {
          "internalType": "address",
          "name": "",
          "type": "address"
        }
      ],
      "stateMutability": "view",
      "type": "function"
    },
    {
      "inputs": [
        {
          "internalType": "bytes32",
          "name": "role",
          "type": "bytes32"
        }
      ],
      "name": "getRoleAdmin",
      "outputs": [
        {
          "internalType": "bytes32",
          "name": "",
          "type": "bytes32"
        }
      ],
      "stateMutability": "view",
      "type": "function"
    },
    {
      "inputs": [
        {
          "internalType": "bytes32",
          "name": "role",
          "type": "bytes32"
        },
        {
          "internalType": "uint256",
          "name": "index",
          "type": "uint256"
        }
      ],
      "name": "getRoleMember",
      "outputs": [
        {
          "internalType": "address",
          "name": "",
          "type": "address"
        }
      ],
      "stateMutability": "view",
      "type": "function"
    },
    {
      "inputs": [
        {
          "internalType": "bytes32",
          "name": "role",
          "type": "bytes32"
        }
      ],
      "name": "getRoleMemberCount",
      "outputs": [
        {
          "internalType": "uint256",
          "name": "",
          "type": "uint256"
        }
      ],
      "stateMutability": "view",
      "type": "function"
    },
    {
      "inputs": [
        {
          "internalType": "bytes32",
          "name": "role",
          "type": "bytes32"
        },
        {
          "internalType": "address",
          "name": "account",
          "type": "address"
        }
      ],
      "name": "grantRole",
      "outputs": [],
      "stateMutability": "nonpayable",
      "type": "function"
    },
    {
      "inputs": [
        {
          "internalType": "bytes32",
          "name": "role",
          "type": "bytes32"
        },
        {
          "internalType": "address",
          "name": "account",
          "type": "address"
        }
      ],
      "name": "hasRole",
      "outputs": [
        {
          "internalType": "bool",
          "name": "",
          "type": "bool"
        }
      ],
      "stateMutability": "view",
      "type": "function"
    },
    {
      "inputs": [
        {
          "internalType": "address",
          "name": "owner",
          "type": "address"
        },
        {
          "internalType": "address",
          "name": "operator",
          "type": "address"
        }
      ],
      "name": "isApprovedForAll",
      "outputs": [
        {
          "internalType": "bool",
          "name": "",
          "type": "bool"
        }
      ],
      "stateMutability": "view",
      "type": "function"
    },
    {
      "inputs": [],
      "name": "name",
      "outputs": [
        {
          "internalType": "string",
          "name": "",
          "type": "string"
        }
      ],
      "stateMutability": "view",
      "type": "function"
    },
    {
      "inputs": [
        {
          "internalType": "uint256",
          "name": "tokenId",
          "type": "uint256"
        }
      ],
      "name": "ownerOf",
      "outputs": [
        {
          "internalType": "address",
          "name": "",
          "type": "address"
        }
      ],
      "stateMutability": "view",
      "type": "function"
    },
    {
      "inputs": [],
      "name": "paused",
      "outputs": [
        {
          "internalType": "bool",
          "name": "",
          "type": "bool"
        }
      ],
      "stateMutability": "view",
      "type": "function"
    },
    {
      "inputs": [
        {
          "internalType": "bytes32",
          "name": "role",
          "type": "bytes32"
        },
        {
          "internalType": "address",
          "name": "account",
          "type": "address"
        }
      ],
      "name": "renounceRole",
      "outputs": [],
      "stateMutability": "nonpayable",
      "type": "function"
    },
    {
      "inputs": [
        {
          "internalType": "bytes32",
          "name": "role",
          "type": "bytes32"
        },
        {
          "internalType": "address",
          "name": "account",
          "type": "address"
        }
      ],
      "name": "revokeRole",
      "outputs": [],
      "stateMutability": "nonpayable",
      "type": "function"
    },
    {
      "inputs": [
        {
          "internalType": "address",
          "name": "from",
          "type": "address"
        },
        {
          "internalType": "address",
          "name": "to",
          "type": "address"
        },
        {
          "internalType": "uint256",
          "name": "tokenId",
          "type": "uint256"
        }
      ],
      "name": "safeTransferFrom",
      "outputs": [],
      "stateMutability": "nonpayable",
      "type": "function"
    },
    {
      "inputs": [
        {
          "internalType": "address",
          "name": "from",
          "type": "address"
        },
        {
          "internalType": "address",
          "name": "to",
          "type": "address"
        },
        {
          "internalType": "uint256",
          "name": "tokenId",
          "type": "uint256"
        },
        {
          "internalType": "bytes",
          "name": "data",
          "type": "bytes"
        }
      ],
      "name": "safeTransferFrom",
      "outputs": [],
      "stateMutability": "nonpayable",
      "type": "function"
    },
    {
      "inputs": [
        {
          "internalType": "address",
          "name": "operator",
          "type": "address"
        },
        {
          "internalType": "bool",
          "name": "approved",
          "type": "bool"
        }
      ],
      "name": "setApprovalForAll",
      "outputs": [],
      "stateMutability": "nonpayable",
      "type": "function"
    },
    {
      "inputs": [],
      "name": "symbol",
      "outputs": [
        {
          "internalType": "string",
          "name": "",
          "type": "string"
        }
      ],
      "stateMutability": "view",
      "type": "function"
    },
    {
      "inputs": [
        {
          "internalType": "uint256",
          "name": "index",
          "type": "uint256"
        }
      ],
      "name": "tokenByIndex",
      "outputs": [
        {
          "internalType": "uint256",
          "name": "",
          "type": "uint256"
        }
      ],
      "stateMutability": "view",
      "type": "function"
    },
    {
      "inputs": [
        {
          "internalType": "address",
          "name": "owner",
          "type": "address"
        },
        {
          "internalType": "uint256",
          "name": "index",
          "type": "uint256"
        }
      ],
      "name": "tokenOfOwnerByIndex",
      "outputs": [
        {
          "internalType": "uint256",
          "name": "",
          "type": "uint256"
        }
      ],
      "stateMutability": "view",
      "type": "function"
    },
    {
      "inputs": [],
      "name": "totalSupply",
      "outputs": [
        {
          "internalType": "uint256",
          "name": "",
          "type": "uint256"
        }
      ],
      "stateMutability": "view",
      "type": "function"
    },
    {
      "inputs": [
        {
          "internalType": "address",
          "name": "from",
          "type": "address"
        },
        {
          "internalType": "address",
          "name": "to",
          "type": "address"
        },
        {
          "internalType": "uint256",
          "name": "tokenId",
          "type": "uint256"
        }
      ],
      "name": "transferFrom",
      "outputs": [],
      "stateMutability": "nonpayable",
      "type": "function"
    },
    {
      "inputs": [
        {
          "internalType": "address",
          "name": "to",
          "type": "address"
        },
        {
          "internalType": "uint256",
          "name": "tokenId",
          "type": "uint256"
        }
      ],
      "name": "safeMintWithTokenId",
      "outputs": [
        {
          "internalType": "uint256",
          "name": "",
          "type": "uint256"
        }
      ],
      "stateMutability": "nonpayable",
      "type": "function"
    },
    {
      "inputs": [
        {
          "internalType": "string",
          "name": "newbaseURI",
          "type": "string"
        }
      ],
      "name": "setBaseURI",
      "outputs": [],
      "stateMutability": "nonpayable",
      "type": "function"
    },
    {
      "inputs": [
        {
          "internalType": "address",
          "name": "newOwner",
          "type": "address"
        }
      ],
      "name": "transferOwnership",
      "outputs": [],
      "stateMutability": "nonpayable",
      "type": "function"
    },
    {
      "inputs": [],
      "name": "getNextTokenId",
      "outputs": [
        {
          "internalType": "uint256",
          "name": "",
          "type": "uint256"
        }
      ],
      "stateMutability": "view",
      "type": "function"
    },
    {
      "inputs": [
        {
          "internalType": "uint256",
          "name": "tokenId",
          "type": "uint256"
        }
      ],
      "name": "tokenURI",
      "outputs": [
        {
          "internalType": "string",
          "name": "",
          "type": "string"
        }
      ],
      "stateMutability": "view",
      "type": "function"
    },
    {
      "inputs": [],
      "name": "pause",
      "outputs": [],
      "stateMutability": "nonpayable",
      "type": "function"
    },
    {
      "inputs": [],
      "name": "unpause",
      "outputs": [],
      "stateMutability": "nonpayable",
      "type": "function"
    },
    {
      "inputs": [
        {
          "internalType": "bytes4",
          "name": "interfaceId",
          "type": "bytes4"
        }
      ],
      "name": "supportsInterface",
      "outputs": [
        {
          "internalType": "bool",
          "name": "",
          "type": "bool"
        }
      ],
      "stateMutability": "view",
      "type": "function"
    }
  ],
  "bytecode": "0x60806040523480156200001157600080fd5b50604051620055833803806200558383398181016040528101906200003791906200052f565b828281600090816200004a919062000833565b5080600190816200005c919062000833565b5050506000600a60006101000a81548160ff0219169083151502179055506200008f6000801b336200010e60201b60201c565b620000c17f9f2df0fed2c77648de5860a4cc508cd0818c85b8b8a1ab4ceeef8d981c8956a6336200010e60201b60201c565b620000f37fb19546dff01e856fb3f010c267a7b1c60363cf8a4664e21cc89c26224620214e336200010e60201b60201c565b80600f908162000104919062000833565b505050506200091a565b6200012082826200012460201b60201c565b5050565b6200013682826200016260201b60201c565b6200015d81600c60008581526020019081526020016000206200025460201b90919060201c565b505050565b6200017482826200028c60201b60201c565b62000250576001600b600084815260200190815260200160002060000160008373ffffffffffffffffffffffffffffffffffffffff1673ffffffffffffffffffffffffffffffffffffffff16815260200190815260200160002060006101000a81548160ff021916908315150217905550620001f5620002f760201b60201c565b73ffffffffffffffffffffffffffffffffffffffff168173ffffffffffffffffffffffffffffffffffffffff16837f2f8788117e7eff1d82e926ec794901d17c78024a50270940304540a733656f0d60405160405180910390a45b5050565b600062000284836000018373ffffffffffffffffffffffffffffffffffffffff1660001b620002ff60201b60201c565b905092915050565b6000600b600084815260200190815260200160002060000160008373ffffffffffffffffffffffffffffffffffffffff1673ffffffffffffffffffffffffffffffffffffffff16815260200190815260200160002060009054906101000a900460ff16905092915050565b600033905090565b60006200031383836200037960201b60201c565b6200036e57826000018290806001815401808255809150506001900390600052602060002001600090919091909150558260000180549050836001016000848152602001908152602001600020819055506001905062000373565b600090505b92915050565b600080836001016000848152602001908152602001600020541415905092915050565b6000604051905090565b600080fd5b600080fd5b600080fd5b600080fd5b6000601f19601f8301169050919050565b7f4e487b7100000000000000000000000000000000000000000000000000000000600052604160045260246000fd5b6200040582620003ba565b810181811067ffffffffffffffff82111715620004275762000426620003cb565b5b80604052505050565b60006200043c6200039c565b90506200044a8282620003fa565b919050565b600067ffffffffffffffff8211156200046d576200046c620003cb565b5b6200047882620003ba565b9050602081019050919050565b60005b83811015620004a557808201518184015260208101905062000488565b60008484015250505050565b6000620004c8620004c2846200044f565b62000430565b905082815260208101848484011115620004e757620004e6620003b5565b5b620004f484828562000485565b509392505050565b600082601f830112620005145762000513620003b0565b5b815162000526848260208601620004b1565b91505092915050565b6000806000606084860312156200054b576200054a620003a6565b5b600084015167ffffffffffffffff8111156200056c576200056b620003ab565b5b6200057a86828701620004fc565b935050602084015167ffffffffffffffff8111156200059e576200059d620003ab565b5b620005ac86828701620004fc565b925050604084015167ffffffffffffffff811115620005d057620005cf620003ab565b5b620005de86828701620004fc565b9150509250925092565b600081519050919050565b7f4e487b7100000000000000000000000000000000000000000000000000000000600052602260045260246000fd5b600060028204905060018216806200063b57607f821691505b602082108103620006515762000650620005f3565b5b50919050565b60008190508160005260206000209050919050565b60006020601f8301049050919050565b600082821b905092915050565b600060088302620006bb7fffffffffffffffffffffffffffffffffffffffffffffffffffffffffffffffff826200067c565b620006c786836200067c565b95508019841693508086168417925050509392505050565b6000819050919050565b6000819050919050565b6000620007146200070e6200070884620006df565b620006e9565b620006df565b9050919050565b6000819050919050565b6200073083620006f3565b620007486200073f826200071b565b84845462000689565b825550505050565b600090565b6200075f62000750565b6200076c81848462000725565b505050565b5b8181101562000794576200078860008262000755565b60018101905062000772565b5050565b601f821115620007e357620007ad8162000657565b620007b8846200066c565b81016020851015620007c8578190505b620007e0620007d7856200066c565b83018262000771565b50505b505050565b600082821c905092915050565b60006200080860001984600802620007e8565b1980831691505092915050565b6000620008238383620007f5565b9150826002028217905092915050565b6200083e82620005e8565b67ffffffffffffffff8111156200085a5762000859620003cb565b5b62000866825462000622565b6200087382828562000798565b600060209050601f831160018114620008ab576000841562000896578287015190505b620008a2858262000815565b86555062000912565b601f198416620008bb8662000657565b60005b82811015620008e557848901518255600182019150602085019450602081019050620008be565b8683101562000905578489015162000901601f891682620007f5565b8355505b6001600288020188555050505b505050505050565b614c59806200092a6000396000f3fe608060405234801561001057600080fd5b50600436106102065760003560e01c80636352211e1161011a578063b88d4fde116100ad578063d53913931161007c578063d53913931461060f578063d547741f1461062d578063e58378bb14610649578063e985e9c514610667578063f2fde38b1461069757610206565b8063b88d4fde14610575578063c87b56dd14610591578063ca15c873146105c1578063caa0f92a146105f157610206565b806391d14854116100e957806391d14854146104ed57806395d89b411461051d578063a217fddf1461053b578063a22cb4651461055957610206565b80636352211e1461045357806370a08231146104835780638456cb59146104b35780639010d07c146104bd57610206565b80632f2ff15d1161019d57806342842e0e1161016c57806342842e0e146103b157806342966c68146103cd5780634f6ccce7146103e957806355f804b3146104195780635c975abb1461043557610206565b80632f2ff15d1461033f5780632f745c591461035b57806336568abe1461038b5780633f4ba83a146103a757610206565b806318160ddd116101d957806318160ddd146102a5578063193f3d68146102c357806323b872dd146102f3578063248a9ca31461030f57610206565b806301ffc9a71461020b57806306fdde031461023b578063081812fc14610259578063095ea7b314610289575b600080fd5b610225600480360381019061022091906132c9565b6106b3565b6040516102329190613311565b60405180910390f35b6102436106c5565b60405161025091906133bc565b60405180910390f35b610273600480360381019061026e9190613414565b610757565b6040516102809190613482565b60405180910390f35b6102a3600480360381019061029e91906134c9565b61079d565b005b6102ad6108b4565b6040516102ba9190613518565b60405180910390f35b6102dd60048036038101906102d891906134c9565b6108c1565b6040516102ea9190613518565b60405180910390f35b61030d60048036038101906103089190613533565b610966565b005b610329600480360381019061032491906135bc565b6109c6565b60405161033691906135f8565b60405180910390f35b61035960048036038101906103549190613613565b6109e6565b005b610375600480360381019061037091906134c9565b610a07565b6040516103829190613518565b60405180910390f35b6103a560048036038101906103a09190613613565b610aac565b005b6103af610b2f565b005b6103cb60048036038101906103c69190613533565b610b47565b005b6103e760048036038101906103e29190613414565b610b67565b005b61040360048036038101906103fe9190613414565b610bc3565b6040516104109190613518565b60405180910390f35b610433600480360381019061042e9190613788565b610c34565b005b61043d610c72565b60405161044a9190613311565b60405180910390f35b61046d60048036038101906104689190613414565b610c89565b60405161047a9190613482565b60405180910390f35b61049d600480360381019061049891906137d1565b610d0f565b6040516104aa9190613518565b60405180910390f35b6104bb610dc6565b005b6104d760048036038101906104d291906137fe565b610dde565b6040516104e49190613482565b60405180910390f35b61050760048036038101906105029190613613565b610e0d565b6040516105149190613311565b60405180910390f35b610525610e78565b60405161053291906133bc565b60405180910390f35b610543610f0a565b60405161055091906135f8565b60405180910390f35b610573600480360381019061056e919061386a565b610f11565b005b61058f600480360381019061058a919061394b565b610f27565b005b6105ab60048036038101906105a69190613414565b610f89565b6040516105b891906133bc565b60405180910390f35b6105db60048036038101906105d691906135bc565b611031565b6040516105e89190613518565b60405180910390f35b6105f9611055565b6040516106069190613518565b60405180910390f35b610617611072565b60405161062491906135f8565b60405180910390f35b61064760048036038101906106429190613613565b611096565b005b6106516110b7565b60405161065e91906135f8565b60405180910390f35b610681600480360381019061067c91906139ce565b6110db565b60405161068e9190613311565b60405180910390f35b6106b160048036038101906106ac91906137d1565b61116f565b005b60006106be82611260565b9050919050565b6060600080546106d490613a3d565b80601f016020809104026020016040519081016040528092919081815260200182805461070090613a3d565b801561074d5780601f106107225761010080835404028352916020019161074d565b820191906000526020600020905b81548152906001019060200180831161073057829003601f168201915b5050505050905090565b6000610762826112da565b6004600083815260200190815260200160002060009054906101000a900473ffffffffffffffffffffffffffffffffffffffff169050919050565b60006107a882610c89565b90508073ffffffffffffffffffffffffffffffffffffffff168373ffffffffffffffffffffffffffffffffffffffff1603610818576040517f08c379a000000000000000000000000000000000000000000000000000000000815260040161080f90613ae0565b60405180910390fd5b8073ffffffffffffffffffffffffffffffffffffffff16610837611325565b73ffffffffffffffffffffffffffffffffffffffff161480610866575061086581610860611325565b6110db565b5b6108a5576040517f08c379a000000000000000000000000000000000000000000000000000000000815260040161089c90613b72565b60405180910390fd5b6108af838361132d565b505050565b6000600880549050905090565b60007f9f2df0fed2c77648de5860a4cc508cd0818c85b8b8a1ab4ceeef8d981c8956a66108ed816113e6565b6108f6836113fa565b15610936576040517f08c379a000000000000000000000000000000000000000000000000000000000815260040161092d90613bde565b60405180910390fd5b610940848461143b565b61094a600e611459565b83111561095c5761095b600e611467565b5b8291505092915050565b610977610971611325565b8261147d565b6109b6576040517f08c379a00000000000000000000000000000000000000000000000000000000081526004016109ad90613c70565b60405180910390fd5b6109c1838383611512565b505050565b6000600b6000838152602001908152602001600020600101549050919050565b6109ef826109c6565b6109f8816113e6565b610a02838361180b565b505050565b6000610a1283610d0f565b8210610a53576040517f08c379a0000000000000000000000000000000000000000000000000000000008152600401610a4a90613d02565b60405180910390fd5b600660008473ffffffffffffffffffffffffffffffffffffffff1673ffffffffffffffffffffffffffffffffffffffff168152602001908152602001600020600083815260200190815260200160002054905092915050565b610ab4611325565b73ffffffffffffffffffffffffffffffffffffffff168173ffffffffffffffffffffffffffffffffffffffff1614610b21576040517f08c379a0000000000000000000000000000000000000000000000000000000008152600401610b1890613d94565b60405180910390fd5b610b2b828261183f565b5050565b6000801b610b3c816113e6565b610b44611873565b50565b610b6283838360405180602001604052806000815250610f27565b505050565b610b78610b72611325565b8261147d565b610bb7576040517f08c379a0000000000000000000000000000000000000000000000000000000008152600401610bae90613c70565b60405180910390fd5b610bc0816118d6565b50565b6000610bcd6108b4565b8210610c0e576040517f08c379a0000000000000000000000000000000000000000000000000000000008152600401610c0590613e26565b60405180910390fd5b60088281548110610c2257610c21613e46565b5b90600052602060002001549050919050565b7fb19546dff01e856fb3f010c267a7b1c60363cf8a4664e21cc89c26224620214e610c5e816113e6565b81600f9081610c6d9190614021565b505050565b6000600a60009054906101000a900460ff16905090565b600080610c95836118e2565b9050600073ffffffffffffffffffffffffffffffffffffffff168173ffffffffffffffffffffffffffffffffffffffff1603610d06576040517f08c379a0000000000000000000000000000000000000000000000000000000008152600401610cfd9061413f565b60405180910390fd5b80915050919050565b60008073ffffffffffffffffffffffffffffffffffffffff168273ffffffffffffffffffffffffffffffffffffffff1603610d7f576040517f08c379a0000000000000000000000000000000000000000000000000000000008152600401610d76906141d1565b60405180910390fd5b600360008373ffffffffffffffffffffffffffffffffffffffff1673ffffffffffffffffffffffffffffffffffffffff168152602001908152602001600020549050919050565b6000801b610dd3816113e6565b610ddb61191f565b50565b6000610e0582600c600086815260200190815260200160002061198290919063ffffffff16565b905092915050565b6000600b600084815260200190815260200160002060000160008373ffffffffffffffffffffffffffffffffffffffff1673ffffffffffffffffffffffffffffffffffffffff16815260200190815260200160002060009054906101000a900460ff16905092915050565b606060018054610e8790613a3d565b80601f0160208091040260200160405190810160405280929190818152602001828054610eb390613a3d565b8015610f005780601f10610ed557610100808354040283529160200191610f00565b820191906000526020600020905b815481529060010190602001808311610ee357829003601f168201915b5050505050905090565b6000801b81565b610f23610f1c611325565b838361199c565b5050565b610f38610f32611325565b8361147d565b610f77576040517f08c379a0000000000000000000000000000000000000000000000000000000008152600401610f6e90613c70565b60405180910390fd5b610f8384848484611b08565b50505050565b6060610f94826113fa565b610fd3576040517f08c379a0000000000000000000000000000000000000000000000000000000008152600401610fca9061423d565b60405180910390fd5b6000600f8054610fe290613a3d565b905011610ffe576040518060200160405280600081525061102a565b600f61100983611b64565b60405160200161101a92919061431c565b6040516020818303038152906040525b9050919050565b600061104e600c6000848152602001908152602001600020611c32565b9050919050565b60006001611063600e611459565b61106d919061436f565b905090565b7f9f2df0fed2c77648de5860a4cc508cd0818c85b8b8a1ab4ceeef8d981c8956a681565b61109f826109c6565b6110a8816113e6565b6110b2838361183f565b505050565b7fb19546dff01e856fb3f010c267a7b1c60363cf8a4664e21cc89c26224620214e81565b6000600560008473ffffffffffffffffffffffffffffffffffffffff1673ffffffffffffffffffffffffffffffffffffffff16815260200190815260200160002060008373ffffffffffffffffffffffffffffffffffffffff1673ffffffffffffffffffffffffffffffffffffffff16815260200190815260200160002060009054906101000a900460ff16905092915050565b7fb19546dff01e856fb3f010c267a7b1c60363cf8a4664e21cc89c26224620214e611199816113e6565b600073ffffffffffffffffffffffffffffffffffffffff168273ffffffffffffffffffffffffffffffffffffffff1603611208576040517f08c379a00000000000000000000000000000000000000000000000000000000081526004016111ff906143ef565b60405180910390fd5b6112327fb19546dff01e856fb3f010c267a7b1c60363cf8a4664e21cc89c26224620214e33611096565b61125c7fb19546dff01e856fb3f010c267a7b1c60363cf8a4664e21cc89c26224620214e836109e6565b5050565b60007f5a05180f000000000000000000000000000000000000000000000000000000007bffffffffffffffffffffffffffffffffffffffffffffffffffffffff1916827bffffffffffffffffffffffffffffffffffffffffffffffffffffffff191614806112d357506112d282611c47565b5b9050919050565b6112e3816113fa565b611322576040517f08c379a00000000000000000000000000000000000000000000000000000000081526004016113199061413f565b60405180910390fd5b50565b600033905090565b816004600083815260200190815260200160002060006101000a81548173ffffffffffffffffffffffffffffffffffffffff021916908373ffffffffffffffffffffffffffffffffffffffff160217905550808273ffffffffffffffffffffffffffffffffffffffff166113a083610c89565b73ffffffffffffffffffffffffffffffffffffffff167f8c5be1e5ebec7d5bd14f71427d1e84f3dd0314c0f7b2291e5b200ac8c7c3b92560405160405180910390a45050565b6113f7816113f2611325565b611cc1565b50565b60008073ffffffffffffffffffffffffffffffffffffffff1661141c836118e2565b73ffffffffffffffffffffffffffffffffffffffff1614159050919050565b611455828260405180602001604052806000815250611d46565b5050565b600081600001549050919050565b6001816000016000828254019250508190555050565b60008061148983610c89565b90508073ffffffffffffffffffffffffffffffffffffffff168473ffffffffffffffffffffffffffffffffffffffff1614806114cb57506114ca81856110db565b5b8061150957508373ffffffffffffffffffffffffffffffffffffffff166114f184610757565b73ffffffffffffffffffffffffffffffffffffffff16145b91505092915050565b8273ffffffffffffffffffffffffffffffffffffffff1661153282610c89565b73ffffffffffffffffffffffffffffffffffffffff1614611588576040517f08c379a000000000000000000000000000000000000000000000000000000000815260040161157f90614481565b60405180910390fd5b600073ffffffffffffffffffffffffffffffffffffffff168273ffffffffffffffffffffffffffffffffffffffff16036115f7576040517f08c379a00000000000000000000000000000000000000000000000000000000081526004016115ee90614513565b60405180910390fd5b6116048383836001611da1565b8273ffffffffffffffffffffffffffffffffffffffff1661162482610c89565b73ffffffffffffffffffffffffffffffffffffffff161461167a576040517f08c379a000000000000000000000000000000000000000000000000000000000815260040161167190614481565b60405180910390fd5b6004600082815260200190815260200160002060006101000a81549073ffffffffffffffffffffffffffffffffffffffff02191690556001600360008573ffffffffffffffffffffffffffffffffffffffff1673ffffffffffffffffffffffffffffffffffffffff168152602001908152602001600020600082825403925050819055506001600360008473ffffffffffffffffffffffffffffffffffffffff1673ffffffffffffffffffffffffffffffffffffffff16815260200190815260200160002060008282540192505081905550816002600083815260200190815260200160002060006101000a81548173ffffffffffffffffffffffffffffffffffffffff021916908373ffffffffffffffffffffffffffffffffffffffff160217905550808273ffffffffffffffffffffffffffffffffffffffff168473ffffffffffffffffffffffffffffffffffffffff167fddf252ad1be2c89b69c2b068fc378daa952ba7f163c4a11628f55a4df523b3ef60405160405180910390a46118068383836001611db3565b505050565b6118158282611db9565b61183a81600c6000858152602001908152602001600020611e9a90919063ffffffff16565b505050565b6118498282611eca565b61186e81600c6000858152602001908152602001600020611fac90919063ffffffff16565b505050565b61187b611fdc565b6000600a60006101000a81548160ff0219169083151502179055507f5db9ee0a495bf2e6ff9c91a7834c1ba4fdd244a5e8aa4e537bd38aeae4b073aa6118bf611325565b6040516118cc9190613482565b60405180910390a1565b6118df81612025565b50565b60006002600083815260200190815260200160002060009054906101000a900473ffffffffffffffffffffffffffffffffffffffff169050919050565b611927612078565b6001600a60006101000a81548160ff0219169083151502179055507f62e78cea01bee320cd4e420270b5ea74000d11b0c9f74754ebdbfc544b05a25861196b611325565b6040516119789190613482565b60405180910390a1565b600061199183600001836120c2565b60001c905092915050565b8173ffffffffffffffffffffffffffffffffffffffff168373ffffffffffffffffffffffffffffffffffffffff1603611a0a576040517f08c379a0000000000000000000000000000000000000000000000000000000008152600401611a019061457f565b60405180910390fd5b80600560008573ffffffffffffffffffffffffffffffffffffffff1673ffffffffffffffffffffffffffffffffffffffff16815260200190815260200160002060008473ffffffffffffffffffffffffffffffffffffffff1673ffffffffffffffffffffffffffffffffffffffff16815260200190815260200160002060006101000a81548160ff0219169083151502179055508173ffffffffffffffffffffffffffffffffffffffff168373ffffffffffffffffffffffffffffffffffffffff167f17307eab39ab6107e8899845ad3d59bd9653f200f220920489ca2b5937696c3183604051611afb9190613311565b60405180910390a3505050565b611b13848484611512565b611b1f848484846120ed565b611b5e576040517f08c379a0000000000000000000000000000000000000000000000000000000008152600401611b5590614611565b60405180910390fd5b50505050565b606060006001611b7384612274565b01905060008167ffffffffffffffff811115611b9257611b9161365d565b5b6040519080825280601f01601f191660200182016040528015611bc45781602001600182028036833780820191505090505b509050600082602001820190505b600115611c27578080600190039150507f3031323334353637383961626364656600000000000000000000000000000000600a86061a8153600a8581611c1b57611c1a614631565b5b04945060008503611bd2575b819350505050919050565b6000611c40826000016123c7565b9050919050565b60007f7965db0b000000000000000000000000000000000000000000000000000000007bffffffffffffffffffffffffffffffffffffffffffffffffffffffff1916827bffffffffffffffffffffffffffffffffffffffffffffffffffffffff19161480611cba5750611cb9826123d8565b5b9050919050565b611ccb8282610e0d565b611d4257611cd881612452565b611ce68360001c602061247f565b604051602001611cf79291906146f8565b6040516020818303038152906040526040517f08c379a0000000000000000000000000000000000000000000000000000000008152600401611d3991906133bc565b60405180910390fd5b5050565b611d5083836126bb565b611d5d60008484846120ed565b611d9c576040517f08c379a0000000000000000000000000000000000000000000000000000000008152600401611d9390614611565b60405180910390fd5b505050565b611dad848484846128d8565b50505050565b50505050565b611dc38282610e0d565b611e96576001600b600084815260200190815260200160002060000160008373ffffffffffffffffffffffffffffffffffffffff1673ffffffffffffffffffffffffffffffffffffffff16815260200190815260200160002060006101000a81548160ff021916908315150217905550611e3b611325565b73ffffffffffffffffffffffffffffffffffffffff168173ffffffffffffffffffffffffffffffffffffffff16837f2f8788117e7eff1d82e926ec794901d17c78024a50270940304540a733656f0d60405160405180910390a45b5050565b6000611ec2836000018373ffffffffffffffffffffffffffffffffffffffff1660001b612932565b905092915050565b611ed48282610e0d565b15611fa8576000600b600084815260200190815260200160002060000160008373ffffffffffffffffffffffffffffffffffffffff1673ffffffffffffffffffffffffffffffffffffffff16815260200190815260200160002060006101000a81548160ff021916908315150217905550611f4d611325565b73ffffffffffffffffffffffffffffffffffffffff168173ffffffffffffffffffffffffffffffffffffffff16837ff6391f5c32d9c69d2a47ea670b442974b53935d1edc7fd64eb21e047a839171b60405160405180910390a45b5050565b6000611fd4836000018373ffffffffffffffffffffffffffffffffffffffff1660001b6129a2565b905092915050565b611fe4610c72565b612023576040517f08c379a000000000000000000000000000000000000000000000000000000000815260040161201a9061477e565b60405180910390fd5b565b61202e81612ab6565b6000600d6000838152602001908152602001600020805461204e90613a3d565b90501461207557600d600082815260200190815260200160002060006120749190613200565b5b50565b612080610c72565b156120c0576040517f08c379a00000000000000000000000000000000000000000000000000000000081526004016120b7906147ea565b60405180910390fd5b565b60008260000182815481106120da576120d9613e46565b5b9060005260206000200154905092915050565b600061210e8473ffffffffffffffffffffffffffffffffffffffff16612c04565b15612267578373ffffffffffffffffffffffffffffffffffffffff1663150b7a02612137611325565b8786866040518563ffffffff1660e01b8152600401612159949392919061485f565b6020604051808303816000875af192505050801561219557506040513d601f19601f8201168201806040525081019061219291906148c0565b60015b612217573d80600081146121c5576040519150601f19603f3d011682016040523d82523d6000602084013e6121ca565b606091505b50600081510361220f576040517f08c379a000000000000000000000000000000000000000000000000000000000815260040161220690614611565b60405180910390fd5b805181602001fd5b63150b7a0260e01b7bffffffffffffffffffffffffffffffffffffffffffffffffffffffff1916817bffffffffffffffffffffffffffffffffffffffffffffffffffffffff19161491505061226c565b600190505b949350505050565b600080600090507a184f03e93ff9f4daa797ed6e38ed64bf6a1f01000000000000000083106122d2577a184f03e93ff9f4daa797ed6e38ed64bf6a1f01000000000000000083816122c8576122c7614631565b5b0492506040810190505b6d04ee2d6d415b85acef8100000000831061230f576d04ee2d6d415b85acef8100000000838161230557612304614631565b5b0492506020810190505b662386f26fc10000831061233e57662386f26fc10000838161233457612333614631565b5b0492506010810190505b6305f5e1008310612367576305f5e100838161235d5761235c614631565b5b0492506008810190505b612710831061238c57612710838161238257612381614631565b5b0492506004810190505b606483106123af57606483816123a5576123a4614631565b5b0492506002810190505b600a83106123be576001810190505b80915050919050565b600081600001805490509050919050565b60007f780e9d63000000000000000000000000000000000000000000000000000000007bffffffffffffffffffffffffffffffffffffffffffffffffffffffff1916827bffffffffffffffffffffffffffffffffffffffffffffffffffffffff1916148061244b575061244a82612c27565b5b9050919050565b60606124788273ffffffffffffffffffffffffffffffffffffffff16601460ff1661247f565b9050919050565b60606000600283600261249291906148ed565b61249c919061436f565b67ffffffffffffffff8111156124b5576124b461365d565b5b6040519080825280601f01601f1916602001820160405280156124e75781602001600182028036833780820191505090505b5090507f30000000000000000000000000000000000000000000000000000000000000008160008151811061251f5761251e613e46565b5b60200101907effffffffffffffffffffffffffffffffffffffffffffffffffffffffffffff1916908160001a9053507f78000000000000000000000000000000000000000000000000000000000000008160018151811061258357612582613e46565b5b60200101907effffffffffffffffffffffffffffffffffffffffffffffffffffffffffffff1916908160001a905350600060018460026125c391906148ed565b6125cd919061436f565b90505b600181111561266d577f3031323334353637383961626364656600000000000000000000000000000000600f86166010811061260f5761260e613e46565b5b1a60f81b82828151811061262657612625613e46565b5b60200101907effffffffffffffffffffffffffffffffffffffffffffffffffffffffffffff1916908160001a905350600485901c9450806126669061492f565b90506125d0565b50600084146126b1576040517f08c379a00000000000000000000000000000000000000000000000000000000081526004016126a8906149a4565b60405180910390fd5b8091505092915050565b600073ffffffffffffffffffffffffffffffffffffffff168273ffffffffffffffffffffffffffffffffffffffff160361272a576040517f08c379a000000000000000000000000000000000000000000000000000000000815260040161272190614a10565b60405180910390fd5b612733816113fa565b15612773576040517f08c379a000000000000000000000000000000000000000000000000000000000815260040161276a90614a7c565b60405180910390fd5b612781600083836001611da1565b61278a816113fa565b156127ca576040517f08c379a00000000000000000000000000000000000000000000000000000000081526004016127c190614a7c565b60405180910390fd5b6001600360008473ffffffffffffffffffffffffffffffffffffffff1673ffffffffffffffffffffffffffffffffffffffff16815260200190815260200160002060008282540192505081905550816002600083815260200190815260200160002060006101000a81548173ffffffffffffffffffffffffffffffffffffffff021916908373ffffffffffffffffffffffffffffffffffffffff160217905550808273ffffffffffffffffffffffffffffffffffffffff16600073ffffffffffffffffffffffffffffffffffffffff167fddf252ad1be2c89b69c2b068fc378daa952ba7f163c4a11628f55a4df523b3ef60405160405180910390a46128d4600083836001611db3565b5050565b6128e484848484612d09565b6128ec610c72565b1561292c576040517f08c379a000000000000000000000000000000000000000000000000000000000815260040161292390614b0e565b60405180910390fd5b50505050565b600061293e8383612e67565b61299757826000018290806001815401808255809150506001900390600052602060002001600090919091909150558260000180549050836001016000848152602001908152602001600020819055506001905061299c565b600090505b92915050565b60008083600101600084815260200190815260200160002054905060008114612aaa5760006001826129d49190614b2e565b90506000600186600001805490506129ec9190614b2e565b9050818114612a5b576000866000018281548110612a0d57612a0c613e46565b5b9060005260206000200154905080876000018481548110612a3157612a30613e46565b5b90600052602060002001819055508387600101600083815260200190815260200160002081905550505b85600001805480612a6f57612a6e614b62565b5b600190038181906000526020600020016000905590558560010160008681526020019081526020016000206000905560019350505050612ab0565b60009150505b92915050565b6000612ac182610c89565b9050612ad1816000846001611da1565b612ada82610c89565b90506004600083815260200190815260200160002060006101000a81549073ffffffffffffffffffffffffffffffffffffffff02191690556001600360008373ffffffffffffffffffffffffffffffffffffffff1673ffffffffffffffffffffffffffffffffffffffff168152602001908152602001600020600082825403925050819055506002600083815260200190815260200160002060006101000a81549073ffffffffffffffffffffffffffffffffffffffff021916905581600073ffffffffffffffffffffffffffffffffffffffff168273ffffffffffffffffffffffffffffffffffffffff167fddf252ad1be2c89b69c2b068fc378daa952ba7f163c4a11628f55a4df523b3ef60405160405180910390a4612c00816000846001611db3565b5050565b6000808273ffffffffffffffffffffffffffffffffffffffff163b119050919050565b60007f80ac58cd000000000000000000000000000000000000000000000000000000007bffffffffffffffffffffffffffffffffffffffffffffffffffffffff1916827bffffffffffffffffffffffffffffffffffffffffffffffffffffffff19161480612cf257507f5b5e139f000000000000000000000000000000000000000000000000000000007bffffffffffffffffffffffffffffffffffffffffffffffffffffffff1916827bffffffffffffffffffffffffffffffffffffffffffffffffffffffff1916145b80612d025750612d0182612e8a565b5b9050919050565b612d1584848484612ef4565b6001811115612d59576040517f08c379a0000000000000000000000000000000000000000000000000000000008152600401612d5090614c03565b60405180910390fd5b6000829050600073ffffffffffffffffffffffffffffffffffffffff168573ffffffffffffffffffffffffffffffffffffffff1603612da057612d9b81612efa565b612ddf565b8373ffffffffffffffffffffffffffffffffffffffff168573ffffffffffffffffffffffffffffffffffffffff1614612dde57612ddd8582612f43565b5b5b600073ffffffffffffffffffffffffffffffffffffffff168473ffffffffffffffffffffffffffffffffffffffff1603612e2157612e1c816130b0565b612e60565b8473ffffffffffffffffffffffffffffffffffffffff168473ffffffffffffffffffffffffffffffffffffffff1614612e5f57612e5e8482613181565b5b5b5050505050565b600080836001016000848152602001908152602001600020541415905092915050565b60007f01ffc9a7000000000000000000000000000000000000000000000000000000007bffffffffffffffffffffffffffffffffffffffffffffffffffffffff1916827bffffffffffffffffffffffffffffffffffffffffffffffffffffffff1916149050919050565b50505050565b6008805490506009600083815260200190815260200160002081905550600881908060018154018082558091505060019003906000526020600020016000909190919091505550565b60006001612f5084610d0f565b612f5a9190614b2e565b905060006007600084815260200190815260200160002054905081811461303f576000600660008673ffffffffffffffffffffffffffffffffffffffff1673ffffffffffffffffffffffffffffffffffffffff168152602001908152602001600020600084815260200190815260200160002054905080600660008773ffffffffffffffffffffffffffffffffffffffff1673ffffffffffffffffffffffffffffffffffffffff168152602001908152602001600020600084815260200190815260200160002081905550816007600083815260200190815260200160002081905550505b6007600084815260200190815260200160002060009055600660008573ffffffffffffffffffffffffffffffffffffffff1673ffffffffffffffffffffffffffffffffffffffff16815260200190815260200160002060008381526020019081526020016000206000905550505050565b600060016008805490506130c49190614b2e565b90506000600960008481526020019081526020016000205490506000600883815481106130f4576130f3613e46565b5b90600052602060002001549050806008838154811061311657613115613e46565b5b90600052602060002001819055508160096000838152602001908152602001600020819055506009600085815260200190815260200160002060009055600880548061316557613164614b62565b5b6001900381819060005260206000200160009055905550505050565b600061318c83610d0f565b905081600660008573ffffffffffffffffffffffffffffffffffffffff1673ffffffffffffffffffffffffffffffffffffffff168152602001908152602001600020600083815260200190815260200160002081905550806007600084815260200190815260200160002081905550505050565b50805461320c90613a3d565b6000825580601f1061321e575061323d565b601f01602090049060005260206000209081019061323c9190613240565b5b50565b5b80821115613259576000816000905550600101613241565b5090565b6000604051905090565b600080fd5b600080fd5b60007fffffffff0000000000000000000000000000000000000000000000000000000082169050919050565b6132a681613271565b81146132b157600080fd5b50565b6000813590506132c38161329d565b92915050565b6000602082840312156132df576132de613267565b5b60006132ed848285016132b4565b91505092915050565b60008115159050919050565b61330b816132f6565b82525050565b60006020820190506133266000830184613302565b92915050565b600081519050919050565b600082825260208201905092915050565b60005b8381101561336657808201518184015260208101905061334b565b60008484015250505050565b6000601f19601f8301169050919050565b600061338e8261332c565b6133988185613337565b93506133a8818560208601613348565b6133b181613372565b840191505092915050565b600060208201905081810360008301526133d68184613383565b905092915050565b6000819050919050565b6133f1816133de565b81146133fc57600080fd5b50565b60008135905061340e816133e8565b92915050565b60006020828403121561342a57613429613267565b5b6000613438848285016133ff565b91505092915050565b600073ffffffffffffffffffffffffffffffffffffffff82169050919050565b600061346c82613441565b9050919050565b61347c81613461565b82525050565b60006020820190506134976000830184613473565b92915050565b6134a681613461565b81146134b157600080fd5b50565b6000813590506134c38161349d565b92915050565b600080604083850312156134e0576134df613267565b5b60006134ee858286016134b4565b92505060206134ff858286016133ff565b9150509250929050565b613512816133de565b82525050565b600060208201905061352d6000830184613509565b92915050565b60008060006060848603121561354c5761354b613267565b5b600061355a868287016134b4565b935050602061356b868287016134b4565b925050604061357c868287016133ff565b9150509250925092565b6000819050919050565b61359981613586565b81146135a457600080fd5b50565b6000813590506135b681613590565b92915050565b6000602082840312156135d2576135d1613267565b5b60006135e0848285016135a7565b91505092915050565b6135f281613586565b82525050565b600060208201905061360d60008301846135e9565b92915050565b6000806040838503121561362a57613629613267565b5b6000613638858286016135a7565b9250506020613649858286016134b4565b9150509250929050565b600080fd5b600080fd5b7f4e487b7100000000000000000000000000000000000000000000000000000000600052604160045260246000fd5b61369582613372565b810181811067ffffffffffffffff821117156136b4576136b361365d565b5b80604052505050565b60006136c761325d565b90506136d3828261368c565b919050565b600067ffffffffffffffff8211156136f3576136f261365d565b5b6136fc82613372565b9050602081019050919050565b82818337600083830152505050565b600061372b613726846136d8565b6136bd565b90508281526020810184848401111561374757613746613658565b5b613752848285613709565b509392505050565b600082601f83011261376f5761376e613653565b5b813561377f848260208601613718565b91505092915050565b60006020828403121561379e5761379d613267565b5b600082013567ffffffffffffffff8111156137bc576137bb61326c565b5b6137c88482850161375a565b91505092915050565b6000602082840312156137e7576137e6613267565b5b60006137f5848285016134b4565b91505092915050565b6000806040838503121561381557613814613267565b5b6000613823858286016135a7565b9250506020613834858286016133ff565b9150509250929050565b613847816132f6565b811461385257600080fd5b50565b6000813590506138648161383e565b92915050565b6000806040838503121561388157613880613267565b5b600061388f858286016134b4565b92505060206138a085828601613855565b9150509250929050565b600067ffffffffffffffff8211156138c5576138c461365d565b5b6138ce82613372565b9050602081019050919050565b60006138ee6138e9846138aa565b6136bd565b90508281526020810184848401111561390a57613909613658565b5b613915848285613709565b509392505050565b600082601f83011261393257613931613653565b5b81356139428482602086016138db565b91505092915050565b6000806000806080858703121561396557613964613267565b5b6000613973878288016134b4565b9450506020613984878288016134b4565b9350506040613995878288016133ff565b925050606085013567ffffffffffffffff8111156139b6576139b561326c565b5b6139c28782880161391d565b91505092959194509250565b600080604083850312156139e5576139e4613267565b5b60006139f3858286016134b4565b9250506020613a04858286016134b4565b9150509250929050565b7f4e487b7100000000000000000000000000000000000000000000000000000000600052602260045260246000fd5b60006002820490506001821680613a5557607f821691505b602082108103613a6857613a67613a0e565b5b50919050565b7f4552433732313a20617070726f76616c20746f2063757272656e74206f776e6560008201527f7200000000000000000000000000000000000000000000000000000000000000602082015250565b6000613aca602183613337565b9150613ad582613a6e565b604082019050919050565b60006020820190508181036000830152613af981613abd565b9050919050565b7f4552433732313a20617070726f76652063616c6c6572206973206e6f7420746f60008201527f6b656e206f776e6572206f7220617070726f76656420666f7220616c6c000000602082015250565b6000613b5c603d83613337565b9150613b6782613b00565b604082019050919050565b60006020820190508181036000830152613b8b81613b4f565b9050919050565b7f546f6b656e20494420616c726561647920657869737473000000000000000000600082015250565b6000613bc8601783613337565b9150613bd382613b92565b602082019050919050565b60006020820190508181036000830152613bf781613bbb565b9050919050565b7f4552433732313a2063616c6c6572206973206e6f7420746f6b656e206f776e6560008201527f72206f7220617070726f76656400000000000000000000000000000000000000602082015250565b6000613c5a602d83613337565b9150613c6582613bfe565b604082019050919050565b60006020820190508181036000830152613c8981613c4d565b9050919050565b7f455243373231456e756d657261626c653a206f776e657220696e646578206f7560008201527f74206f6620626f756e6473000000000000000000000000000000000000000000602082015250565b6000613cec602b83613337565b9150613cf782613c90565b604082019050919050565b60006020820190508181036000830152613d1b81613cdf565b9050919050565b7f416363657373436f6e74726f6c3a2063616e206f6e6c792072656e6f756e636560008201527f20726f6c657320666f722073656c660000000000000000000000000000000000602082015250565b6000613d7e602f83613337565b9150613d8982613d22565b604082019050919050565b60006020820190508181036000830152613dad81613d71565b9050919050565b7f455243373231456e756d657261626c653a20676c6f62616c20696e646578206f60008201527f7574206f6620626f756e64730000000000000000000000000000000000000000602082015250565b6000613e10602c83613337565b9150613e1b82613db4565b604082019050919050565b60006020820190508181036000830152613e3f81613e03565b9050919050565b7f4e487b7100000000000000000000000000000000000000000000000000000000600052603260045260246000fd5b60008190508160005260206000209050919050565b60006020601f8301049050919050565b600082821b905092915050565b600060088302613ed77fffffffffffffffffffffffffffffffffffffffffffffffffffffffffffffffff82613e9a565b613ee18683613e9a565b95508019841693508086168417925050509392505050565b6000819050919050565b6000613f1e613f19613f14846133de565b613ef9565b6133de565b9050919050565b6000819050919050565b613f3883613f03565b613f4c613f4482613f25565b848454613ea7565b825550505050565b600090565b613f61613f54565b613f6c818484613f2f565b505050565b5b81811015613f9057613f85600082613f59565b600181019050613f72565b5050565b601f821115613fd557613fa681613e75565b613faf84613e8a565b81016020851015613fbe578190505b613fd2613fca85613e8a565b830182613f71565b50505b505050565b600082821c905092915050565b6000613ff860001984600802613fda565b1980831691505092915050565b60006140118383613fe7565b9150826002028217905092915050565b61402a8261332c565b67ffffffffffffffff8111156140435761404261365d565b5b61404d8254613a3d565b614058828285613f94565b600060209050601f83116001811461408b5760008415614079578287015190505b6140838582614005565b8655506140eb565b601f19841661409986613e75565b60005b828110156140c15784890151825560018201915060208501945060208101905061409c565b868310156140de57848901516140da601f891682613fe7565b8355505b6001600288020188555050505b505050505050565b7f4552433732313a20696e76616c696420746f6b656e2049440000000000000000600082015250565b6000614129601883613337565b9150614134826140f3565b602082019050919050565b600060208201905081810360008301526141588161411c565b9050919050565b7f4552433732313a2061646472657373207a65726f206973206e6f74206120766160008201527f6c6964206f776e65720000000000000000000000000000000000000000000000602082015250565b60006141bb602983613337565b91506141c68261415f565b604082019050919050565b600060208201905081810360008301526141ea816141ae565b9050919050565b7f546f6b656e20646f6573206e6f74206578697374000000000000000000000000600082015250565b6000614227601483613337565b9150614232826141f1565b602082019050919050565b600060208201905081810360008301526142568161421a565b9050919050565b600081905092915050565b6000815461427581613a3d565b61427f818661425d565b9450600182166000811461429a57600181146142af576142e2565b60ff19831686528115158202860193506142e2565b6142b885613e75565b60005b838110156142da578154818901526001820191506020810190506142bb565b838801955050505b50505092915050565b60006142f68261332c565b614300818561425d565b9350614310818560208601613348565b80840191505092915050565b60006143288285614268565b915061433482846142eb565b91508190509392505050565b7f4e487b7100000000000000000000000000000000000000000000000000000000600052601160045260246000fd5b600061437a826133de565b9150614385836133de565b925082820190508082111561439d5761439c614340565b5b92915050565b7f4e6577206f776e65722063616e6e6f74206265207a65726f2061646472657373600082015250565b60006143d9602083613337565b91506143e4826143a3565b602082019050919050565b60006020820190508181036000830152614408816143cc565b9050919050565b7f4552433732313a207472616e736665722066726f6d20696e636f72726563742060008201527f6f776e6572000000000000000000000000000000000000000000000000000000602082015250565b600061446b602583613337565b91506144768261440f565b604082019050919050565b6000602082019050818103600083015261449a8161445e565b9050919050565b7f4552433732313a207472616e7366657220746f20746865207a65726f2061646460008201527f7265737300000000000000000000000000000000000000000000000000000000602082015250565b60006144fd602483613337565b9150614508826144a1565b604082019050919050565b6000602082019050818103600083015261452c816144f0565b9050919050565b7f4552433732313a20617070726f766520746f2063616c6c657200000000000000600082015250565b6000614569601983613337565b915061457482614533565b602082019050919050565b600060208201905081810360008301526145988161455c565b9050919050565b7f4552433732313a207472616e7366657220746f206e6f6e20455243373231526560008201527f63656976657220696d706c656d656e7465720000000000000000000000000000602082015250565b60006145fb603283613337565b91506146068261459f565b604082019050919050565b6000602082019050818103600083015261462a816145ee565b9050919050565b7f4e487b7100000000000000000000000000000000000000000000000000000000600052601260045260246000fd5b7f416363657373436f6e74726f6c3a206163636f756e7420000000000000000000600082015250565b600061469660178361425d565b91506146a182614660565b601782019050919050565b7f206973206d697373696e6720726f6c6520000000000000000000000000000000600082015250565b60006146e260118361425d565b91506146ed826146ac565b601182019050919050565b600061470382614689565b915061470f82856142eb565b915061471a826146d5565b915061472682846142eb565b91508190509392505050565b7f5061757361626c653a206e6f7420706175736564000000000000000000000000600082015250565b6000614768601483613337565b915061477382614732565b602082019050919050565b600060208201905081810360008301526147978161475b565b9050919050565b7f5061757361626c653a2070617573656400000000000000000000000000000000600082015250565b60006147d4601083613337565b91506147df8261479e565b602082019050919050565b60006020820190508181036000830152614803816147c7565b9050919050565b600081519050919050565b600082825260208201905092915050565b60006148318261480a565b61483b8185614815565b935061484b818560208601613348565b61485481613372565b840191505092915050565b60006080820190506148746000830187613473565b6148816020830186613473565b61488e6040830185613509565b81810360608301526148a08184614826565b905095945050505050565b6000815190506148ba8161329d565b92915050565b6000602082840312156148d6576148d5613267565b5b60006148e4848285016148ab565b91505092915050565b60006148f8826133de565b9150614903836133de565b9250828202614911816133de565b9150828204841483151761492857614927614340565b5b5092915050565b600061493a826133de565b91506000820361494d5761494c614340565b5b600182039050919050565b7f537472696e67733a20686578206c656e67746820696e73756666696369656e74600082015250565b600061498e602083613337565b915061499982614958565b602082019050919050565b600060208201905081810360008301526149bd81614981565b9050919050565b7f4552433732313a206d696e7420746f20746865207a65726f2061646472657373600082015250565b60006149fa602083613337565b9150614a05826149c4565b602082019050919050565b60006020820190508181036000830152614a29816149ed565b9050919050565b7f4552433732313a20746f6b656e20616c7265616479206d696e74656400000000600082015250565b6000614a66601c83613337565b9150614a7182614a30565b602082019050919050565b60006020820190508181036000830152614a9581614a59565b9050919050565b7f4552433732315061757361626c653a20746f6b656e207472616e73666572207760008201527f68696c6520706175736564000000000000000000000000000000000000000000602082015250565b6000614af8602b83613337565b9150614b0382614a9c565b604082019050919050565b60006020820190508181036000830152614b2781614aeb565b9050919050565b6000614b39826133de565b9150614b44836133de565b9250828203905081811115614b5c57614b5b614340565b5b92915050565b7f4e487b7100000000000000000000000000000000000000000000000000000000600052603160045260246000fd5b7f455243373231456e756d657261626c653a20636f6e736563757469766520747260008201527f616e7366657273206e6f7420737570706f727465640000000000000000000000602082015250565b6000614bed603583613337565b9150614bf882614b91565b604082019050919050565b60006020820190508181036000830152614c1c81614be0565b905091905056fea2646970667358221220fd53b28a1dd6b41341f9dc81fcbf49b6a03ba2c7b25990b7129bccc7181fc40964736f6c63430008130033",
  "immutableReferences": {},
  "source": "// SPDX-License-Identifier: MIT\r\n\r\npragma solidity ^0.8.0;\r\n\r\nimport \"@openzeppelin/contracts/token/ERC721/extensions/ERC721Enumerable.sol\";\r\nimport \"@openzeppelin/contracts/token/ERC721/extensions/ERC721Burnable.sol\";\r\nimport \"@openzeppelin/contracts/token/ERC721/extensions/ERC721Pausable.sol\";\r\nimport \"@openzeppelin/contracts/token/ERC721/extensions/ERC721URIStorage.sol\";\r\nimport \"@openzeppelin/contracts/access/AccessControlEnumerable.sol\";\r\nimport \"@openzeppelin/contracts/utils/Counters.sol\";\r\nimport \"@openzeppelin/contracts/utils/Strings.sol\";\r\nimport \"./IERC721NFTBase.sol\";\r\n\r\n\r\ncontract ERC721NFTBase is\r\n    ERC721Enumerable,\r\n    ERC721Burnable,\r\n    ERC721Pausable,\r\n    AccessControlEnumerable,\r\n    ERC721URIStorage,\r\n    IERC721NFTBase\r\n{\r\n    using Counters for Counters.Counter;\r\n    using Strings for uint256;\r\n    Counters.Counter private _tokenIdTracker;\r\n\r\n    bytes32 public constant MINTER_ROLE = keccak256(\"MINTER_ROLE\");\r\n    bytes32 public constant OWNER_ROLE = keccak256(\"OWNER_ROLE\");\r\n    string private baseURI;\r\n\r\n    constructor(\r\n        string memory name,\r\n        string memory symbol,\r\n        string memory newbaseURI\r\n    ) ERC721(name, symbol) {\r\n        _setupRole(DEFAULT_ADMIN_ROLE, msg.sender);\r\n        _setupRole(MINTER_ROLE, msg.sender);\r\n        _setupRole(OWNER_ROLE, msg.sender);\r\n        baseURI = newbaseURI;\r\n    }\r\n\r\n    function safeMintWithTokenId(\r\n        address to,\r\n        uint256 tokenId\r\n    ) external onlyRole(MINTER_ROLE) returns (uint256) {\r\n        require(!_exists(tokenId), \"Token ID already exists\");\r\n        _safeMint(to, tokenId);\r\n        if (tokenId > _tokenIdTracker.current()) {\r\n            _tokenIdTracker.increment();\r\n        }\r\n        return tokenId;\r\n    }\r\n\r\n    function _baseURI()\r\n        internal\r\n        view\r\n        virtual\r\n        override(ERC721)\r\n        returns (string memory)\r\n    {\r\n        return baseURI;\r\n    }\r\n\r\n    function setBaseURI(\r\n        string memory newbaseURI\r\n    ) external onlyRole(OWNER_ROLE) {\r\n        baseURI = newbaseURI;\r\n    }\r\n\r\n    function transferOwnership(address newOwner) public onlyRole(OWNER_ROLE) {\r\n        require(newOwner != address(0), \"New owner cannot be zero address\");\r\n        revokeRole(OWNER_ROLE, msg.sender);\r\n        grantRole(OWNER_ROLE, newOwner);\r\n    }\r\n\r\n    function getNextTokenId() external view returns (uint256) {\r\n        return _tokenIdTracker.current() + 1;\r\n    }\r\n\r\n    function _beforeTokenTransfer(\r\n        address from,\r\n        address to,\r\n        uint256 firstTokenId,\r\n        uint256 batchSize\r\n    ) internal override(ERC721, ERC721Enumerable, ERC721Pausable) {\r\n        super._beforeTokenTransfer(from, to, firstTokenId, batchSize);\r\n    }\r\n\r\n    function _burn(\r\n        uint256 tokenId\r\n    ) internal override(ERC721, ERC721URIStorage) {\r\n        super._burn(tokenId);\r\n    }\r\n\r\n    function tokenURI(\r\n        uint256 tokenId\r\n    )\r\n        public\r\n        view\r\n        virtual\r\n        override(ERC721, ERC721URIStorage)\r\n        returns (string memory)\r\n    {\r\n        require(_exists(tokenId), \"Token does not exist\");\r\n        return\r\n            bytes(baseURI).length > 0\r\n                ? string(abi.encodePacked(baseURI, tokenId.toString()))\r\n                : \"\";\r\n    }\r\n\r\n    function pause() public virtual onlyRole(DEFAULT_ADMIN_ROLE) {\r\n        _pause();\r\n    }\r\n\r\n    function unpause() public virtual onlyRole(DEFAULT_ADMIN_ROLE) {\r\n        _unpause();\r\n    }\r\n\r\n    function supportsInterface(\r\n        bytes4 interfaceId\r\n    )\r\n        public\r\n        view\r\n        virtual\r\n        override(AccessControlEnumerable, ERC721, ERC721Enumerable)\r\n        returns (bool)\r\n    {\r\n        return super.supportsInterface(interfaceId);\r\n    }\r\n}\r\n",
  "sourcePath": "C:\\git\\web3.0-general\\SmartContractRepo\\contracts\\ERC721NFTBase.sol",
  "compiler": {
    "name": "solc",
    "version": "0.8.19+commit.7dd6d404.Emscripten.clang"
  },
  "schemaVersion": "3.4.13",
  "updatedAt": "2023-03-28T07:39:30.821Z",
  "devdoc": {
    "events": {
      "Approval(address,address,uint256)": {
        "details": "Emitted when `owner` enables `approved` to manage the `tokenId` token."
      },
      "ApprovalForAll(address,address,bool)": {
        "details": "Emitted when `owner` enables or disables (`approved`) `operator` to manage all of its assets."
      },
      "Paused(address)": {
        "details": "Emitted when the pause is triggered by `account`."
      },
      "RoleAdminChanged(bytes32,bytes32,bytes32)": {
        "details": "Emitted when `newAdminRole` is set as ``role``'s admin role, replacing `previousAdminRole` `DEFAULT_ADMIN_ROLE` is the starting admin for all roles, despite {RoleAdminChanged} not being emitted signaling this. _Available since v3.1._"
      },
      "RoleGranted(bytes32,address,address)": {
        "details": "Emitted when `account` is granted `role`. `sender` is the account that originated the contract call, an admin role bearer except when using {AccessControl-_setupRole}."
      },
      "RoleRevoked(bytes32,address,address)": {
        "details": "Emitted when `account` is revoked `role`. `sender` is the account that originated the contract call:   - if using `revokeRole`, it is the admin role bearer   - if using `renounceRole`, it is the role bearer (i.e. `account`)"
      },
      "Transfer(address,address,uint256)": {
        "details": "Emitted when `tokenId` token is transferred from `from` to `to`."
      },
      "Unpaused(address)": {
        "details": "Emitted when the pause is lifted by `account`."
      }
    },
    "kind": "dev",
    "methods": {
      "approve(address,uint256)": {
        "details": "See {IERC721-approve}."
      },
      "balanceOf(address)": {
        "details": "See {IERC721-balanceOf}."
      },
      "burn(uint256)": {
        "details": "Burns `tokenId`. See {ERC721-_burn}. Requirements: - The caller must own `tokenId` or be an approved operator."
      },
      "getApproved(uint256)": {
        "details": "See {IERC721-getApproved}."
      },
      "getRoleAdmin(bytes32)": {
        "details": "Returns the admin role that controls `role`. See {grantRole} and {revokeRole}. To change a role's admin, use {_setRoleAdmin}."
      },
      "getRoleMember(bytes32,uint256)": {
        "details": "Returns one of the accounts that have `role`. `index` must be a value between 0 and {getRoleMemberCount}, non-inclusive. Role bearers are not sorted in any particular way, and their ordering may change at any point. WARNING: When using {getRoleMember} and {getRoleMemberCount}, make sure you perform all queries on the same block. See the following https://forum.openzeppelin.com/t/iterating-over-elements-on-enumerableset-in-openzeppelin-contracts/2296[forum post] for more information."
      },
      "getRoleMemberCount(bytes32)": {
        "details": "Returns the number of accounts that have `role`. Can be used together with {getRoleMember} to enumerate all bearers of a role."
      },
      "grantRole(bytes32,address)": {
        "details": "Grants `role` to `account`. If `account` had not been already granted `role`, emits a {RoleGranted} event. Requirements: - the caller must have ``role``'s admin role. May emit a {RoleGranted} event."
      },
      "hasRole(bytes32,address)": {
        "details": "Returns `true` if `account` has been granted `role`."
      },
      "isApprovedForAll(address,address)": {
        "details": "See {IERC721-isApprovedForAll}."
      },
      "name()": {
        "details": "See {IERC721Metadata-name}."
      },
      "ownerOf(uint256)": {
        "details": "See {IERC721-ownerOf}."
      },
      "paused()": {
        "details": "Returns true if the contract is paused, and false otherwise."
      },
      "renounceRole(bytes32,address)": {
        "details": "Revokes `role` from the calling account. Roles are often managed via {grantRole} and {revokeRole}: this function's purpose is to provide a mechanism for accounts to lose their privileges if they are compromised (such as when a trusted device is misplaced). If the calling account had been revoked `role`, emits a {RoleRevoked} event. Requirements: - the caller must be `account`. May emit a {RoleRevoked} event."
      },
      "revokeRole(bytes32,address)": {
        "details": "Revokes `role` from `account`. If `account` had been granted `role`, emits a {RoleRevoked} event. Requirements: - the caller must have ``role``'s admin role. May emit a {RoleRevoked} event."
      },
      "safeTransferFrom(address,address,uint256)": {
        "details": "See {IERC721-safeTransferFrom}."
      },
      "safeTransferFrom(address,address,uint256,bytes)": {
        "details": "See {IERC721-safeTransferFrom}."
      },
      "setApprovalForAll(address,bool)": {
        "details": "See {IERC721-setApprovalForAll}."
      },
      "symbol()": {
        "details": "See {IERC721Metadata-symbol}."
      },
      "tokenByIndex(uint256)": {
        "details": "See {IERC721Enumerable-tokenByIndex}."
      },
      "tokenOfOwnerByIndex(address,uint256)": {
        "details": "See {IERC721Enumerable-tokenOfOwnerByIndex}."
      },
      "totalSupply()": {
        "details": "See {IERC721Enumerable-totalSupply}."
      },
      "transferFrom(address,address,uint256)": {
        "details": "See {IERC721-transferFrom}."
      }
    },
    "version": 1
  },
  "userdoc": {
    "kind": "user",
    "methods": {},
    "version": 1
  }
}