{
  "contractName": "FusionManager",
  "abi": [
    {
      "anonymous": false,
      "inputs": [
        {
          "indexed": false,
          "internalType": "address",
          "name": "operator",
          "type": "address"
        },
        {
          "indexed": false,
          "internalType": "address",
          "name": "from",
          "type": "address"
        },
        {
          "indexed": false,
          "internalType": "uint256",
          "name": "tokenId",
          "type": "uint256"
        },
        {
          "indexed": false,
          "internalType": "bytes",
          "name": "data",
          "type": "bytes"
        },
        {
          "indexed": false,
          "internalType": "uint256",
          "name": "gas",
          "type": "uint256"
        }
      ],
      "name": "ERC721Received",
      "type": "event"
    },
    {
      "anonymous": false,
      "inputs": [
        {
          "indexed": true,
          "internalType": "address",
          "name": "nftContract1",
          "type": "address"
        },
        {
          "indexed": true,
          "internalType": "address",
          "name": "nftContract2",
          "type": "address"
        },
        {
          "indexed": false,
          "internalType": "address",
          "name": "nftContractResult",
          "type": "address"
        }
      ],
      "name": "FusionConfigSet",
      "type": "event"
    },
    {
      "anonymous": false,
      "inputs": [
        {
          "indexed": true,
          "internalType": "address",
          "name": "nftContract",
          "type": "address"
        },
        {
          "indexed": false,
          "internalType": "bool",
          "name": "eligible",
          "type": "bool"
        }
      ],
      "name": "FusionEligibilitySet",
      "type": "event"
    },
    {
      "anonymous": false,
      "inputs": [
        {
          "indexed": true,
          "internalType": "uint256",
          "name": "tokenId1",
          "type": "uint256"
        },
        {
          "indexed": true,
          "internalType": "uint256",
          "name": "tokenId2",
          "type": "uint256"
        },
        {
          "indexed": false,
          "internalType": "uint256",
          "name": "tokenIdResult",
          "type": "uint256"
        }
      ],
      "name": "FusionPerformed",
      "type": "event"
    },
    {
      "anonymous": false,
      "inputs": [
        {
          "indexed": false,
          "internalType": "address",
          "name": "operator",
          "type": "address"
        },
        {
          "indexed": false,
          "internalType": "address",
          "name": "from",
          "type": "address"
        },
        {
          "indexed": false,
          "internalType": "uint256",
          "name": "tokenId",
          "type": "uint256"
        },
        {
          "indexed": false,
          "internalType": "bytes",
          "name": "data",
          "type": "bytes"
        },
        {
          "indexed": false,
          "internalType": "uint256",
          "name": "gas",
          "type": "uint256"
        }
      ],
      "name": "KIP17Received",
      "type": "event"
    },
    {
      "anonymous": false,
      "inputs": [
        {
          "indexed": true,
          "internalType": "address",
          "name": "previousOwner",
          "type": "address"
        },
        {
          "indexed": true,
          "internalType": "address",
          "name": "newOwner",
          "type": "address"
        }
      ],
      "name": "OwnershipTransferred",
      "type": "event"
    },
    {
      "inputs": [
        {
          "internalType": "bytes32",
          "name": "",
          "type": "bytes32"
        }
      ],
      "name": "eligibleFusions",
      "outputs": [
        {
          "internalType": "bool",
          "name": "",
          "type": "bool"
        }
      ],
      "stateMutability": "view",
      "type": "function"
    },
    {
      "inputs": [
        {
          "internalType": "address",
          "name": "",
          "type": "address"
        }
      ],
      "name": "eligibleNftContracts",
      "outputs": [
        {
          "internalType": "bool",
          "name": "",
          "type": "bool"
        }
      ],
      "stateMutability": "view",
      "type": "function"
    },
    {
      "inputs": [
        {
          "internalType": "bytes32",
          "name": "",
          "type": "bytes32"
        }
      ],
      "name": "fusionResultContracts",
      "outputs": [
        {
          "internalType": "address",
          "name": "",
          "type": "address"
        }
      ],
      "stateMutability": "view",
      "type": "function"
    },
    {
      "inputs": [],
      "name": "owner",
      "outputs": [
        {
          "internalType": "address",
          "name": "",
          "type": "address"
        }
      ],
      "stateMutability": "view",
      "type": "function"
    },
    {
      "inputs": [],
      "name": "renounceOwnership",
      "outputs": [],
      "stateMutability": "nonpayable",
      "type": "function"
    },
    {
      "inputs": [
        {
          "internalType": "bytes32",
          "name": "",
          "type": "bytes32"
        }
      ],
      "name": "usedFusions",
      "outputs": [
        {
          "internalType": "bool",
          "name": "",
          "type": "bool"
        }
      ],
      "stateMutability": "view",
      "type": "function"
    },
    {
      "inputs": [
        {
          "internalType": "address",
          "name": "nftContract",
          "type": "address"
        },
        {
          "internalType": "bool",
          "name": "eligible",
          "type": "bool"
        }
      ],
      "name": "setEligibleNftContract",
      "outputs": [],
      "stateMutability": "nonpayable",
      "type": "function"
    },
    {
      "inputs": [
        {
          "internalType": "address",
          "name": "nftContract1",
          "type": "address"
        },
        {
          "internalType": "address",
          "name": "nftContract2",
          "type": "address"
        },
        {
          "internalType": "address",
          "name": "nftContractResult",
          "type": "address"
        }
      ],
      "name": "setFusionConfig",
      "outputs": [],
      "stateMutability": "nonpayable",
      "type": "function"
    },
    {
      "inputs": [
        {
          "internalType": "address",
          "name": "nftContract1",
          "type": "address"
        },
        {
          "internalType": "uint256",
          "name": "tokenId1",
          "type": "uint256"
        },
        {
          "internalType": "address",
          "name": "nftContract2",
          "type": "address"
        },
        {
          "internalType": "uint256",
          "name": "tokenId2",
          "type": "uint256"
        }
      ],
      "name": "performFusion",
      "outputs": [],
      "stateMutability": "nonpayable",
      "type": "function"
    },
    {
      "inputs": [
        {
          "internalType": "address",
          "name": "nftContract1",
          "type": "address"
        },
        {
          "internalType": "address",
          "name": "nftContract2",
          "type": "address"
        }
      ],
      "name": "getFusionConfig",
      "outputs": [
        {
          "components": [
            {
              "internalType": "address",
              "name": "nftContract1",
              "type": "address"
            },
            {
              "internalType": "address",
              "name": "nftContract2",
              "type": "address"
            },
            {
              "internalType": "address",
              "name": "nftContractResult",
              "type": "address"
            }
          ],
          "internalType": "struct FusionManager.FusionConfig",
          "name": "",
          "type": "tuple"
        }
      ],
      "stateMutability": "view",
      "type": "function"
    },
    {
      "inputs": [
        {
          "internalType": "address",
          "name": "nftContract1",
          "type": "address"
        },
        {
          "internalType": "address",
          "name": "nftContract2",
          "type": "address"
        }
      ],
      "name": "getFusionHash",
      "outputs": [
        {
          "internalType": "bytes32",
          "name": "",
          "type": "bytes32"
        }
      ],
      "stateMutability": "pure",
      "type": "function"
    },
    {
      "inputs": [
        {
          "internalType": "address",
          "name": "nftContract1",
          "type": "address"
        },
        {
          "internalType": "uint256",
          "name": "tokenId1",
          "type": "uint256"
        },
        {
          "internalType": "address",
          "name": "nftContract2",
          "type": "address"
        },
        {
          "internalType": "uint256",
          "name": "tokenId2",
          "type": "uint256"
        }
      ],
      "name": "getFusionPerformHash",
      "outputs": [
        {
          "internalType": "bytes32",
          "name": "",
          "type": "bytes32"
        }
      ],
      "stateMutability": "pure",
      "type": "function"
    },
    {
      "inputs": [
        {
          "internalType": "address",
          "name": "newOwner",
          "type": "address"
        }
      ],
      "name": "transferOwnership",
      "outputs": [],
      "stateMutability": "nonpayable",
      "type": "function"
    },
    {
      "inputs": [
        {
          "internalType": "address",
          "name": "operator",
          "type": "address"
        },
        {
          "internalType": "address",
          "name": "from",
          "type": "address"
        },
        {
          "internalType": "uint256",
          "name": "tokenId",
          "type": "uint256"
        },
        {
          "internalType": "bytes",
          "name": "data",
          "type": "bytes"
        }
      ],
      "name": "onKIP17Received",
      "outputs": [
        {
          "internalType": "bytes4",
          "name": "",
          "type": "bytes4"
        }
      ],
      "stateMutability": "nonpayable",
      "type": "function"
    },
    {
      "inputs": [
        {
          "internalType": "address",
          "name": "operator",
          "type": "address"
        },
        {
          "internalType": "address",
          "name": "from",
          "type": "address"
        },
        {
          "internalType": "uint256",
          "name": "tokenId",
          "type": "uint256"
        },
        {
          "internalType": "bytes",
          "name": "data",
          "type": "bytes"
        }
      ],
      "name": "onERC721Received",
      "outputs": [
        {
          "internalType": "bytes4",
          "name": "",
          "type": "bytes4"
        }
      ],
      "stateMutability": "nonpayable",
      "type": "function"
    }
  ],
  "bytecode": "0x608060405234801561001057600080fd5b5061002d61002261003260201b60201c565b61003a60201b60201c565b6100fe565b600033905090565b60008060009054906101000a900473ffffffffffffffffffffffffffffffffffffffff169050816000806101000a81548173ffffffffffffffffffffffffffffffffffffffff021916908373ffffffffffffffffffffffffffffffffffffffff1602179055508173ffffffffffffffffffffffffffffffffffffffff168173ffffffffffffffffffffffffffffffffffffffff167f8be0079c531659141344cd1fd0a4f28419497f9722a3daafe3b4186f6b6457e060405160405180910390a35050565b611a928061010d6000396000f3fe608060405234801561001057600080fd5b50600436106100f55760003560e01c8063715018a611610097578063ae65781411610066578063ae657814146102aa578063db0f0d36146102da578063dc92fab31461030a578063f2fde38b14610326576100f5565b8063715018a6146102365780637561f73c146102405780638da5cb5b14610270578063988cf2371461028e576100f5565b80631c3c1562116100d35780631c3c1562146101765780633abddb59146101a65780635c79a644146101d65780636745782b14610206576100f5565b806311a4b0ba146100fa578063150b7a021461012a5780631a2083711461015a575b600080fd5b610114600480360381019061010f9190610f3c565b610342565b6040516101219190610f84565b60405180910390f35b610144600480360381019061013f919061111b565b610362565b60405161015191906111d9565b60405180910390f35b610174600480360381019061016f91906111f4565b6103b5565b005b610190600480360381019061018b919061125b565b6106eb565b60405161019d91906112ec565b60405180910390f35b6101c060048036038101906101bb919061133d565b61084f565b6040516101cd9190611379565b60405180910390f35b6101f060048036038101906101eb91906111f4565b610882565b6040516101fd91906113a3565b60405180910390f35b610220600480360381019061021b919061111b565b6108bb565b60405161022d91906111d9565b60405180910390f35b61023e61090e565b005b61025a6004803603810190610255919061133d565b610922565b6040516102679190610f84565b60405180910390f35b610278610942565b6040516102859190611379565b60405180910390f35b6102a860048036038101906102a391906113ea565b61096b565b005b6102c460048036038101906102bf919061125b565b610a1c565b6040516102d191906113a3565b60405180910390f35b6102f460048036038101906102ef919061133d565b610a4f565b6040516103019190610f84565b60405180910390f35b610324600480360381019061031f919061142a565b610a6f565b005b610340600480360381019061033b9190610f3c565b610c86565b005b60016020528060005260406000206000915054906101000a900460ff1681565b60007fad2dcd3df147b4263de137b64b66a40d39067dd871687fb64c9edb603975b028858585855a60405161039b95949392919061150b565b60405180910390a163150b7a0260e01b9050949350505050565b600260006103c38685610a1c565b815260200190815260200160002060009054906101000a900460ff1661041e576040517f08c379a0000000000000000000000000000000000000000000000000000000008152600401610415906115e8565b60405180910390fd5b600061042c85858585610882565b90506003600082815260200190815260200160002060009054906101000a900460ff161561048f576040517f08c379a00000000000000000000000000000000000000000000000000000000081526004016104869061167a565b60405180910390fd5b60016003600083815260200190815260200160002060006101000a81548160ff02191690831515021790555060006104c786856106eb565b9050806000015173ffffffffffffffffffffffffffffffffffffffff166342842e0e3330886040518463ffffffff1660e01b815260040161050a9392919061169a565b600060405180830381600087803b15801561052457600080fd5b505af1158015610538573d6000803e3d6000fd5b50505050806020015173ffffffffffffffffffffffffffffffffffffffff166342842e0e3330866040518463ffffffff1660e01b815260040161057d9392919061169a565b600060405180830381600087803b15801561059757600080fd5b505af11580156105ab573d6000803e3d6000fd5b505050506000816040015173ffffffffffffffffffffffffffffffffffffffff1663caa0f92a6040518163ffffffff1660e01b8152600401602060405180830381865afa158015610600573d6000803e3d6000fd5b505050506040513d601f19601f8201168201806040525081019061062491906116e6565b9050816040015173ffffffffffffffffffffffffffffffffffffffff1663193f3d6833836040518363ffffffff1660e01b8152600401610665929190611713565b6020604051808303816000875af1158015610684573d6000803e3d6000fd5b505050506040513d601f19601f820116820180604052508101906106a891906116e6565b5083867febb16bacda05a522f677e7230729f7cc9e863697b29482bfbc943b821d9b7007836040516106da919061173c565b60405180910390a350505050505050565b6106f3610e67565b60006106ff8484610a1c565b90506002600082815260200190815260200160002060009054906101000a900460ff16610761576040517f08c379a0000000000000000000000000000000000000000000000000000000008152600401610758906115e8565b60405180910390fd5b610769610e67565b84816000019073ffffffffffffffffffffffffffffffffffffffff16908173ffffffffffffffffffffffffffffffffffffffff168152505083816020019073ffffffffffffffffffffffffffffffffffffffff16908173ffffffffffffffffffffffffffffffffffffffff16815250506004600083815260200190815260200160002060009054906101000a900473ffffffffffffffffffffffffffffffffffffffff16816040019073ffffffffffffffffffffffffffffffffffffffff16908173ffffffffffffffffffffffffffffffffffffffff1681525050809250505092915050565b60046020528060005260406000206000915054906101000a900473ffffffffffffffffffffffffffffffffffffffff1681565b60008484848460405160200161089b94939291906117c0565b604051602081830303815290604052805190602001209050949350505050565b60007f03fe4826f4e2eecbd5e9d9f10141b01e7d0d4fcef0676a0ac94cf4339fd7ebc5858585855a6040516108f495949392919061150b565b60405180910390a1636745782b60e01b9050949350505050565b610916610c9a565b6109206000610d18565b565b60036020528060005260406000206000915054906101000a900460ff1681565b60008060009054906101000a900473ffffffffffffffffffffffffffffffffffffffff16905090565b610973610c9a565b80600160008473ffffffffffffffffffffffffffffffffffffffff1673ffffffffffffffffffffffffffffffffffffffff16815260200190815260200160002060006101000a81548160ff0219169083151502179055508173ffffffffffffffffffffffffffffffffffffffff167fcff44ed267d1e04f25b32209bbe658c36543cfbc497a28985c8cf3ba8d3c6ab882604051610a109190610f84565b60405180910390a25050565b60008282604051602001610a3192919061180e565b60405160208183030381529060405280519060200120905092915050565b60026020528060005260406000206000915054906101000a900460ff1681565b610a77610c9a565b600160008473ffffffffffffffffffffffffffffffffffffffff1673ffffffffffffffffffffffffffffffffffffffff16815260200190815260200160002060009054906101000a900460ff16610b03576040517f08c379a0000000000000000000000000000000000000000000000000000000008152600401610afa906118ac565b60405180910390fd5b600160008373ffffffffffffffffffffffffffffffffffffffff1673ffffffffffffffffffffffffffffffffffffffff16815260200190815260200160002060009054906101000a900460ff16610b8f576040517f08c379a0000000000000000000000000000000000000000000000000000000008152600401610b869061193e565b60405180910390fd5b6000610b9b8484610a1c565b905060016002600083815260200190815260200160002060006101000a81548160ff021916908315150217905550816004600083815260200190815260200160002060006101000a81548173ffffffffffffffffffffffffffffffffffffffff021916908373ffffffffffffffffffffffffffffffffffffffff1602179055508273ffffffffffffffffffffffffffffffffffffffff168473ffffffffffffffffffffffffffffffffffffffff167f514a9e9ef012e9a497625ffda1387f66ed748ca256ff0e1a88a5446000cb915584604051610c789190611379565b60405180910390a350505050565b610c8e610c9a565b610c9781610ddc565b50565b610ca2610e5f565b73ffffffffffffffffffffffffffffffffffffffff16610cc0610942565b73ffffffffffffffffffffffffffffffffffffffff1614610d16576040517f08c379a0000000000000000000000000000000000000000000000000000000008152600401610d0d906119aa565b60405180910390fd5b565b60008060009054906101000a900473ffffffffffffffffffffffffffffffffffffffff169050816000806101000a81548173ffffffffffffffffffffffffffffffffffffffff021916908373ffffffffffffffffffffffffffffffffffffffff1602179055508173ffffffffffffffffffffffffffffffffffffffff168173ffffffffffffffffffffffffffffffffffffffff167f8be0079c531659141344cd1fd0a4f28419497f9722a3daafe3b4186f6b6457e060405160405180910390a35050565b610de4610c9a565b600073ffffffffffffffffffffffffffffffffffffffff168173ffffffffffffffffffffffffffffffffffffffff1603610e53576040517f08c379a0000000000000000000000000000000000000000000000000000000008152600401610e4a90611a3c565b60405180910390fd5b610e5c81610d18565b50565b600033905090565b6040518060600160405280600073ffffffffffffffffffffffffffffffffffffffff168152602001600073ffffffffffffffffffffffffffffffffffffffff168152602001600073ffffffffffffffffffffffffffffffffffffffff1681525090565b6000604051905090565b600080fd5b600080fd5b600073ffffffffffffffffffffffffffffffffffffffff82169050919050565b6000610f0982610ede565b9050919050565b610f1981610efe565b8114610f2457600080fd5b50565b600081359050610f3681610f10565b92915050565b600060208284031215610f5257610f51610ed4565b5b6000610f6084828501610f27565b91505092915050565b60008115159050919050565b610f7e81610f69565b82525050565b6000602082019050610f996000830184610f75565b92915050565b6000819050919050565b610fb281610f9f565b8114610fbd57600080fd5b50565b600081359050610fcf81610fa9565b92915050565b600080fd5b600080fd5b6000601f19601f8301169050919050565b7f4e487b7100000000000000000000000000000000000000000000000000000000600052604160045260246000fd5b61102882610fdf565b810181811067ffffffffffffffff8211171561104757611046610ff0565b5b80604052505050565b600061105a610eca565b9050611066828261101f565b919050565b600067ffffffffffffffff82111561108657611085610ff0565b5b61108f82610fdf565b9050602081019050919050565b82818337600083830152505050565b60006110be6110b98461106b565b611050565b9050828152602081018484840111156110da576110d9610fda565b5b6110e584828561109c565b509392505050565b600082601f83011261110257611101610fd5565b5b81356111128482602086016110ab565b91505092915050565b6000806000806080858703121561113557611134610ed4565b5b600061114387828801610f27565b945050602061115487828801610f27565b935050604061116587828801610fc0565b925050606085013567ffffffffffffffff81111561118657611185610ed9565b5b611192878288016110ed565b91505092959194509250565b60007fffffffff0000000000000000000000000000000000000000000000000000000082169050919050565b6111d38161119e565b82525050565b60006020820190506111ee60008301846111ca565b92915050565b6000806000806080858703121561120e5761120d610ed4565b5b600061121c87828801610f27565b945050602061122d87828801610fc0565b935050604061123e87828801610f27565b925050606061124f87828801610fc0565b91505092959194509250565b6000806040838503121561127257611271610ed4565b5b600061128085828601610f27565b925050602061129185828601610f27565b9150509250929050565b6112a481610efe565b82525050565b6060820160008201516112c0600085018261129b565b5060208201516112d3602085018261129b565b5060408201516112e6604085018261129b565b50505050565b600060608201905061130160008301846112aa565b92915050565b6000819050919050565b61131a81611307565b811461132557600080fd5b50565b60008135905061133781611311565b92915050565b60006020828403121561135357611352610ed4565b5b600061136184828501611328565b91505092915050565b61137381610efe565b82525050565b600060208201905061138e600083018461136a565b92915050565b61139d81611307565b82525050565b60006020820190506113b86000830184611394565b92915050565b6113c781610f69565b81146113d257600080fd5b50565b6000813590506113e4816113be565b92915050565b6000806040838503121561140157611400610ed4565b5b600061140f85828601610f27565b9250506020611420858286016113d5565b9150509250929050565b60008060006060848603121561144357611442610ed4565b5b600061145186828701610f27565b935050602061146286828701610f27565b925050604061147386828701610f27565b9150509250925092565b61148681610f9f565b82525050565b600081519050919050565b600082825260208201905092915050565b60005b838110156114c65780820151818401526020810190506114ab565b60008484015250505050565b60006114dd8261148c565b6114e78185611497565b93506114f78185602086016114a8565b61150081610fdf565b840191505092915050565b600060a082019050611520600083018861136a565b61152d602083018761136a565b61153a604083018661147d565b818103606083015261154c81856114d2565b905061155b608083018461147d565b9695505050505050565b600082825260208201905092915050565b7f467573696f6e20636f6e66696775726174696f6e206e6f7420666f756e64206f60008201527f72206e6f7420656c696769626c65000000000000000000000000000000000000602082015250565b60006115d2602e83611565565b91506115dd82611576565b604082019050919050565b60006020820190508181036000830152611601816115c5565b9050919050565b7f467573696f6e20616c726561647920706572666f726d6564207769746820746860008201527f69732070616972206f6620746f6b656e73000000000000000000000000000000602082015250565b6000611664603183611565565b915061166f82611608565b604082019050919050565b6000602082019050818103600083015261169381611657565b9050919050565b60006060820190506116af600083018661136a565b6116bc602083018561136a565b6116c9604083018461147d565b949350505050565b6000815190506116e081610fa9565b92915050565b6000602082840312156116fc576116fb610ed4565b5b600061170a848285016116d1565b91505092915050565b6000604082019050611728600083018561136a565b611735602083018461147d565b9392505050565b6000602082019050611751600083018461147d565b92915050565b60008160601b9050919050565b600061176f82611757565b9050919050565b600061178182611764565b9050919050565b61179961179482610efe565b611776565b82525050565b6000819050919050565b6117ba6117b582610f9f565b61179f565b82525050565b60006117cc8287611788565b6014820191506117dc82866117a9565b6020820191506117ec8285611788565b6014820191506117fc82846117a9565b60208201915081905095945050505050565b600061181a8285611788565b60148201915061182a8284611788565b6014820191508190509392505050565b7f4e465420636f6e74726163742031206e6f7420656c696769626c6520666f722060008201527f667573696f6e0000000000000000000000000000000000000000000000000000602082015250565b6000611896602683611565565b91506118a18261183a565b604082019050919050565b600060208201905081810360008301526118c581611889565b9050919050565b7f4e465420636f6e74726163742032206e6f7420656c696769626c6520666f722060008201527f667573696f6e0000000000000000000000000000000000000000000000000000602082015250565b6000611928602683611565565b9150611933826118cc565b604082019050919050565b600060208201905081810360008301526119578161191b565b9050919050565b7f4f776e61626c653a2063616c6c6572206973206e6f7420746865206f776e6572600082015250565b6000611994602083611565565b915061199f8261195e565b602082019050919050565b600060208201905081810360008301526119c381611987565b9050919050565b7f4f776e61626c653a206e6577206f776e657220697320746865207a65726f206160008201527f6464726573730000000000000000000000000000000000000000000000000000602082015250565b6000611a26602683611565565b9150611a31826119ca565b604082019050919050565b60006020820190508181036000830152611a5581611a19565b905091905056fea2646970667358221220e33aa4116e35e439078fbd1d67dea9cf0bc0c42e69b03e2bdb675dbb5caf8c2264736f6c63430008130033",
  "immutableReferences": {},
  "source": "// SPDX-License-Identifier: MIT\r\n\r\npragma solidity ^0.8.0;\r\n\r\nimport \"@openzeppelin/contracts/access/Ownable.sol\";\r\nimport \"@openzeppelin/contracts/token/ERC721/IERC721.sol\";\r\nimport \"@openzeppelin/contracts/token/ERC721/IERC721Receiver.sol\";\r\nimport \"./IERC721NFTBase.sol\";\r\n\r\n\r\ncontract FusionManager is Ownable, IERC721Receiver {\r\n    struct FusionConfig {\r\n        address nftContract1;\r\n        address nftContract2;\r\n        address nftContractResult;\r\n    }\r\n\r\n    struct FusionPerform {\r\n        address nftContract1;\r\n        uint256 tokenId1;\r\n        address nftContract2;\r\n        uint256 tokenId2;\r\n    }\r\n\r\n    mapping(address => bool) public eligibleNftContracts;\r\n    mapping(bytes32 => bool) public eligibleFusions;\r\n    mapping(bytes32 => bool) public usedFusions;\r\n    mapping(bytes32 => address) public fusionResultContracts;\r\n\r\n    event FusionEligibilitySet(address indexed nftContract, bool eligible);\r\n    event FusionConfigSet(\r\n        address indexed nftContract1,\r\n        address indexed nftContract2,\r\n        address nftContractResult\r\n    );\r\n    event FusionPerformed(\r\n        uint256 indexed tokenId1,\r\n        uint256 indexed tokenId2,\r\n        uint256 tokenIdResult\r\n    );\r\n\r\n    // Equals to `bytes4(keccak256(\"onKIP17Received(address,address,uint256,bytes)\"))`\r\n    // which can be also obtained as `IKIP17Receiver(0).onKIP17Received.selector`\r\n    bytes4 private constant _KIP17_RECEIVED = 0x6745782b;\r\n\r\n    // Equals to `bytes4(keccak256(\"onERC721Received(address,address,uint256,bytes)\"))`\r\n    // which can be also obtained as `IERC721Receiver(0).onERC721Received.selector`\r\n    bytes4 private constant _ERC721_RECEIVED = 0x150b7a02;\r\n\r\n    function setEligibleNftContract(\r\n        address nftContract,\r\n        bool eligible\r\n    ) external onlyOwner {\r\n        eligibleNftContracts[nftContract] = eligible;\r\n        emit FusionEligibilitySet(nftContract, eligible);\r\n    }\r\n\r\n    function setFusionConfig(\r\n        address nftContract1,\r\n        address nftContract2,\r\n        address nftContractResult\r\n    ) external onlyOwner {\r\n        require(\r\n            eligibleNftContracts[nftContract1],\r\n            \"NFT contract 1 not eligible for fusion\"\r\n        );\r\n        require(\r\n            eligibleNftContracts[nftContract2],\r\n            \"NFT contract 2 not eligible for fusion\"\r\n        );\r\n        bytes32 fusionHash = getFusionHash(nftContract1, nftContract2);\r\n        eligibleFusions[fusionHash] = true;\r\n        fusionResultContracts[fusionHash] = nftContractResult;\r\n        emit FusionConfigSet(nftContract1, nftContract2, nftContractResult);\r\n    }\r\n\r\n    function performFusion(\r\n        address nftContract1,\r\n        uint256 tokenId1,\r\n        address nftContract2,\r\n        uint256 tokenId2\r\n    ) external {\r\n        require(\r\n            eligibleFusions[getFusionHash(nftContract1,nftContract2)],\r\n            \"Fusion configuration not found or not eligible\"\r\n        );\r\n\r\n        bytes32 fusionHash = getFusionPerformHash(nftContract1, tokenId1, nftContract2, tokenId2);\r\n\r\n        require(\r\n            !usedFusions[fusionHash],\r\n            \"Fusion already performed with this pair of tokens\"\r\n        );\r\n        usedFusions[fusionHash] = true;\r\n        FusionConfig memory config = getFusionConfig(\r\n            nftContract1,\r\n            nftContract2\r\n        );\r\n        IERC721(config.nftContract1).safeTransferFrom(\r\n            msg.sender,\r\n            address(this),\r\n            tokenId1\r\n        );\r\n        IERC721(config.nftContract2).safeTransferFrom(\r\n            msg.sender,\r\n            address(this),\r\n            tokenId2\r\n        );\r\n\r\n        uint256 tokenIdResult = IERC721NFTBase(config.nftContractResult).getNextTokenId();\r\n        IERC721NFTBase(config.nftContractResult).safeMintWithTokenId(msg.sender, tokenIdResult);\r\n\r\n        emit FusionPerformed(\r\n            tokenId1,\r\n            tokenId2,\r\n            tokenIdResult\r\n        );\r\n    }\r\n\r\n    function getFusionConfig(\r\n        address nftContract1,\r\n        address nftContract2\r\n    ) public view returns (FusionConfig memory) {\r\n        bytes32 fusionHash = getFusionHash(\r\n            nftContract1,\r\n            nftContract2\r\n        );\r\n        require(\r\n            eligibleFusions[fusionHash],\r\n            \"Fusion configuration not found or not eligible\"\r\n        );\r\n\r\n        FusionConfig memory config;\r\n        config.nftContract1 = nftContract1;\r\n        config.nftContract2 = nftContract2;\r\n        config.nftContractResult = fusionResultContracts[fusionHash];\r\n        return config;\r\n    }\r\n\r\n    function getFusionHash(\r\n        address nftContract1,\r\n        address nftContract2\r\n    ) public pure returns (bytes32) {\r\n        return keccak256(abi.encodePacked(nftContract1, nftContract2));\r\n    }\r\n\r\n    function getFusionPerformHash(\r\n        address nftContract1,\r\n        uint256 tokenId1,\r\n        address nftContract2,\r\n        uint256 tokenId2\r\n    ) public pure returns (bytes32) {\r\n        return\r\n            keccak256(\r\n                abi.encodePacked(nftContract1, tokenId1, nftContract2, tokenId2)\r\n            );\r\n    }\r\n\r\n    function transferOwnership(address newOwner) public override(Ownable) onlyOwner {\r\n         super.transferOwnership(newOwner);\r\n    }\r\n\r\n    ///////////\r\n    /// Reciever//\r\n    /////////////\r\n\r\n    event KIP17Received(\r\n        address operator,\r\n        address from,\r\n        uint256 tokenId,\r\n        bytes data,\r\n        uint256 gas\r\n    );\r\n\r\n    function onKIP17Received(\r\n        address operator,\r\n        address from,\r\n        uint256 tokenId,\r\n        bytes memory data\r\n    ) public returns (bytes4) {\r\n        emit KIP17Received(operator, from, tokenId, data, gasleft());\r\n        return _KIP17_RECEIVED;\r\n    }\r\n\r\n    event ERC721Received(\r\n        address operator,\r\n        address from,\r\n        uint256 tokenId,\r\n        bytes data,\r\n        uint256 gas\r\n    );\r\n\r\n    function onERC721Received(\r\n        address operator,\r\n        address from,\r\n        uint256 tokenId,\r\n        bytes memory data\r\n    ) public returns (bytes4) {\r\n        emit ERC721Received(operator, from, tokenId, data, gasleft());\r\n        return _ERC721_RECEIVED;\r\n    }\r\n}\r\n",
  "sourcePath": "C:\\git\\web3.0-general\\SmartContractRepo\\contracts\\FusionManager.sol",
  "compiler": {
    "name": "solc",
    "version": "0.8.19+commit.7dd6d404.Emscripten.clang"
  },
  "schemaVersion": "3.4.13",
  "updatedAt": "2023-03-28T07:39:30.830Z",
  "devdoc": {
    "kind": "dev",
    "methods": {
      "onERC721Received(address,address,uint256,bytes)": {
        "details": "Whenever an {IERC721} `tokenId` token is transferred to this contract via {IERC721-safeTransferFrom} by `operator` from `from`, this function is called. It must return its Solidity selector to confirm the token transfer. If any other value is returned or the interface is not implemented by the recipient, the transfer will be reverted. The selector can be obtained in Solidity with `IERC721Receiver.onERC721Received.selector`."
      },
      "owner()": {
        "details": "Returns the address of the current owner."
      },
      "renounceOwnership()": {
        "details": "Leaves the contract without owner. It will not be possible to call `onlyOwner` functions anymore. Can only be called by the current owner. NOTE: Renouncing ownership will leave the contract without an owner, thereby removing any functionality that is only available to the owner."
      },
      "transferOwnership(address)": {
        "details": "Transfers ownership of the contract to a new account (`newOwner`). Can only be called by the current owner."
      }
    },
    "version": 1
  },
  "userdoc": {
    "events": {
      "KIP17Received(address,address,uint256,bytes,uint256)": {
        "notice": "Reciever//"
      }
    },
    "kind": "user",
    "methods": {},
    "version": 1
  }
}