{
  "contractName": "KIP7TokenBase",
  "abi": [
    {
      "inputs": [
        {
          "internalType": "string",
          "name": "newName",
          "type": "string"
        },
        {
          "internalType": "string",
          "name": "newSymbol",
          "type": "string"
        },
        {
          "internalType": "uint256",
          "name": "_minableBlock",
          "type": "uint256"
        },
        {
          "internalType": "uint256",
          "name": "_blockAmount",
          "type": "uint256"
        },
        {
          "internalType": "uint256",
          "name": "_halfLife",
          "type": "uint256"
        },
        {
          "internalType": "uint256",
          "name": "_halving",
          "type": "uint256"
        },
        {
          "internalType": "uint256",
          "name": "_miningAmount",
          "type": "uint256"
        },
        {
          "internalType": "address",
          "name": "initialSupplyClaimer",
          "type": "address"
        },
        {
          "internalType": "uint256",
          "name": "initialSupply",
          "type": "uint256"
        }
      ],
      "stateMutability": "nonpayable",
      "type": "constructor"
    },
    {
      "anonymous": false,
      "inputs": [
        {
          "indexed": true,
          "internalType": "address",
          "name": "owner",
          "type": "address"
        },
        {
          "indexed": true,
          "internalType": "address",
          "name": "spender",
          "type": "address"
        },
        {
          "indexed": false,
          "internalType": "uint256",
          "name": "value",
          "type": "uint256"
        }
      ],
      "name": "Approval",
      "type": "event"
    },
    {
      "anonymous": false,
      "inputs": [
        {
          "indexed": false,
          "internalType": "uint256",
          "name": "thisMined",
          "type": "uint256"
        },
        {
          "indexed": false,
          "internalType": "uint256",
          "name": "lastMined",
          "type": "uint256"
        },
        {
          "indexed": false,
          "internalType": "uint256",
          "name": "curMined",
          "type": "uint256"
        }
      ],
      "name": "Mine",
      "type": "event"
    },
    {
      "anonymous": false,
      "inputs": [
        {
          "indexed": true,
          "internalType": "address",
          "name": "previousOwner",
          "type": "address"
        },
        {
          "indexed": true,
          "internalType": "address",
          "name": "newOwner",
          "type": "address"
        }
      ],
      "name": "OwnershipTransferred",
      "type": "event"
    },
    {
      "anonymous": false,
      "inputs": [
        {
          "indexed": true,
          "internalType": "address",
          "name": "previousDistributor",
          "type": "address"
        },
        {
          "indexed": true,
          "internalType": "address",
          "name": "newDistributor",
          "type": "address"
        }
      ],
      "name": "SetDistributor",
      "type": "event"
    },
    {
      "anonymous": false,
      "inputs": [
        {
          "indexed": true,
          "internalType": "address",
          "name": "from",
          "type": "address"
        },
        {
          "indexed": true,
          "internalType": "address",
          "name": "to",
          "type": "address"
        },
        {
          "indexed": false,
          "internalType": "uint256",
          "name": "value",
          "type": "uint256"
        }
      ],
      "name": "Transfer",
      "type": "event"
    },
    {
      "inputs": [],
      "name": "blockAmount",
      "outputs": [
        {
          "internalType": "uint256",
          "name": "",
          "type": "uint256"
        }
      ],
      "stateMutability": "view",
      "type": "function"
    },
    {
      "inputs": [],
      "name": "distributor",
      "outputs": [
        {
          "internalType": "address",
          "name": "",
          "type": "address"
        }
      ],
      "stateMutability": "view",
      "type": "function"
    },
    {
      "inputs": [],
      "name": "halfLife",
      "outputs": [
        {
          "internalType": "uint256",
          "name": "",
          "type": "uint256"
        }
      ],
      "stateMutability": "view",
      "type": "function"
    },
    {
      "inputs": [],
      "name": "halving",
      "outputs": [
        {
          "internalType": "uint256",
          "name": "",
          "type": "uint256"
        }
      ],
      "stateMutability": "view",
      "type": "function"
    },
    {
      "inputs": [],
      "name": "lastMined",
      "outputs": [
        {
          "internalType": "uint256",
          "name": "",
          "type": "uint256"
        }
      ],
      "stateMutability": "view",
      "type": "function"
    },
    {
      "inputs": [],
      "name": "minableBlock",
      "outputs": [
        {
          "internalType": "uint256",
          "name": "",
          "type": "uint256"
        }
      ],
      "stateMutability": "view",
      "type": "function"
    },
    {
      "inputs": [],
      "name": "miningAmount",
      "outputs": [
        {
          "internalType": "uint256",
          "name": "",
          "type": "uint256"
        }
      ],
      "stateMutability": "view",
      "type": "function"
    },
    {
      "inputs": [],
      "name": "owner",
      "outputs": [
        {
          "internalType": "address",
          "name": "",
          "type": "address"
        }
      ],
      "stateMutability": "view",
      "type": "function"
    },
    {
      "inputs": [],
      "name": "renounceOwnership",
      "outputs": [],
      "stateMutability": "nonpayable",
      "type": "function"
    },
    {
      "inputs": [
        {
          "internalType": "address",
          "name": "newOwner",
          "type": "address"
        }
      ],
      "name": "transferOwnership",
      "outputs": [],
      "stateMutability": "nonpayable",
      "type": "function"
    },
    {
      "inputs": [
        {
          "internalType": "address",
          "name": "_distributor",
          "type": "address"
        }
      ],
      "name": "setDistributor",
      "outputs": [],
      "stateMutability": "nonpayable",
      "type": "function"
    },
    {
      "inputs": [],
      "name": "mined",
      "outputs": [
        {
          "internalType": "uint256",
          "name": "res",
          "type": "uint256"
        }
      ],
      "stateMutability": "view",
      "type": "function"
    },
    {
      "inputs": [],
      "name": "mine",
      "outputs": [],
      "stateMutability": "nonpayable",
      "type": "function"
    },
    {
      "inputs": [
        {
          "internalType": "bytes4",
          "name": "interfaceId",
          "type": "bytes4"
        }
      ],
      "name": "supportsInterface",
      "outputs": [
        {
          "internalType": "bool",
          "name": "",
          "type": "bool"
        }
      ],
      "stateMutability": "view",
      "type": "function"
    },
    {
      "inputs": [],
      "name": "name",
      "outputs": [
        {
          "internalType": "string",
          "name": "",
          "type": "string"
        }
      ],
      "stateMutability": "view",
      "type": "function"
    },
    {
      "inputs": [],
      "name": "symbol",
      "outputs": [
        {
          "internalType": "string",
          "name": "",
          "type": "string"
        }
      ],
      "stateMutability": "view",
      "type": "function"
    },
    {
      "inputs": [],
      "name": "decimals",
      "outputs": [
        {
          "internalType": "uint8",
          "name": "",
          "type": "uint8"
        }
      ],
      "stateMutability": "view",
      "type": "function"
    },
    {
      "inputs": [],
      "name": "totalSupply",
      "outputs": [
        {
          "internalType": "uint256",
          "name": "",
          "type": "uint256"
        }
      ],
      "stateMutability": "view",
      "type": "function"
    },
    {
      "inputs": [
        {
          "internalType": "address",
          "name": "account",
          "type": "address"
        }
      ],
      "name": "balanceOf",
      "outputs": [
        {
          "internalType": "uint256",
          "name": "",
          "type": "uint256"
        }
      ],
      "stateMutability": "view",
      "type": "function"
    },
    {
      "inputs": [
        {
          "internalType": "address",
          "name": "recipient",
          "type": "address"
        },
        {
          "internalType": "uint256",
          "name": "amount",
          "type": "uint256"
        }
      ],
      "name": "transfer",
      "outputs": [
        {
          "internalType": "bool",
          "name": "",
          "type": "bool"
        }
      ],
      "stateMutability": "nonpayable",
      "type": "function"
    },
    {
      "inputs": [
        {
          "internalType": "address",
          "name": "owner_",
          "type": "address"
        },
        {
          "internalType": "address",
          "name": "spender",
          "type": "address"
        }
      ],
      "name": "allowance",
      "outputs": [
        {
          "internalType": "uint256",
          "name": "",
          "type": "uint256"
        }
      ],
      "stateMutability": "view",
      "type": "function"
    },
    {
      "inputs": [
        {
          "internalType": "address",
          "name": "spender",
          "type": "address"
        },
        {
          "internalType": "uint256",
          "name": "value",
          "type": "uint256"
        }
      ],
      "name": "approve",
      "outputs": [
        {
          "internalType": "bool",
          "name": "",
          "type": "bool"
        }
      ],
      "stateMutability": "nonpayable",
      "type": "function"
    },
    {
      "inputs": [
        {
          "internalType": "address",
          "name": "spender",
          "type": "address"
        },
        {
          "internalType": "uint256",
          "name": "addedValue",
          "type": "uint256"
        }
      ],
      "name": "increaseAllowance",
      "outputs": [
        {
          "internalType": "bool",
          "name": "",
          "type": "bool"
        }
      ],
      "stateMutability": "nonpayable",
      "type": "function"
    },
    {
      "inputs": [
        {
          "internalType": "address",
          "name": "spender",
          "type": "address"
        },
        {
          "internalType": "uint256",
          "name": "subtractedValue",
          "type": "uint256"
        }
      ],
      "name": "decreaseAllowance",
      "outputs": [
        {
          "internalType": "bool",
          "name": "",
          "type": "bool"
        }
      ],
      "stateMutability": "nonpayable",
      "type": "function"
    },
    {
      "inputs": [
        {
          "internalType": "address",
          "name": "sender",
          "type": "address"
        },
        {
          "internalType": "address",
          "name": "recipient",
          "type": "address"
        },
        {
          "internalType": "uint256",
          "name": "amount",
          "type": "uint256"
        }
      ],
      "name": "transferFrom",
      "outputs": [
        {
          "internalType": "bool",
          "name": "",
          "type": "bool"
        }
      ],
      "stateMutability": "nonpayable",
      "type": "function"
    },
    {
      "inputs": [
        {
          "internalType": "address",
          "name": "recipient",
          "type": "address"
        },
        {
          "internalType": "uint256",
          "name": "amount",
          "type": "uint256"
        }
      ],
      "name": "safeTransfer",
      "outputs": [],
      "stateMutability": "nonpayable",
      "type": "function"
    },
    {
      "inputs": [
        {
          "internalType": "address",
          "name": "recipient",
          "type": "address"
        },
        {
          "internalType": "uint256",
          "name": "amount",
          "type": "uint256"
        },
        {
          "internalType": "bytes",
          "name": "data",
          "type": "bytes"
        }
      ],
      "name": "safeTransfer",
      "outputs": [],
      "stateMutability": "nonpayable",
      "type": "function"
    },
    {
      "inputs": [
        {
          "internalType": "address",
          "name": "sender",
          "type": "address"
        },
        {
          "internalType": "address",
          "name": "recipient",
          "type": "address"
        },
        {
          "internalType": "uint256",
          "name": "amount",
          "type": "uint256"
        }
      ],
      "name": "safeTransferFrom",
      "outputs": [],
      "stateMutability": "nonpayable",
      "type": "function"
    },
    {
      "inputs": [
        {
          "internalType": "address",
          "name": "sender",
          "type": "address"
        },
        {
          "internalType": "address",
          "name": "recipient",
          "type": "address"
        },
        {
          "internalType": "uint256",
          "name": "amount",
          "type": "uint256"
        },
        {
          "internalType": "bytes",
          "name": "data",
          "type": "bytes"
        }
      ],
      "name": "safeTransferFrom",
      "outputs": [],
      "stateMutability": "nonpayable",
      "type": "function"
    },
    {
      "inputs": [
        {
          "internalType": "uint256",
          "name": "amount",
          "type": "uint256"
        }
      ],
      "name": "burn",
      "outputs": [],
      "stateMutability": "nonpayable",
      "type": "function"
    }
  ],
  "bytecode": "0x60806040526012600360006101000a81548160ff021916908360ff160217905550639d188c2260e01b600860006101000a81548163ffffffff021916908360e01c02179055503480156200005257600080fd5b506040516200351438038062003514833981810160405281019062000078919062000696565b620000906301ffc9a760e01b620001e160201b60201c565b620000a8636578737160e01b620001e160201b60201c565b620000c063a219a02560e01b620001e160201b60201c565b620000d8633b5a0bf860e01b620001e160201b60201c565b336000806101000a81548173ffffffffffffffffffffffffffffffffffffffff021916908373ffffffffffffffffffffffffffffffffffffffff1602179055508860019081620001299190620009f4565b5087600290816200013b9190620009f4565b504387116200014957600080fd5b86600a81905550600086036200015e57600080fd5b85600b8190555084600c8190555083600d8190555082600e81905550600073ffffffffffffffffffffffffffffffffffffffff168273ffffffffffffffffffffffffffffffffffffffff1614158015620001b9575060008114155b15620001d257620001d18282620002b960201b60201c565b5b50505050505050505062000c68565b63ffffffff60e01b817bffffffffffffffffffffffffffffffffffffffffffffffffffffffff1916036200024c576040517f08c379a0000000000000000000000000000000000000000000000000000000008152600401620002439062000b3c565b60405180910390fd5b600160076000837bffffffffffffffffffffffffffffffffffffffffffffffffffffffff19167bffffffffffffffffffffffffffffffffffffffffffffffffffffffff1916815260200190815260200160002060006101000a81548160ff02191690831515021790555050565b600073ffffffffffffffffffffffffffffffffffffffff168273ffffffffffffffffffffffffffffffffffffffff16036200032b576040517f08c379a0000000000000000000000000000000000000000000000000000000008152600401620003229062000bae565b60405180910390fd5b62000342816004546200044b60201b90919060201c565b6004819055506200039c81600560008573ffffffffffffffffffffffffffffffffffffffff1673ffffffffffffffffffffffffffffffffffffffff168152602001908152602001600020546200044b60201b90919060201c565b600560008473ffffffffffffffffffffffffffffffffffffffff1673ffffffffffffffffffffffffffffffffffffffff168152602001908152602001600020819055508173ffffffffffffffffffffffffffffffffffffffff16600073ffffffffffffffffffffffffffffffffffffffff167fddf252ad1be2c89b69c2b068fc378daa952ba7f163c4a11628f55a4df523b3ef836040516200043f919062000be1565b60405180910390a35050565b600081836200045b919062000c2d565b905092915050565b6000604051905090565b600080fd5b600080fd5b600080fd5b600080fd5b6000601f19601f8301169050919050565b7f4e487b7100000000000000000000000000000000000000000000000000000000600052604160045260246000fd5b620004cc8262000481565b810181811067ffffffffffffffff82111715620004ee57620004ed62000492565b5b80604052505050565b60006200050362000463565b9050620005118282620004c1565b919050565b600067ffffffffffffffff82111562000534576200053362000492565b5b6200053f8262000481565b9050602081019050919050565b60005b838110156200056c5780820151818401526020810190506200054f565b60008484015250505050565b60006200058f620005898462000516565b620004f7565b905082815260208101848484011115620005ae57620005ad6200047c565b5b620005bb8482856200054c565b509392505050565b600082601f830112620005db57620005da62000477565b5b8151620005ed84826020860162000578565b91505092915050565b6000819050919050565b6200060b81620005f6565b81146200061757600080fd5b50565b6000815190506200062b8162000600565b92915050565b600073ffffffffffffffffffffffffffffffffffffffff82169050919050565b60006200065e8262000631565b9050919050565b620006708162000651565b81146200067c57600080fd5b50565b600081519050620006908162000665565b92915050565b60008060008060008060008060006101208a8c031215620006bc57620006bb6200046d565b5b60008a015167ffffffffffffffff811115620006dd57620006dc62000472565b5b620006eb8c828d01620005c3565b99505060208a015167ffffffffffffffff8111156200070f576200070e62000472565b5b6200071d8c828d01620005c3565b9850506040620007308c828d016200061a565b9750506060620007438c828d016200061a565b9650506080620007568c828d016200061a565b95505060a0620007698c828d016200061a565b94505060c06200077c8c828d016200061a565b93505060e06200078f8c828d016200067f565b925050610100620007a38c828d016200061a565b9150509295985092959850929598565b600081519050919050565b7f4e487b7100000000000000000000000000000000000000000000000000000000600052602260045260246000fd5b600060028204905060018216806200080657607f821691505b6020821081036200081c576200081b620007be565b5b50919050565b60008190508160005260206000209050919050565b60006020601f8301049050919050565b600082821b905092915050565b600060088302620008867fffffffffffffffffffffffffffffffffffffffffffffffffffffffffffffffff8262000847565b62000892868362000847565b95508019841693508086168417925050509392505050565b6000819050919050565b6000620008d5620008cf620008c984620005f6565b620008aa565b620005f6565b9050919050565b6000819050919050565b620008f183620008b4565b620009096200090082620008dc565b84845462000854565b825550505050565b600090565b6200092062000911565b6200092d818484620008e6565b505050565b5b8181101562000955576200094960008262000916565b60018101905062000933565b5050565b601f821115620009a4576200096e8162000822565b620009798462000837565b8101602085101562000989578190505b620009a1620009988562000837565b83018262000932565b50505b505050565b600082821c905092915050565b6000620009c960001984600802620009a9565b1980831691505092915050565b6000620009e48383620009b6565b9150826002028217905092915050565b620009ff82620007b3565b67ffffffffffffffff81111562000a1b5762000a1a62000492565b5b62000a278254620007ed565b62000a3482828562000959565b600060209050601f83116001811462000a6c576000841562000a57578287015190505b62000a638582620009d6565b86555062000ad3565b601f19841662000a7c8662000822565b60005b8281101562000aa65784890151825560018201915060208501945060208101905062000a7f565b8683101562000ac6578489015162000ac2601f891682620009b6565b8355505b6001600288020188555050505b505050505050565b600082825260208201905092915050565b7f4b495031333a20696e76616c696420696e746572666163652069640000000000600082015250565b600062000b24601b8362000adb565b915062000b318262000aec565b602082019050919050565b6000602082019050818103600083015262000b578162000b15565b9050919050565b7f4b4950373a206d696e7420746f20746865207a65726f20616464726573730000600082015250565b600062000b96601e8362000adb565b915062000ba38262000b5e565b602082019050919050565b6000602082019050818103600083015262000bc98162000b87565b9050919050565b62000bdb81620005f6565b82525050565b600060208201905062000bf8600083018462000bd0565b92915050565b7f4e487b7100000000000000000000000000000000000000000000000000000000600052601160045260246000fd5b600062000c3a82620005f6565b915062000c4783620005f6565b925082820190508082111562000c625762000c6162000bfe565b5b92915050565b61289c8062000c786000396000f3fe608060405234801561001057600080fd5b50600436106101da5760003560e01c80637bc90d1c11610104578063b5afac5d116100a2578063dd62ed3e11610071578063dd62ed3e14610537578063eb79554914610567578063f2fde38b14610583578063fb705de61461059f576101da565b8063b5afac5d146104c1578063b88d4fde146104df578063bfe10928146104fb578063c8df245a14610519576101da565b806395d89b41116100de57806395d89b411461043957806399f4b25114610457578063a457c2d714610461578063a9059cbb14610491576101da565b80637bc90d1c146103df578063810bf024146103fd5780638da5cb5b1461041b576101da565b8063395093511161017c57806370a082311161014b57806370a082311461036b578063715018a61461039b57806375619ab5146103a55780637a5fc7b1146103c1576101da565b806339509351146102e7578063423f6cef1461031757806342842e0e1461033357806342966c681461034f576101da565b8063095ea7b3116101b8578063095ea7b31461024b57806318160ddd1461027b57806323b872dd14610299578063313ce567146102c9576101da565b806301ffc9a7146101df578063033c84771461020f57806306fdde031461022d575b600080fd5b6101f960048036038101906101f49190611b9f565b6105bd565b6040516102069190611be7565b60405180910390f35b610217610625565b6040516102249190611c1b565b60405180910390f35b6102356107b9565b6040516102429190611cc6565b60405180910390f35b61026560048036038101906102609190611d72565b61084b565b6040516102729190611be7565b60405180910390f35b610283610862565b6040516102909190611c1b565b60405180910390f35b6102b360048036038101906102ae9190611db2565b61086c565b6040516102c09190611be7565b60405180910390f35b6102d161091d565b6040516102de9190611e21565b60405180910390f35b61030160048036038101906102fc9190611d72565b610934565b60405161030e9190611be7565b60405180910390f35b610331600480360381019061032c9190611d72565b6109d9565b005b61034d60048036038101906103489190611db2565b6109f7565b005b61036960048036038101906103649190611e3c565b610a17565b005b61038560048036038101906103809190611e69565b610a24565b6040516103929190611c1b565b60405180910390f35b6103a3610a6d565b005b6103bf60048036038101906103ba9190611e69565b610b83565b005b6103c9610cd4565b6040516103d69190611c1b565b60405180910390f35b6103e7610cda565b6040516103f49190611c1b565b60405180910390f35b610405610ce0565b6040516104129190611c1b565b60405180910390f35b610423610ce6565b6040516104309190611ea5565b60405180910390f35b610441610d0f565b60405161044e9190611cc6565b60405180910390f35b61045f610da1565b005b61047b60048036038101906104769190611d72565b610ea4565b6040516104889190611be7565b60405180910390f35b6104ab60048036038101906104a69190611d72565b610f49565b6040516104b89190611be7565b60405180910390f35b6104c9610f60565b6040516104d69190611c1b565b60405180910390f35b6104f960048036038101906104f49190611ff5565b610f66565b005b610503610fc3565b6040516105109190611ea5565b60405180910390f35b610521610fe9565b60405161052e9190611c1b565b60405180910390f35b610551600480360381019061054c9190612078565b610fef565b60405161055e9190611c1b565b60405180910390f35b610581600480360381019061057c91906120b8565b611076565b005b61059d60048036038101906105989190611e69565b6110d1565b005b6105a7611255565b6040516105b49190611c1b565b60405180910390f35b600060076000837bffffffffffffffffffffffffffffffffffffffffffffffffffffffff19167bffffffffffffffffffffffffffffffffffffffffffffffffffffffff1916815260200190815260200160002060009054906101000a900460ff169050919050565b6000804390506000600a54905080821015610645576000925050506107b6565b6000600b5490506000600c5414610746576000610692600c546106846001610676878961125b90919063ffffffff16565b61127190919063ffffffff16565b61128790919063ffffffff16565b90506000600d54146106b457600d5481116106ad57806106b1565b600d545b90505b60005b8181101561074357846106d5600c548661127190919063ffffffff16565b11610743576107016106f2600c548561129d90919063ffffffff16565b8761127190919063ffffffff16565b9550610718600c548561127190919063ffffffff16565b935061072e60028461128790919063ffffffff16565b9250808061073b90612156565b9150506106b7565b50505b6107906107816107726001610764868861125b90919063ffffffff16565b61127190919063ffffffff16565b8361129d90919063ffffffff16565b8561127190919063ffffffff16565b93506000600e54146107b257600e5484116107ab57836107af565b600e545b93505b5050505b90565b6060600180546107c8906121cd565b80601f01602080910402602001604051908101604052809291908181526020018280546107f4906121cd565b80156108415780601f1061081657610100808354040283529160200191610841565b820191906000526020600020905b81548152906001019060200180831161082457829003601f168201915b5050505050905090565b60006108583384846112b3565b6001905092915050565b6000600454905090565b600061087984848461147c565b610912843361090d85600660008a73ffffffffffffffffffffffffffffffffffffffff1673ffffffffffffffffffffffffffffffffffffffff16815260200190815260200160002060003373ffffffffffffffffffffffffffffffffffffffff1673ffffffffffffffffffffffffffffffffffffffff1681526020019081526020016000205461125b90919063ffffffff16565b6112b3565b600190509392505050565b6000600360009054906101000a900460ff16905090565b60006109cf33846109ca85600660003373ffffffffffffffffffffffffffffffffffffffff1673ffffffffffffffffffffffffffffffffffffffff16815260200190815260200160002060008973ffffffffffffffffffffffffffffffffffffffff1673ffffffffffffffffffffffffffffffffffffffff1681526020019081526020016000205461127190919063ffffffff16565b6112b3565b6001905092915050565b6109f3828260405180602001604052806000815250611076565b5050565b610a1283838360405180602001604052806000815250610f66565b505050565b610a2133826116ee565b50565b6000600560008373ffffffffffffffffffffffffffffffffffffffff1673ffffffffffffffffffffffffffffffffffffffff168152602001908152602001600020549050919050565b60008054906101000a900473ffffffffffffffffffffffffffffffffffffffff1673ffffffffffffffffffffffffffffffffffffffff163373ffffffffffffffffffffffffffffffffffffffff1614610ac557600080fd5b600073ffffffffffffffffffffffffffffffffffffffff1660008054906101000a900473ffffffffffffffffffffffffffffffffffffffff1673ffffffffffffffffffffffffffffffffffffffff167f8be0079c531659141344cd1fd0a4f28419497f9722a3daafe3b4186f6b6457e060405160405180910390a360008060006101000a81548173ffffffffffffffffffffffffffffffffffffffff021916908373ffffffffffffffffffffffffffffffffffffffff160217905550565b60008054906101000a900473ffffffffffffffffffffffffffffffffffffffff1673ffffffffffffffffffffffffffffffffffffffff163373ffffffffffffffffffffffffffffffffffffffff1614610bdb57600080fd5b600073ffffffffffffffffffffffffffffffffffffffff168173ffffffffffffffffffffffffffffffffffffffff1603610c1457600080fd5b8073ffffffffffffffffffffffffffffffffffffffff16600860049054906101000a900473ffffffffffffffffffffffffffffffffffffffff1673ffffffffffffffffffffffffffffffffffffffff167f128323376dda10f736641415ad0e5e8a534e184b01a83f1d15af57c4627480d860405160405180910390a380600860046101000a81548173ffffffffffffffffffffffffffffffffffffffff021916908373ffffffffffffffffffffffffffffffffffffffff16021790555050565b600b5481565b600c5481565b600e5481565b60008060009054906101000a900473ffffffffffffffffffffffffffffffffffffffff16905090565b606060028054610d1e906121cd565b80601f0160208091040260200160405190810160405280929190818152602001828054610d4a906121cd565b8015610d975780601f10610d6c57610100808354040283529160200191610d97565b820191906000526020600020905b815481529060010190602001808311610d7a57829003601f168201915b5050505050905090565b600860049054906101000a900473ffffffffffffffffffffffffffffffffffffffff1673ffffffffffffffffffffffffffffffffffffffff163373ffffffffffffffffffffffffffffffffffffffff1614610dfb57600080fd5b6000610e05610625565b90506000610e1e6009548361125b90919063ffffffff16565b905060008103610e2f575050610ea2565b7ff7070fe7c282a2e88088a2050199a6947284d34bbd36dadb61907f5d4d983ef28160095484604051610e64939291906121fe565b60405180910390a181600981905550610e9f600860049054906101000a900473ffffffffffffffffffffffffffffffffffffffff1682611877565b50505b565b6000610f3f3384610f3a85600660003373ffffffffffffffffffffffffffffffffffffffff1673ffffffffffffffffffffffffffffffffffffffff16815260200190815260200160002060008973ffffffffffffffffffffffffffffffffffffffff1673ffffffffffffffffffffffffffffffffffffffff1681526020019081526020016000205461125b90919063ffffffff16565b6112b3565b6001905092915050565b6000610f5633848461147c565b6001905092915050565b60095481565b610f7184848461086c565b50610f7e84848484611a00565b610fbd576040517f08c379a0000000000000000000000000000000000000000000000000000000008152600401610fb4906122a7565b60405180910390fd5b50505050565b600860049054906101000a900473ffffffffffffffffffffffffffffffffffffffff1681565b600d5481565b6000600660008473ffffffffffffffffffffffffffffffffffffffff1673ffffffffffffffffffffffffffffffffffffffff16815260200190815260200160002060008373ffffffffffffffffffffffffffffffffffffffff1673ffffffffffffffffffffffffffffffffffffffff16815260200190815260200160002054905092915050565b6110808383610f49565b5061108d33848484611a00565b6110cc576040517f08c379a00000000000000000000000000000000000000000000000000000000081526004016110c3906122a7565b60405180910390fd5b505050565b60008054906101000a900473ffffffffffffffffffffffffffffffffffffffff1673ffffffffffffffffffffffffffffffffffffffff163373ffffffffffffffffffffffffffffffffffffffff161461112957600080fd5b600073ffffffffffffffffffffffffffffffffffffffff168173ffffffffffffffffffffffffffffffffffffffff1603611198576040517f08c379a000000000000000000000000000000000000000000000000000000000815260040161118f90612339565b60405180910390fd5b8073ffffffffffffffffffffffffffffffffffffffff1660008054906101000a900473ffffffffffffffffffffffffffffffffffffffff1673ffffffffffffffffffffffffffffffffffffffff167f8be0079c531659141344cd1fd0a4f28419497f9722a3daafe3b4186f6b6457e060405160405180910390a3806000806101000a81548173ffffffffffffffffffffffffffffffffffffffff021916908373ffffffffffffffffffffffffffffffffffffffff16021790555050565b600a5481565b600081836112699190612359565b905092915050565b6000818361127f919061238d565b905092915050565b6000818361129591906123f0565b905092915050565b600081836112ab9190612421565b905092915050565b600073ffffffffffffffffffffffffffffffffffffffff168373ffffffffffffffffffffffffffffffffffffffff1603611322576040517f08c379a0000000000000000000000000000000000000000000000000000000008152600401611319906124d5565b60405180910390fd5b600073ffffffffffffffffffffffffffffffffffffffff168273ffffffffffffffffffffffffffffffffffffffff1603611391576040517f08c379a000000000000000000000000000000000000000000000000000000000815260040161138890612567565b60405180910390fd5b80600660008573ffffffffffffffffffffffffffffffffffffffff1673ffffffffffffffffffffffffffffffffffffffff16815260200190815260200160002060008473ffffffffffffffffffffffffffffffffffffffff1673ffffffffffffffffffffffffffffffffffffffff168152602001908152602001600020819055508173ffffffffffffffffffffffffffffffffffffffff168373ffffffffffffffffffffffffffffffffffffffff167f8c5be1e5ebec7d5bd14f71427d1e84f3dd0314c0f7b2291e5b200ac8c7c3b9258360405161146f9190611c1b565b60405180910390a3505050565b600073ffffffffffffffffffffffffffffffffffffffff168373ffffffffffffffffffffffffffffffffffffffff16036114eb576040517f08c379a00000000000000000000000000000000000000000000000000000000081526004016114e2906125f9565b60405180910390fd5b600073ffffffffffffffffffffffffffffffffffffffff168273ffffffffffffffffffffffffffffffffffffffff160361155a576040517f08c379a00000000000000000000000000000000000000000000000000000000081526004016115519061268b565b60405180910390fd5b6115ac81600560008673ffffffffffffffffffffffffffffffffffffffff1673ffffffffffffffffffffffffffffffffffffffff1681526020019081526020016000205461125b90919063ffffffff16565b600560008573ffffffffffffffffffffffffffffffffffffffff1673ffffffffffffffffffffffffffffffffffffffff1681526020019081526020016000208190555061164181600560008573ffffffffffffffffffffffffffffffffffffffff1673ffffffffffffffffffffffffffffffffffffffff1681526020019081526020016000205461127190919063ffffffff16565b600560008473ffffffffffffffffffffffffffffffffffffffff1673ffffffffffffffffffffffffffffffffffffffff168152602001908152602001600020819055508173ffffffffffffffffffffffffffffffffffffffff168373ffffffffffffffffffffffffffffffffffffffff167fddf252ad1be2c89b69c2b068fc378daa952ba7f163c4a11628f55a4df523b3ef836040516116e19190611c1b565b60405180910390a3505050565b600073ffffffffffffffffffffffffffffffffffffffff168273ffffffffffffffffffffffffffffffffffffffff160361175d576040517f08c379a0000000000000000000000000000000000000000000000000000000008152600401611754906126f7565b60405180910390fd5b6117728160045461125b90919063ffffffff16565b6004819055506117ca81600560008573ffffffffffffffffffffffffffffffffffffffff1673ffffffffffffffffffffffffffffffffffffffff1681526020019081526020016000205461125b90919063ffffffff16565b600560008473ffffffffffffffffffffffffffffffffffffffff1673ffffffffffffffffffffffffffffffffffffffff16815260200190815260200160002081905550600073ffffffffffffffffffffffffffffffffffffffff168273ffffffffffffffffffffffffffffffffffffffff167fddf252ad1be2c89b69c2b068fc378daa952ba7f163c4a11628f55a4df523b3ef8360405161186b9190611c1b565b60405180910390a35050565b600073ffffffffffffffffffffffffffffffffffffffff168273ffffffffffffffffffffffffffffffffffffffff16036118e6576040517f08c379a00000000000000000000000000000000000000000000000000000000081526004016118dd90612763565b60405180910390fd5b6118fb8160045461127190919063ffffffff16565b60048190555061195381600560008573ffffffffffffffffffffffffffffffffffffffff1673ffffffffffffffffffffffffffffffffffffffff1681526020019081526020016000205461127190919063ffffffff16565b600560008473ffffffffffffffffffffffffffffffffffffffff1673ffffffffffffffffffffffffffffffffffffffff168152602001908152602001600020819055508173ffffffffffffffffffffffffffffffffffffffff16600073ffffffffffffffffffffffffffffffffffffffff167fddf252ad1be2c89b69c2b068fc378daa952ba7f163c4a11628f55a4df523b3ef836040516119f49190611c1b565b60405180910390a35050565b6000611a218473ffffffffffffffffffffffffffffffffffffffff16611b10565b611a2e5760019050611b08565b60008473ffffffffffffffffffffffffffffffffffffffff16639d188c22338887876040518563ffffffff1660e01b8152600401611a6f94939291906127d8565b6020604051808303816000875af1158015611a8e573d6000803e3d6000fd5b505050506040513d601f19601f82011682018060405250810190611ab29190612839565b9050600860009054906101000a900460e01b7bffffffffffffffffffffffffffffffffffffffffffffffffffffffff1916817bffffffffffffffffffffffffffffffffffffffffffffffffffffffff1916149150505b949350505050565b6000808273ffffffffffffffffffffffffffffffffffffffff163b119050919050565b6000604051905090565b600080fd5b600080fd5b60007fffffffff0000000000000000000000000000000000000000000000000000000082169050919050565b611b7c81611b47565b8114611b8757600080fd5b50565b600081359050611b9981611b73565b92915050565b600060208284031215611bb557611bb4611b3d565b5b6000611bc384828501611b8a565b91505092915050565b60008115159050919050565b611be181611bcc565b82525050565b6000602082019050611bfc6000830184611bd8565b92915050565b6000819050919050565b611c1581611c02565b82525050565b6000602082019050611c306000830184611c0c565b92915050565b600081519050919050565b600082825260208201905092915050565b60005b83811015611c70578082015181840152602081019050611c55565b60008484015250505050565b6000601f19601f8301169050919050565b6000611c9882611c36565b611ca28185611c41565b9350611cb2818560208601611c52565b611cbb81611c7c565b840191505092915050565b60006020820190508181036000830152611ce08184611c8d565b905092915050565b600073ffffffffffffffffffffffffffffffffffffffff82169050919050565b6000611d1382611ce8565b9050919050565b611d2381611d08565b8114611d2e57600080fd5b50565b600081359050611d4081611d1a565b92915050565b611d4f81611c02565b8114611d5a57600080fd5b50565b600081359050611d6c81611d46565b92915050565b60008060408385031215611d8957611d88611b3d565b5b6000611d9785828601611d31565b9250506020611da885828601611d5d565b9150509250929050565b600080600060608486031215611dcb57611dca611b3d565b5b6000611dd986828701611d31565b9350506020611dea86828701611d31565b9250506040611dfb86828701611d5d565b9150509250925092565b600060ff82169050919050565b611e1b81611e05565b82525050565b6000602082019050611e366000830184611e12565b92915050565b600060208284031215611e5257611e51611b3d565b5b6000611e6084828501611d5d565b91505092915050565b600060208284031215611e7f57611e7e611b3d565b5b6000611e8d84828501611d31565b91505092915050565b611e9f81611d08565b82525050565b6000602082019050611eba6000830184611e96565b92915050565b600080fd5b600080fd5b7f4e487b7100000000000000000000000000000000000000000000000000000000600052604160045260246000fd5b611f0282611c7c565b810181811067ffffffffffffffff82111715611f2157611f20611eca565b5b80604052505050565b6000611f34611b33565b9050611f408282611ef9565b919050565b600067ffffffffffffffff821115611f6057611f5f611eca565b5b611f6982611c7c565b9050602081019050919050565b82818337600083830152505050565b6000611f98611f9384611f45565b611f2a565b905082815260208101848484011115611fb457611fb3611ec5565b5b611fbf848285611f76565b509392505050565b600082601f830112611fdc57611fdb611ec0565b5b8135611fec848260208601611f85565b91505092915050565b6000806000806080858703121561200f5761200e611b3d565b5b600061201d87828801611d31565b945050602061202e87828801611d31565b935050604061203f87828801611d5d565b925050606085013567ffffffffffffffff8111156120605761205f611b42565b5b61206c87828801611fc7565b91505092959194509250565b6000806040838503121561208f5761208e611b3d565b5b600061209d85828601611d31565b92505060206120ae85828601611d31565b9150509250929050565b6000806000606084860312156120d1576120d0611b3d565b5b60006120df86828701611d31565b93505060206120f086828701611d5d565b925050604084013567ffffffffffffffff81111561211157612110611b42565b5b61211d86828701611fc7565b9150509250925092565b7f4e487b7100000000000000000000000000000000000000000000000000000000600052601160045260246000fd5b600061216182611c02565b91507fffffffffffffffffffffffffffffffffffffffffffffffffffffffffffffffff820361219357612192612127565b5b600182019050919050565b7f4e487b7100000000000000000000000000000000000000000000000000000000600052602260045260246000fd5b600060028204905060018216806121e557607f821691505b6020821081036121f8576121f761219e565b5b50919050565b60006060820190506122136000830186611c0c565b6122206020830185611c0c565b61222d6040830184611c0c565b949350505050565b7f4b4950373a207472616e7366657220746f206e6f6e204b49503752656365697660008201527f657220696d706c656d656e746572000000000000000000000000000000000000602082015250565b6000612291602e83611c41565b915061229c82612235565b604082019050919050565b600060208201905081810360008301526122c081612284565b9050919050565b7f4f776e61626c653a206e6577206f776e657220697320746865207a65726f206160008201527f6464726573730000000000000000000000000000000000000000000000000000602082015250565b6000612323602683611c41565b915061232e826122c7565b604082019050919050565b6000602082019050818103600083015261235281612316565b9050919050565b600061236482611c02565b915061236f83611c02565b925082820390508181111561238757612386612127565b5b92915050565b600061239882611c02565b91506123a383611c02565b92508282019050808211156123bb576123ba612127565b5b92915050565b7f4e487b7100000000000000000000000000000000000000000000000000000000600052601260045260246000fd5b60006123fb82611c02565b915061240683611c02565b925082612416576124156123c1565b5b828204905092915050565b600061242c82611c02565b915061243783611c02565b925082820261244581611c02565b9150828204841483151761245c5761245b612127565b5b5092915050565b7f4b4950373a20617070726f76652066726f6d20746865207a65726f206164647260008201527f6573730000000000000000000000000000000000000000000000000000000000602082015250565b60006124bf602383611c41565b91506124ca82612463565b604082019050919050565b600060208201905081810360008301526124ee816124b2565b9050919050565b7f4b4950373a20617070726f766520746f20746865207a65726f2061646472657360008201527f7300000000000000000000000000000000000000000000000000000000000000602082015250565b6000612551602183611c41565b915061255c826124f5565b604082019050919050565b6000602082019050818103600083015261258081612544565b9050919050565b7f4b4950373a207472616e736665722066726f6d20746865207a65726f2061646460008201527f7265737300000000000000000000000000000000000000000000000000000000602082015250565b60006125e3602483611c41565b91506125ee82612587565b604082019050919050565b60006020820190508181036000830152612612816125d6565b9050919050565b7f4b4950373a207472616e7366657220746f20746865207a65726f20616464726560008201527f7373000000000000000000000000000000000000000000000000000000000000602082015250565b6000612675602283611c41565b915061268082612619565b604082019050919050565b600060208201905081810360008301526126a481612668565b9050919050565b7f4b4950373a206275726e2066726f6d20746865207a65726f2061646472657373600082015250565b60006126e1602083611c41565b91506126ec826126ab565b602082019050919050565b60006020820190508181036000830152612710816126d4565b9050919050565b7f4b4950373a206d696e7420746f20746865207a65726f20616464726573730000600082015250565b600061274d601e83611c41565b915061275882612717565b602082019050919050565b6000602082019050818103600083015261277c81612740565b9050919050565b600081519050919050565b600082825260208201905092915050565b60006127aa82612783565b6127b4818561278e565b93506127c4818560208601611c52565b6127cd81611c7c565b840191505092915050565b60006080820190506127ed6000830187611e96565b6127fa6020830186611e96565b6128076040830185611c0c565b8181036060830152612819818461279f565b905095945050505050565b60008151905061283381611b73565b92915050565b60006020828403121561284f5761284e611b3d565b5b600061285d84828501612824565b9150509291505056fea26469706673582212202fe5f2303d8f28d6324ebcddb76a767d21cfaa12aea4fc90c228a052513d4b0564736f6c63430008130033",
  "immutableReferences": {},
  "source": "// SPDX-License-Identifier: MIT\r\npragma solidity ^0.8.0;\r\n\r\nimport \"@openzeppelin/contracts/utils/Address.sol\";\r\nimport \"@openzeppelin/contracts/utils/math/SafeMath.sol\";\r\ninterface IKIP7Receiver {\r\n    function onKIP7Received(address _operator, address _from, uint256 _amount, bytes calldata _data) external returns (bytes4);\r\n}\r\n\r\ncontract KIP7TokenBase {\r\n    using SafeMath for uint256;\r\n    using Address for address;\r\n\r\n    event Transfer(address indexed from, address indexed to, uint256 value);\r\n    event Approval(address indexed owner, address indexed spender, uint256 value);\r\n\r\n    address private _owner;\r\n\r\n    string private _name;\r\n    string private _symbol;\r\n    uint8 private _decimals = 18;\r\n    uint256 private _totalSupply;\r\n\r\n    mapping (address => uint256) private _balances;\r\n    mapping (address => mapping (address => uint256)) private _allowances;\r\n    mapping (bytes4 => bool) private _supportedInterfaces;\r\n\r\n    bytes4 private _KIP7_RECEIVED = 0x9d188c22;\r\n    bytes4 private constant _INTERFACE_ID_KIP13 = 0x01ffc9a7;\r\n    bytes4 private constant _INTERFACE_ID_KIP7 = 0x65787371;\r\n    bytes4 private constant _INTERFACE_ID_KIP7_METADATA = 0xa219a025;\r\n    bytes4 private constant _INTERFACE_ID_KIP7BURNABLE = 0x3b5a0bf8;\r\n\r\n    // ======== mining ========\r\n    address public distributor;\r\n    uint256 public lastMined;\r\n    uint256 public minableBlock;\r\n\r\n    uint256 public blockAmount;\r\n\r\n    uint256 public halfLife;\r\n    uint256 public halving;\r\n    uint256 public miningAmount;\r\n\r\n    constructor(\r\n        string memory newName, // \r\n        string memory newSymbol, // \r\n        uint256 _minableBlock, //   \r\n        uint256 _blockAmount, //   1MBT = 1000000000000000000\r\n        uint256 _halfLife, //    \r\n        uint256 _halving, //  \r\n        uint256 _miningAmount, //   1MBT = 1000000000000000000 \r\n        address initialSupplyClaimer, //     \r\n        uint256 initialSupply //    1MBT = 1000000000000000000\r\n    ) {\r\n        _registerInterface(_INTERFACE_ID_KIP13);\r\n        _registerInterface(_INTERFACE_ID_KIP7);\r\n        _registerInterface(_INTERFACE_ID_KIP7_METADATA);\r\n        _registerInterface(_INTERFACE_ID_KIP7BURNABLE);\r\n\r\n        _owner = msg.sender;\r\n        _name = newName;\r\n        _symbol = newSymbol;\r\n\r\n        require(_minableBlock > block.number); //       \r\n        minableBlock = _minableBlock;\r\n\r\n        require(_blockAmount != 0);\r\n        blockAmount = _blockAmount;\r\n\r\n        halfLife = _halfLife;\r\n        halving = _halving;\r\n        miningAmount = _miningAmount;\r\n\r\n        if(initialSupplyClaimer != address(0) && initialSupply != 0)\r\n            _mint(initialSupplyClaimer, initialSupply);\r\n    }\r\n    ///////////////////////// ownable /////////////////////////\r\n    modifier onlyOwner {\r\n        require(msg.sender == _owner);\r\n        _;\r\n    }\r\n\r\n    function owner() public view returns (address) {\r\n        return _owner;\r\n    }\r\n\r\n    event OwnershipTransferred(address indexed previousOwner, address indexed newOwner);\r\n    function renounceOwnership() public onlyOwner {\r\n        emit OwnershipTransferred(_owner, address(0));\r\n        _owner = address(0);\r\n    }\r\n\r\n    function transferOwnership(address newOwner) public onlyOwner {\r\n        require(newOwner != address(0), \"Ownable: new owner is the zero address\");\r\n        emit OwnershipTransferred(_owner, newOwner);\r\n        _owner = newOwner;\r\n    }\r\n\r\n    event SetDistributor(address indexed previousDistributor, address indexed newDistributor);\r\n    function setDistributor(address _distributor) public onlyOwner {\r\n        require(_distributor != address(0));\r\n        emit SetDistributor(distributor, _distributor);\r\n        distributor = _distributor;\r\n    }\r\n    ///////////////////////////////////////////////////////////\r\n\r\n    ///////////////////////// mining /////////////////////////\r\n    function mined() public view returns (uint256 res) {\r\n        uint256 endBlock = block.number;\r\n        uint256 startBlock = minableBlock;\r\n        if (endBlock < startBlock) return 0;\r\n\r\n        uint blockAmt = blockAmount;\r\n\r\n        if(halfLife != 0){\r\n            uint256 level = ((endBlock.sub(startBlock)).add(1)).div(halfLife);\r\n            if(halving != 0) level = level > halving ? halving : level;\r\n\r\n            for(uint256 i = 0; i < level; i++){\r\n                if(startBlock.add(halfLife) > endBlock) break;\r\n\r\n                res = res.add(blockAmt.mul(halfLife));\r\n                startBlock = startBlock.add(halfLife);\r\n                blockAmt = blockAmt.div(2);\r\n            }\r\n        }\r\n\r\n        res = res.add(blockAmt.mul((endBlock.sub(startBlock)).add(1)));\r\n        if(miningAmount != 0) res = res > miningAmount ? miningAmount : res;\r\n    }\r\n\r\n    modifier onlyDistributor {\r\n        require(msg.sender == distributor);\r\n        _;\r\n    }\r\n\r\n    event Mine(uint256 thisMined, uint256 lastMined, uint256 curMined);\r\n    function mine() public onlyDistributor {\r\n        uint256 curMined = mined(); \r\n        uint256 thisMined = curMined.sub(lastMined);\r\n        if(thisMined == 0) return;\r\n\r\n        emit Mine(thisMined, lastMined, curMined);\r\n\r\n        lastMined = curMined;\r\n        _mint(distributor, thisMined);\r\n    }\r\n    //////////////////////////////////////////////////////////\r\n\r\n    ////////////////////// KIP7 Standard //////////////////////\r\n    function supportsInterface(bytes4 interfaceId) external view returns (bool) {\r\n        return _supportedInterfaces[interfaceId];\r\n    }\r\n\r\n    function name() public view returns (string memory) {\r\n        return _name;\r\n    }\r\n\r\n    function symbol() public view returns (string memory) {\r\n        return _symbol;\r\n    }\r\n\r\n    function decimals() external view returns (uint8) {\r\n        return _decimals;\r\n    }\r\n\r\n    function totalSupply() public view returns (uint256) {\r\n        return _totalSupply;\r\n    }\r\n\r\n    function balanceOf(address account) public view returns (uint256) {\r\n        return _balances[account];\r\n    }\r\n\r\n    function transfer(address recipient, uint256 amount) public returns (bool) {\r\n        _transfer(msg.sender, recipient, amount);\r\n        return true;\r\n    }\r\n\r\n    function allowance(address owner_, address spender) public view returns (uint256) {\r\n        return _allowances[owner_][spender];\r\n    }\r\n\r\n    function approve(address spender, uint256 value) public returns (bool) {\r\n        _approve(msg.sender, spender, value);\r\n        return true;\r\n    }\r\n\r\n    function increaseAllowance(address spender, uint256 addedValue) public returns (bool) {\r\n        _approve(msg.sender, spender, _allowances[msg.sender][spender].add(addedValue));\r\n        return true;\r\n    }\r\n\r\n    function decreaseAllowance(address spender, uint256 subtractedValue) public returns (bool) {\r\n        _approve(msg.sender, spender, _allowances[msg.sender][spender].sub(subtractedValue));\r\n        return true;\r\n    }\r\n\r\n    function transferFrom(address sender, address recipient, uint256 amount) public returns (bool) {\r\n        _transfer(sender, recipient, amount);\r\n        _approve(sender, msg.sender, _allowances[sender][msg.sender].sub(amount));\r\n        return true;\r\n    }\r\n\r\n    function safeTransfer(address recipient, uint256 amount) public {\r\n        safeTransfer(recipient, amount, \"\");\r\n    }\r\n\r\n    function safeTransfer(address recipient, uint256 amount, bytes memory data) public {\r\n        transfer(recipient, amount);\r\n        require(_checkOnKIP7Received(msg.sender, recipient, amount, data), \"KIP7: transfer to non KIP7Receiver implementer\");\r\n    }\r\n\r\n    function safeTransferFrom(address sender, address recipient, uint256 amount) public {\r\n        safeTransferFrom(sender, recipient, amount, \"\");\r\n    }\r\n\r\n    function safeTransferFrom(address sender, address recipient, uint256 amount, bytes memory data) public {\r\n        transferFrom(sender, recipient, amount);\r\n        require(_checkOnKIP7Received(sender, recipient, amount, data), \"KIP7: transfer to non KIP7Receiver implementer\");\r\n    }\r\n\r\n    function burn(uint256 amount) public {\r\n        _burn(msg.sender, amount);\r\n    }\r\n\r\n    function _transfer(address sender, address recipient, uint256 amount) internal {\r\n        require(sender != address(0), \"KIP7: transfer from the zero address\");\r\n        require(recipient != address(0), \"KIP7: transfer to the zero address\");\r\n\r\n        _balances[sender] = _balances[sender].sub(amount);\r\n        _balances[recipient] = _balances[recipient].add(amount);\r\n        emit Transfer(sender, recipient, amount);\r\n    }\r\n\r\n    function _mint(address account, uint256 amount) internal {\r\n        require(account != address(0), \"KIP7: mint to the zero address\");\r\n\r\n        _totalSupply = _totalSupply.add(amount);\r\n        _balances[account] = _balances[account].add(amount);\r\n        emit Transfer(address(0), account, amount);\r\n    }\r\n\r\n    function _burn(address account, uint256 value) internal {\r\n        require(account != address(0), \"KIP7: burn from the zero address\");\r\n\r\n        _totalSupply = _totalSupply.sub(value);\r\n        _balances[account] = _balances[account].sub(value);\r\n        emit Transfer(account, address(0), value);\r\n    }\r\n\r\n    function _approve(address owner_, address spender, uint256 value) internal {\r\n        require(owner_ != address(0), \"KIP7: approve from the zero address\");\r\n        require(spender != address(0), \"KIP7: approve to the zero address\");\r\n\r\n        _allowances[owner_][spender] = value;\r\n        emit Approval(owner_, spender, value);\r\n    }\r\n\r\n    function _checkOnKIP7Received(address sender, address recipient, uint256 amount, bytes memory _data)\r\n        internal returns (bool)\r\n    {\r\n        if (!recipient.isContract()) {\r\n            return true;\r\n        }\r\n\r\n        bytes4 retval = IKIP7Receiver(recipient).onKIP7Received(msg.sender, sender, amount, _data);\r\n        return (retval == _KIP7_RECEIVED);\r\n    }\r\n\r\n    function _registerInterface(bytes4 interfaceId) internal {\r\n        require(interfaceId != 0xffffffff, \"KIP13: invalid interface id\");\r\n        _supportedInterfaces[interfaceId] = true;\r\n    }\r\n    ///////////////////////////////////////////////////////////\r\n}\r\n",
  "sourcePath": "C:\\git\\web3.0-general\\SmartContractRepo\\contracts\\KIP7TokenBase.sol",
  "compiler": {
    "name": "solc",
    "version": "0.8.19+commit.7dd6d404.Emscripten.clang"
  },
  "schemaVersion": "3.4.13",
  "updatedAt": "2023-03-28T07:39:30.845Z",
  "devdoc": {
    "kind": "dev",
    "methods": {},
    "version": 1
  },
  "userdoc": {
    "kind": "user",
    "methods": {},
    "version": 1
  }
}