{
  "contractName": "SpendingManager",
  "abi": [
    {
      "inputs": [],
      "stateMutability": "nonpayable",
      "type": "constructor"
    },
    {
      "anonymous": false,
      "inputs": [
        {
          "indexed": false,
          "internalType": "address",
          "name": "operator",
          "type": "address"
        },
        {
          "indexed": false,
          "internalType": "address",
          "name": "from",
          "type": "address"
        },
        {
          "indexed": false,
          "internalType": "uint256",
          "name": "tokenId",
          "type": "uint256"
        },
        {
          "indexed": false,
          "internalType": "bytes",
          "name": "data",
          "type": "bytes"
        },
        {
          "indexed": false,
          "internalType": "uint256",
          "name": "gas",
          "type": "uint256"
        }
      ],
      "name": "ERC721Received",
      "type": "event"
    },
    {
      "anonymous": false,
      "inputs": [
        {
          "indexed": false,
          "internalType": "address",
          "name": "operator",
          "type": "address"
        },
        {
          "indexed": false,
          "internalType": "address",
          "name": "from",
          "type": "address"
        },
        {
          "indexed": false,
          "internalType": "uint256",
          "name": "tokenId",
          "type": "uint256"
        },
        {
          "indexed": false,
          "internalType": "bytes",
          "name": "data",
          "type": "bytes"
        },
        {
          "indexed": false,
          "internalType": "uint256",
          "name": "gas",
          "type": "uint256"
        }
      ],
      "name": "KIP17Received",
      "type": "event"
    },
    {
      "anonymous": false,
      "inputs": [
        {
          "indexed": true,
          "internalType": "address",
          "name": "previousOwner",
          "type": "address"
        },
        {
          "indexed": true,
          "internalType": "address",
          "name": "newOwner",
          "type": "address"
        }
      ],
      "name": "OwnershipTransferred",
      "type": "event"
    },
    {
      "inputs": [
        {
          "internalType": "address",
          "name": "",
          "type": "address"
        }
      ],
      "name": "chainBalances",
      "outputs": [
        {
          "internalType": "uint256",
          "name": "",
          "type": "uint256"
        }
      ],
      "stateMutability": "view",
      "type": "function"
    },
    {
      "inputs": [
        {
          "internalType": "address",
          "name": "",
          "type": "address"
        }
      ],
      "name": "nftBalances",
      "outputs": [
        {
          "internalType": "uint256",
          "name": "",
          "type": "uint256"
        }
      ],
      "stateMutability": "view",
      "type": "function"
    },
    {
      "inputs": [],
      "name": "owner",
      "outputs": [
        {
          "internalType": "address",
          "name": "",
          "type": "address"
        }
      ],
      "stateMutability": "view",
      "type": "function"
    },
    {
      "inputs": [],
      "name": "renounceOwnership",
      "outputs": [],
      "stateMutability": "nonpayable",
      "type": "function"
    },
    {
      "inputs": [
        {
          "internalType": "address",
          "name": "",
          "type": "address"
        },
        {
          "internalType": "address",
          "name": "",
          "type": "address"
        }
      ],
      "name": "tokenBalances",
      "outputs": [
        {
          "internalType": "uint256",
          "name": "",
          "type": "uint256"
        }
      ],
      "stateMutability": "view",
      "type": "function"
    },
    {
      "inputs": [
        {
          "internalType": "address",
          "name": "newOwner",
          "type": "address"
        }
      ],
      "name": "transferOwnership",
      "outputs": [],
      "stateMutability": "nonpayable",
      "type": "function"
    },
    {
      "inputs": [],
      "name": "deposit",
      "outputs": [],
      "stateMutability": "payable",
      "type": "function"
    },
    {
      "inputs": [
        {
          "internalType": "address",
          "name": "tokenAddress",
          "type": "address"
        },
        {
          "internalType": "uint256",
          "name": "amount",
          "type": "uint256"
        }
      ],
      "name": "depositToken",
      "outputs": [],
      "stateMutability": "nonpayable",
      "type": "function"
    },
    {
      "inputs": [
        {
          "internalType": "address",
          "name": "nftAddress",
          "type": "address"
        },
        {
          "internalType": "uint256",
          "name": "tokenId",
          "type": "uint256"
        }
      ],
      "name": "depositNFT",
      "outputs": [],
      "stateMutability": "nonpayable",
      "type": "function"
    },
    {
      "inputs": [
        {
          "internalType": "uint256",
          "name": "amount",
          "type": "uint256"
        }
      ],
      "name": "withdraw",
      "outputs": [],
      "stateMutability": "nonpayable",
      "type": "function"
    },
    {
      "inputs": [
        {
          "internalType": "address",
          "name": "tokenAddress",
          "type": "address"
        },
        {
          "internalType": "uint256",
          "name": "amount",
          "type": "uint256"
        }
      ],
      "name": "withdrawToken",
      "outputs": [],
      "stateMutability": "nonpayable",
      "type": "function"
    },
    {
      "inputs": [
        {
          "internalType": "address",
          "name": "nftAddress",
          "type": "address"
        },
        {
          "internalType": "uint256",
          "name": "tokenId",
          "type": "uint256"
        }
      ],
      "name": "withdrawNFT",
      "outputs": [],
      "stateMutability": "nonpayable",
      "type": "function"
    },
    {
      "inputs": [
        {
          "internalType": "address",
          "name": "user",
          "type": "address"
        }
      ],
      "name": "getChainBalance",
      "outputs": [
        {
          "internalType": "uint256",
          "name": "",
          "type": "uint256"
        }
      ],
      "stateMutability": "view",
      "type": "function"
    },
    {
      "inputs": [
        {
          "internalType": "address",
          "name": "user",
          "type": "address"
        },
        {
          "internalType": "address",
          "name": "tokenAddress",
          "type": "address"
        }
      ],
      "name": "getTokenBalance",
      "outputs": [
        {
          "internalType": "uint256",
          "name": "",
          "type": "uint256"
        }
      ],
      "stateMutability": "view",
      "type": "function"
    },
    {
      "inputs": [
        {
          "internalType": "address",
          "name": "user",
          "type": "address"
        }
      ],
      "name": "getNFTBalance",
      "outputs": [
        {
          "internalType": "uint256",
          "name": "",
          "type": "uint256"
        }
      ],
      "stateMutability": "view",
      "type": "function"
    },
    {
      "inputs": [
        {
          "internalType": "address",
          "name": "operator",
          "type": "address"
        },
        {
          "internalType": "address",
          "name": "from",
          "type": "address"
        },
        {
          "internalType": "uint256",
          "name": "tokenId",
          "type": "uint256"
        },
        {
          "internalType": "bytes",
          "name": "data",
          "type": "bytes"
        }
      ],
      "name": "onKIP17Received",
      "outputs": [
        {
          "internalType": "bytes4",
          "name": "",
          "type": "bytes4"
        }
      ],
      "stateMutability": "nonpayable",
      "type": "function"
    },
    {
      "inputs": [
        {
          "internalType": "address",
          "name": "operator",
          "type": "address"
        },
        {
          "internalType": "address",
          "name": "from",
          "type": "address"
        },
        {
          "internalType": "uint256",
          "name": "tokenId",
          "type": "uint256"
        },
        {
          "internalType": "bytes",
          "name": "data",
          "type": "bytes"
        }
      ],
      "name": "onERC721Received",
      "outputs": [
        {
          "internalType": "bytes4",
          "name": "",
          "type": "bytes4"
        }
      ],
      "stateMutability": "nonpayable",
      "type": "function"
    }
  ],
  "bytecode": "0x608060405234801561001057600080fd5b5061002d61002261003260201b60201c565b61003a60201b60201c565b6100fe565b600033905090565b60008060009054906101000a900473ffffffffffffffffffffffffffffffffffffffff169050816000806101000a81548173ffffffffffffffffffffffffffffffffffffffff021916908373ffffffffffffffffffffffffffffffffffffffff1602179055508173ffffffffffffffffffffffffffffffffffffffff168173ffffffffffffffffffffffffffffffffffffffff167f8be0079c531659141344cd1fd0a4f28419497f9722a3daafe3b4186f6b6457e060405160405180910390a35050565b611dc48061010d6000396000f3fe6080604052600436106100fe5760003560e01c8063715018a611610095578063b292bd4d11610064578063b292bd4d14610343578063bf8ebd8514610380578063c489744b146103bd578063d0e30db0146103fa578063f2fde38b14610404576100fe565b8063715018a6146102af5780638da5cb5b146102c65780639b5b9b18146102f15780639e281a981461031a576100fe565b8063338b5dea116100d1578063338b5dea146101e35780634dbf6c5a1461020c5780636088e93a146102495780636745782b14610272576100fe565b8063150b7a02146101035780632e16c2e2146101405780632e1a7d4d1461017d57806330a355cd146101a6575b600080fd5b34801561010f57600080fd5b5061012a6004803603810190610125919061144a565b61042d565b6040516101379190611508565b60405180910390f35b34801561014c57600080fd5b5061016760048036038101906101629190611523565b610480565b604051610174919061155f565b60405180910390f35b34801561018957600080fd5b506101a4600480360381019061019f919061157a565b6104c9565b005b3480156101b257600080fd5b506101cd60048036038101906101c89190611523565b6105f1565b6040516101da919061155f565b60405180910390f35b3480156101ef57600080fd5b5061020a600480360381019061020591906115a7565b610609565b005b34801561021857600080fd5b50610233600480360381019061022e91906115e7565b6106d3565b604051610240919061155f565b60405180910390f35b34801561025557600080fd5b50610270600480360381019061026b91906115a7565b6106f8565b005b34801561027e57600080fd5b506102996004803603810190610294919061144a565b61084b565b6040516102a69190611508565b60405180910390f35b3480156102bb57600080fd5b506102c461089e565b005b3480156102d257600080fd5b506102db6108b2565b6040516102e89190611636565b60405180910390f35b3480156102fd57600080fd5b50610318600480360381019061031391906115a7565b6108db565b005b34801561032657600080fd5b50610341600480360381019061033c91906115a7565b6109ab565b005b34801561034f57600080fd5b5061036a60048036038101906103659190611523565b610b32565b604051610377919061155f565b60405180910390f35b34801561038c57600080fd5b506103a760048036038101906103a29190611523565b610b4a565b6040516103b4919061155f565b60405180910390f35b3480156103c957600080fd5b506103e460048036038101906103df91906115e7565b610b93565b6040516103f1919061155f565b60405180910390f35b610402610c1a565b005b34801561041057600080fd5b5061042b60048036038101906104269190611523565b610cec565b005b60007fad2dcd3df147b4263de137b64b66a40d39067dd871687fb64c9edb603975b028858585855a6040516104669594939291906116d0565b60405180910390a163150b7a0260e01b9050949350505050565b6000600160008373ffffffffffffffffffffffffffffffffffffffff1673ffffffffffffffffffffffffffffffffffffffff168152602001908152602001600020549050919050565b80600160003373ffffffffffffffffffffffffffffffffffffffff1673ffffffffffffffffffffffffffffffffffffffff16815260200190815260200160002054101561054b576040517f08c379a000000000000000000000000000000000000000000000000000000000815260040161054290611787565b60405180910390fd5b80600160003373ffffffffffffffffffffffffffffffffffffffff1673ffffffffffffffffffffffffffffffffffffffff168152602001908152602001600020600082825461059a91906117d6565b9250508190555060003390508073ffffffffffffffffffffffffffffffffffffffff166108fc839081150290604051600060405180830381858888f193505050501580156105ec573d6000803e3d6000fd5b505050565b60016020528060005260406000206000915090505481565b600082905061063b3330848473ffffffffffffffffffffffffffffffffffffffff16610d6f909392919063ffffffff16565b81600260003373ffffffffffffffffffffffffffffffffffffffff1673ffffffffffffffffffffffffffffffffffffffff16815260200190815260200160002060008573ffffffffffffffffffffffffffffffffffffffff1673ffffffffffffffffffffffffffffffffffffffff16815260200190815260200160002060008282546106c7919061180a565b92505081905550505050565b6002602052816000526040600020602052806000526040600020600091509150505481565b6001600360003373ffffffffffffffffffffffffffffffffffffffff1673ffffffffffffffffffffffffffffffffffffffff16815260200190815260200160002054101561077b576040517f08c379a00000000000000000000000000000000000000000000000000000000081526004016107729061188a565b60405180910390fd5b6001600360003373ffffffffffffffffffffffffffffffffffffffff1673ffffffffffffffffffffffffffffffffffffffff16815260200190815260200160002060008282546107cb91906117d6565b9250508190555060008290508073ffffffffffffffffffffffffffffffffffffffff166342842e0e3033856040518463ffffffff1660e01b8152600401610814939291906118aa565b600060405180830381600087803b15801561082e57600080fd5b505af1158015610842573d6000803e3d6000fd5b50505050505050565b60007f03fe4826f4e2eecbd5e9d9f10141b01e7d0d4fcef0676a0ac94cf4339fd7ebc5858585855a6040516108849594939291906116d0565b60405180910390a1636745782b60e01b9050949350505050565b6108a6610df8565b6108b06000610e76565b565b60008060009054906101000a900473ffffffffffffffffffffffffffffffffffffffff16905090565b60008290508073ffffffffffffffffffffffffffffffffffffffff166342842e0e3330856040518463ffffffff1660e01b815260040161091d939291906118aa565b600060405180830381600087803b15801561093757600080fd5b505af115801561094b573d6000803e3d6000fd5b505050506001600360003373ffffffffffffffffffffffffffffffffffffffff1673ffffffffffffffffffffffffffffffffffffffff168152602001908152602001600020600082825461099f919061180a565b92505081905550505050565b80600260003373ffffffffffffffffffffffffffffffffffffffff1673ffffffffffffffffffffffffffffffffffffffff16815260200190815260200160002060008473ffffffffffffffffffffffffffffffffffffffff1673ffffffffffffffffffffffffffffffffffffffff168152602001908152602001600020541015610a6a576040517f08c379a0000000000000000000000000000000000000000000000000000000008152600401610a619061192d565b60405180910390fd5b80600260003373ffffffffffffffffffffffffffffffffffffffff1673ffffffffffffffffffffffffffffffffffffffff16815260200190815260200160002060008473ffffffffffffffffffffffffffffffffffffffff1673ffffffffffffffffffffffffffffffffffffffff1681526020019081526020016000206000828254610af691906117d6565b925050819055506000829050610b2d33838373ffffffffffffffffffffffffffffffffffffffff16610f3a9092919063ffffffff16565b505050565b60036020528060005260406000206000915090505481565b6000600360008373ffffffffffffffffffffffffffffffffffffffff1673ffffffffffffffffffffffffffffffffffffffff168152602001908152602001600020549050919050565b6000600260008473ffffffffffffffffffffffffffffffffffffffff1673ffffffffffffffffffffffffffffffffffffffff16815260200190815260200160002060008373ffffffffffffffffffffffffffffffffffffffff1673ffffffffffffffffffffffffffffffffffffffff16815260200190815260200160002054905092915050565b60003090508073ffffffffffffffffffffffffffffffffffffffff166108fc349081150290604051600060405180830381858888f19350505050610c93576040517f08c379a0000000000000000000000000000000000000000000000000000000008152600401610c8a90611999565b60405180910390fd5b34600160003373ffffffffffffffffffffffffffffffffffffffff1673ffffffffffffffffffffffffffffffffffffffff1681526020019081526020016000206000828254610ce2919061180a565b9250508190555050565b610cf4610df8565b600073ffffffffffffffffffffffffffffffffffffffff168173ffffffffffffffffffffffffffffffffffffffff1603610d63576040517f08c379a0000000000000000000000000000000000000000000000000000000008152600401610d5a90611a2b565b60405180910390fd5b610d6c81610e76565b50565b610df2846323b872dd60e01b858585604051602401610d90939291906118aa565b604051602081830303815290604052907bffffffffffffffffffffffffffffffffffffffffffffffffffffffff19166020820180517bffffffffffffffffffffffffffffffffffffffffffffffffffffffff8381831617835250505050610fc0565b50505050565b610e00611087565b73ffffffffffffffffffffffffffffffffffffffff16610e1e6108b2565b73ffffffffffffffffffffffffffffffffffffffff1614610e74576040517f08c379a0000000000000000000000000000000000000000000000000000000008152600401610e6b90611a97565b60405180910390fd5b565b60008060009054906101000a900473ffffffffffffffffffffffffffffffffffffffff169050816000806101000a81548173ffffffffffffffffffffffffffffffffffffffff021916908373ffffffffffffffffffffffffffffffffffffffff1602179055508173ffffffffffffffffffffffffffffffffffffffff168173ffffffffffffffffffffffffffffffffffffffff167f8be0079c531659141344cd1fd0a4f28419497f9722a3daafe3b4186f6b6457e060405160405180910390a35050565b610fbb8363a9059cbb60e01b8484604051602401610f59929190611ab7565b604051602081830303815290604052907bffffffffffffffffffffffffffffffffffffffffffffffffffffffff19166020820180517bffffffffffffffffffffffffffffffffffffffffffffffffffffffff8381831617835250505050610fc0565b505050565b6000611022826040518060400160405280602081526020017f5361666545524332303a206c6f772d6c6576656c2063616c6c206661696c65648152508573ffffffffffffffffffffffffffffffffffffffff1661108f9092919063ffffffff16565b905060008151111561108257808060200190518101906110429190611b18565b611081576040517f08c379a000000000000000000000000000000000000000000000000000000000815260040161107890611bb7565b60405180910390fd5b5b505050565b600033905090565b606061109e84846000856110a7565b90509392505050565b6060824710156110ec576040517f08c379a00000000000000000000000000000000000000000000000000000000081526004016110e390611c49565b60405180910390fd5b6000808673ffffffffffffffffffffffffffffffffffffffff1685876040516111159190611ca5565b60006040518083038185875af1925050503d8060008114611152576040519150601f19603f3d011682016040523d82523d6000602084013e611157565b606091505b509150915061116887838387611174565b92505050949350505050565b606083156111d65760008351036111ce5761118e856111e9565b6111cd576040517f08c379a00000000000000000000000000000000000000000000000000000000081526004016111c490611d08565b60405180910390fd5b5b8290506111e1565b6111e0838361120c565b5b949350505050565b6000808273ffffffffffffffffffffffffffffffffffffffff163b119050919050565b60008251111561121f5781518083602001fd5b806040517f08c379a00000000000000000000000000000000000000000000000000000000081526004016112539190611d6c565b60405180910390fd5b6000604051905090565b600080fd5b600080fd5b600073ffffffffffffffffffffffffffffffffffffffff82169050919050565b600061129b82611270565b9050919050565b6112ab81611290565b81146112b657600080fd5b50565b6000813590506112c8816112a2565b92915050565b6000819050919050565b6112e1816112ce565b81146112ec57600080fd5b50565b6000813590506112fe816112d8565b92915050565b600080fd5b600080fd5b6000601f19601f8301169050919050565b7f4e487b7100000000000000000000000000000000000000000000000000000000600052604160045260246000fd5b6113578261130e565b810181811067ffffffffffffffff821117156113765761137561131f565b5b80604052505050565b600061138961125c565b9050611395828261134e565b919050565b600067ffffffffffffffff8211156113b5576113b461131f565b5b6113be8261130e565b9050602081019050919050565b82818337600083830152505050565b60006113ed6113e88461139a565b61137f565b90508281526020810184848401111561140957611408611309565b5b6114148482856113cb565b509392505050565b600082601f83011261143157611430611304565b5b81356114418482602086016113da565b91505092915050565b6000806000806080858703121561146457611463611266565b5b6000611472878288016112b9565b9450506020611483878288016112b9565b9350506040611494878288016112ef565b925050606085013567ffffffffffffffff8111156114b5576114b461126b565b5b6114c18782880161141c565b91505092959194509250565b60007fffffffff0000000000000000000000000000000000000000000000000000000082169050919050565b611502816114cd565b82525050565b600060208201905061151d60008301846114f9565b92915050565b60006020828403121561153957611538611266565b5b6000611547848285016112b9565b91505092915050565b611559816112ce565b82525050565b60006020820190506115746000830184611550565b92915050565b6000602082840312156115905761158f611266565b5b600061159e848285016112ef565b91505092915050565b600080604083850312156115be576115bd611266565b5b60006115cc858286016112b9565b92505060206115dd858286016112ef565b9150509250929050565b600080604083850312156115fe576115fd611266565b5b600061160c858286016112b9565b925050602061161d858286016112b9565b9150509250929050565b61163081611290565b82525050565b600060208201905061164b6000830184611627565b92915050565b600081519050919050565b600082825260208201905092915050565b60005b8381101561168b578082015181840152602081019050611670565b60008484015250505050565b60006116a282611651565b6116ac818561165c565b93506116bc81856020860161166d565b6116c58161130e565b840191505092915050565b600060a0820190506116e56000830188611627565b6116f26020830187611627565b6116ff6040830186611550565b81810360608301526117118185611697565b90506117206080830184611550565b9695505050505050565b600082825260208201905092915050565b7f496e73756666696369656e742062616c616e6365000000000000000000000000600082015250565b600061177160148361172a565b915061177c8261173b565b602082019050919050565b600060208201905081810360008301526117a081611764565b9050919050565b7f4e487b7100000000000000000000000000000000000000000000000000000000600052601160045260246000fd5b60006117e1826112ce565b91506117ec836112ce565b9250828203905081811115611804576118036117a7565b5b92915050565b6000611815826112ce565b9150611820836112ce565b9250828201905080821115611838576118376117a7565b5b92915050565b7f496e73756666696369656e74204e46542062616c616e63650000000000000000600082015250565b600061187460188361172a565b915061187f8261183e565b602082019050919050565b600060208201905081810360008301526118a381611867565b9050919050565b60006060820190506118bf6000830186611627565b6118cc6020830185611627565b6118d96040830184611550565b949350505050565b7f496e73756666696369656e7420746f6b656e2062616c616e6365000000000000600082015250565b6000611917601a8361172a565b9150611922826118e1565b602082019050919050565b600060208201905081810360008301526119468161190a565b9050919050565b7f5472616e73666572206661696c65640000000000000000000000000000000000600082015250565b6000611983600f8361172a565b915061198e8261194d565b602082019050919050565b600060208201905081810360008301526119b281611976565b9050919050565b7f4f776e61626c653a206e6577206f776e657220697320746865207a65726f206160008201527f6464726573730000000000000000000000000000000000000000000000000000602082015250565b6000611a1560268361172a565b9150611a20826119b9565b604082019050919050565b60006020820190508181036000830152611a4481611a08565b9050919050565b7f4f776e61626c653a2063616c6c6572206973206e6f7420746865206f776e6572600082015250565b6000611a8160208361172a565b9150611a8c82611a4b565b602082019050919050565b60006020820190508181036000830152611ab081611a74565b9050919050565b6000604082019050611acc6000830185611627565b611ad96020830184611550565b9392505050565b60008115159050919050565b611af581611ae0565b8114611b0057600080fd5b50565b600081519050611b1281611aec565b92915050565b600060208284031215611b2e57611b2d611266565b5b6000611b3c84828501611b03565b91505092915050565b7f5361666545524332303a204552433230206f7065726174696f6e20646964206e60008201527f6f74207375636365656400000000000000000000000000000000000000000000602082015250565b6000611ba1602a8361172a565b9150611bac82611b45565b604082019050919050565b60006020820190508181036000830152611bd081611b94565b9050919050565b7f416464726573733a20696e73756666696369656e742062616c616e636520666f60008201527f722063616c6c0000000000000000000000000000000000000000000000000000602082015250565b6000611c3360268361172a565b9150611c3e82611bd7565b604082019050919050565b60006020820190508181036000830152611c6281611c26565b9050919050565b600081905092915050565b6000611c7f82611651565b611c898185611c69565b9350611c9981856020860161166d565b80840191505092915050565b6000611cb18284611c74565b915081905092915050565b7f416464726573733a2063616c6c20746f206e6f6e2d636f6e7472616374000000600082015250565b6000611cf2601d8361172a565b9150611cfd82611cbc565b602082019050919050565b60006020820190508181036000830152611d2181611ce5565b9050919050565b600081519050919050565b6000611d3e82611d28565b611d48818561172a565b9350611d5881856020860161166d565b611d618161130e565b840191505092915050565b60006020820190508181036000830152611d868184611d33565b90509291505056fea2646970667358221220fef7db38332374c4bc112b6e196f1d3ca27d41a08f729afcaa0344ed3c6f103364736f6c63430008130033",
  "immutableReferences": {},
  "source": "// SPDX-License-Identifier: MIT\r\n\r\npragma solidity ^0.8.0;\r\n\r\nimport \"@openzeppelin/contracts/access/Ownable.sol\";\r\nimport \"@openzeppelin/contracts/token/ERC20/IERC20.sol\";\r\nimport \"@openzeppelin/contracts/token/ERC20/utils/SafeERC20.sol\";\r\nimport \"@openzeppelin/contracts/token/ERC721/IERC721.sol\";\r\nimport \"@openzeppelin/contracts/token/ERC721/IERC721Receiver.sol\";\r\n\r\ncontract SpendingManager is Ownable, IERC721Receiver {\r\n    using SafeERC20 for IERC20;\r\n\r\n    mapping(address => uint256) public chainBalances;\r\n    mapping(address => mapping(address => uint256)) public tokenBalances;\r\n    mapping(address => uint256) public nftBalances;\r\n\r\n    // Equals to `bytes4(keccak256(\"onKIP17Received(address,address,uint256,bytes)\"))`\r\n    // which can be also obtained as `IKIP17Receiver(0).onKIP17Received.selector`\r\n    bytes4 private constant _KIP17_RECEIVED = 0x6745782b;\r\n\r\n    // Equals to `bytes4(keccak256(\"onERC721Received(address,address,uint256,bytes)\"))`\r\n    // which can be also obtained as `IERC721Receiver(0).onERC721Received.selector`\r\n    bytes4 private constant _ERC721_RECEIVED = 0x150b7a02;\r\n\r\n    constructor() {}\r\n\r\n    function deposit() external payable {\r\n        address payable contractAddress = payable(address(this));\r\n        require(contractAddress.send(msg.value), \"Transfer failed\");\r\n        chainBalances[msg.sender] += msg.value;\r\n    }\r\n\r\n    function depositToken(address tokenAddress, uint256 amount) external {\r\n        IERC20 token = IERC20(tokenAddress);\r\n        token.safeTransferFrom(msg.sender, address(this), amount);\r\n        tokenBalances[msg.sender][tokenAddress] += amount;\r\n    }\r\n\r\n    function depositNFT(address nftAddress, uint256 tokenId) external {\r\n        IERC721 nft = IERC721(nftAddress);\r\n        nft.safeTransferFrom(msg.sender, address(this), tokenId);\r\n        nftBalances[msg.sender] += 1;\r\n    }\r\n\r\n    function withdraw(uint256 amount) external {\r\n        require(chainBalances[msg.sender] >= amount, \"Insufficient balance\");\r\n        chainBalances[msg.sender] -= amount;\r\n        address payable sender = payable(address(msg.sender));\r\n        sender.transfer(amount);\r\n    }\r\n\r\n    function withdrawToken(address tokenAddress, uint256 amount) external {\r\n        require(\r\n            tokenBalances[msg.sender][tokenAddress] >= amount,\r\n            \"Insufficient token balance\"\r\n        );\r\n        tokenBalances[msg.sender][tokenAddress] -= amount;\r\n        IERC20 token = IERC20(tokenAddress);\r\n        token.safeTransfer(msg.sender, amount);\r\n    }\r\n\r\n    function withdrawNFT(address nftAddress, uint256 tokenId) external {\r\n        require(nftBalances[msg.sender] >= 1, \"Insufficient NFT balance\");\r\n        nftBalances[msg.sender] -= 1;\r\n        IERC721 nft = IERC721(nftAddress);\r\n        nft.safeTransferFrom(address(this), msg.sender, tokenId);\r\n    }\r\n\r\n    function getChainBalance(address user) external view returns (uint256) {\r\n        return chainBalances[user];\r\n    }\r\n\r\n    function getTokenBalance(\r\n        address user,\r\n        address tokenAddress\r\n    ) external view returns (uint256) {\r\n        return tokenBalances[user][tokenAddress];\r\n    }\r\n\r\n    function getNFTBalance(address user) external view returns (uint256) {\r\n        return nftBalances[user];\r\n    }\r\n\r\n    ///////////\r\n    /// Reciever//\r\n    /////////////\r\n\r\n    event KIP17Received(\r\n        address operator,\r\n        address from,\r\n        uint256 tokenId,\r\n        bytes data,\r\n        uint256 gas\r\n    );\r\n\r\n    function onKIP17Received(\r\n        address operator,\r\n        address from,\r\n        uint256 tokenId,\r\n        bytes memory data\r\n    ) public returns (bytes4) {\r\n        emit KIP17Received(operator, from, tokenId, data, gasleft());\r\n        return _KIP17_RECEIVED;\r\n    }\r\n\r\n    event ERC721Received(\r\n        address operator,\r\n        address from,\r\n        uint256 tokenId,\r\n        bytes data,\r\n        uint256 gas\r\n    );\r\n\r\n    function onERC721Received(\r\n        address operator,\r\n        address from,\r\n        uint256 tokenId,\r\n        bytes memory data\r\n    ) public returns (bytes4) {\r\n        emit ERC721Received(operator, from, tokenId, data, gasleft());\r\n        return _ERC721_RECEIVED;\r\n    }\r\n}",
  "sourcePath": "C:\\git\\web3.0-general\\SmartContractRepo\\contracts\\SpendingManager.sol",
  "compiler": {
    "name": "solc",
    "version": "0.8.19+commit.7dd6d404.Emscripten.clang"
  },
  "schemaVersion": "3.4.13",
  "updatedAt": "2023-03-28T07:39:30.854Z",
  "devdoc": {
    "kind": "dev",
    "methods": {
      "onERC721Received(address,address,uint256,bytes)": {
        "details": "Whenever an {IERC721} `tokenId` token is transferred to this contract via {IERC721-safeTransferFrom} by `operator` from `from`, this function is called. It must return its Solidity selector to confirm the token transfer. If any other value is returned or the interface is not implemented by the recipient, the transfer will be reverted. The selector can be obtained in Solidity with `IERC721Receiver.onERC721Received.selector`."
      },
      "owner()": {
        "details": "Returns the address of the current owner."
      },
      "renounceOwnership()": {
        "details": "Leaves the contract without owner. It will not be possible to call `onlyOwner` functions anymore. Can only be called by the current owner. NOTE: Renouncing ownership will leave the contract without an owner, thereby removing any functionality that is only available to the owner."
      },
      "transferOwnership(address)": {
        "details": "Transfers ownership of the contract to a new account (`newOwner`). Can only be called by the current owner."
      }
    },
    "version": 1
  },
  "userdoc": {
    "events": {
      "KIP17Received(address,address,uint256,bytes,uint256)": {
        "notice": "Reciever//"
      }
    },
    "kind": "user",
    "methods": {},
    "version": 1
  }
}